{
	"data": {
		"bytecode": {
			"linkReferences": {},
			"object": "60806040523480156200001157600080fd5b506040518060400160405280601081526020017f4d65746f706961204e465420436c7562000000000000000000000000000000008152506040518060400160405280600b81526020017f6d65746f706961204e4654000000000000000000000000000000000000000000815250816000908051906020019062000096929190620002d7565b508060019080519060200190620000af929190620002d7565b505050620000d2620000c6620001f360201b60201c565b620001fb60201b60201c565b612710600f819055506040518060400160405280601f81526020017f687474703a2f2f34372e35372e3234332e3137373a383036302f6d6574612f008152506010908051906020019062000128929190620002d7565b5062000140600e620002c160201b620028541760201c565b60016008600062013881815260200190815260200160002060006101000a81548160ff0219169083151502179055600860006089815260200190815260200160002060006101000a81548160ff0219169083151502179055600860006003815260200190815260200160002060006101000a81548160ff0219169083151502179055600860006001815260200190815260200160002060006101000a81548160ff021916908315150217905550620003ec565b600033905090565b6000600760009054906101000a900473ffffffffffffffffffffffffffffffffffffffff16905081600760006101000a81548173ffffffffffffffffffffffffffffffffffffffff021916908373ffffffffffffffffffffffffffffffffffffffff1602179055508173ffffffffffffffffffffffffffffffffffffffff168173ffffffffffffffffffffffffffffffffffffffff167f8be0079c531659141344cd1fd0a4f28419497f9722a3daafe3b4186f6b6457e060405160405180910390a35050565b6001816000016000828254019250508190555050565b828054620002e59062000387565b90600052602060002090601f01602090048101928262000309576000855562000355565b82601f106200032457805160ff191683800117855562000355565b8280016001018555821562000355579182015b828111156200035457825182559160200191906001019062000337565b5b50905062000364919062000368565b5090565b5b808211156200038357600081600090555060010162000369565b5090565b60006002820490506001821680620003a057607f821691505b60208210811415620003b757620003b6620003bd565b5b50919050565b7f4e487b7100000000000000000000000000000000000000000000000000000000600052602260045260246000fd5b61566a80620003fc6000396000f3fe608060405234801561001057600080fd5b50600436106102745760003560e01c8063723a2a8e11610151578063b88d4fde116100c3578063ce46373411610087578063ce46373414610729578063d5abeb0114610759578063e591ed8114610777578063e985e9c514610793578063eab36087146107c3578063f2fde38b146107f357610274565b8063b88d4fde14610689578063bd30a4cb146106a5578063c58d6799146106c1578063c87b56dd146106dd578063cd0592371461070d57610274565b80638c4e3699116101155780638c4e3699146105b55780638da5cb5b146105d157806395d89b41146105ef57806395f20f4b1461060d578063a22cb4651461063d578063a241af991461065957610274565b8063723a2a8e1461052957806375d331cc1461054557806379cba591146105615780637f77b3b51461057d5780638164c3091461059957610274565b806355f804b3116101ea5780636360e1d9116101ae5780636360e1d91461046957806369d3372a146104995780636c0360eb146104b55780636f8b44b0146104d357806370a08231146104ef578063715018a61461051f57610274565b806355f804b3146103c95780635a4fe0f6146103e55780635a68ac86146104015780635c35a65a1461041d5780636352211e1461043957610274565b80630c66b3a01161023c5780630c66b3a01461033157806318160ddd1461034d57806323b872dd1461036b57806324643ddb1461038757806341c0e1b5146103a357806342842e0e146103ad57610274565b806301ffc9a71461027957806306fdde03146102a9578063081812fc146102c7578063095ea7b3146102f75780630c4f65bd14610313575b600080fd5b610293600480360381019061028e9190613eea565b61080f565b6040516102a09190614666565b60405180910390f35b6102b16108f1565b6040516102be91906146c6565b60405180910390f35b6102e160048036038101906102dc9190613f8d565b610983565b6040516102ee91906145b3565b60405180910390f35b610311600480360381019061030c9190613c17565b610a08565b005b61031b610b20565b60405161032891906145b3565b60405180910390f35b61034b60048036038101906103469190613d07565b610b2f565b005b610355610c14565b6040516103629190614a03565b60405180910390f35b61038560048036038101906103809190613b01565b610c1e565b005b6103a1600480360381019061039c9190613fba565b610c7e565b005b6103ab610ee1565b005b6103c760048036038101906103c29190613b01565b610f76565b005b6103e360048036038101906103de9190613f44565b610f96565b005b6103ff60048036038101906103fa9190613cbe565b61102c565b005b61041b60048036038101906104169190613fba565b61113d565b005b61043760048036038101906104329190613a94565b611194565b005b610453600480360381019061044e9190613f8d565b61126b565b60405161046091906145b3565b60405180910390f35b610483600480360381019061047e9190613a94565b61131d565b6040516104909190614666565b60405180910390f35b6104b360048036038101906104ae9190613d07565b611373565b005b6104bd611458565b6040516104ca91906146c6565b60405180910390f35b6104ed60048036038101906104e89190613f8d565b6114ea565b005b61050960048036038101906105049190613a94565b611570565b6040516105169190614a03565b60405180910390f35b610527611628565b005b610543600480360381019061053e9190613a94565b6116b0565b005b61055f600480360381019061055a9190613c57565b611787565b005b61057b60048036038101906105769190613fba565b61197c565b005b61059760048036038101906105929190613e53565b611b87565b005b6105b360048036038101906105ae9190613a94565b611de9565b005b6105cf60048036038101906105ca9190613f8d565b611ec0565b005b6105d9611f6b565b6040516105e691906145b3565b60405180910390f35b6105f7611f95565b60405161060491906146c6565b60405180910390f35b61062760048036038101906106229190613a94565b612027565b6040516106349190614666565b60405180910390f35b61065760048036038101906106529190613bd7565b612047565b005b610673600480360381019061066e9190613f8d565b61205d565b60405161068091906149e8565b60405180910390f35b6106a3600480360381019061069e9190613b54565b6120f4565b005b6106bf60048036038101906106ba9190613d50565b612156565b005b6106db60048036038101906106d69190613a94565b612235565b005b6106f760048036038101906106f29190613f8d565b61230c565b60405161070491906146c6565b60405180910390f35b61072760048036038101906107229190613cbe565b61245e565b005b610743600480360381019061073e9190613a94565b61256f565b6040516107509190614666565b60405180910390f35b6107616125c5565b60405161076e9190614a03565b60405180910390f35b610791600480360381019061078c9190613f8d565b6125cf565b005b6107ad60048036038101906107a89190613ac1565b61267a565b6040516107ba9190614666565b60405180910390f35b6107dd60048036038101906107d89190613df7565b61270e565b6040516107ea9190614666565b60405180910390f35b61080d60048036038101906108089190613a94565b61275c565b005b60007f80ac58cd000000000000000000000000000000000000000000000000000000007bffffffffffffffffffffffffffffffffffffffffffffffffffffffff1916827bffffffffffffffffffffffffffffffffffffffffffffffffffffffff191614806108da57507f5b5e139f000000000000000000000000000000000000000000000000000000007bffffffffffffffffffffffffffffffffffffffffffffffffffffffff1916827bffffffffffffffffffffffffffffffffffffffffffffffffffffffff1916145b806108ea57506108e98261286a565b5b9050919050565b60606000805461090090614d71565b80601f016020809104026020016040519081016040528092919081815260200182805461092c90614d71565b80156109795780601f1061094e57610100808354040283529160200191610979565b820191906000526020600020905b81548152906001019060200180831161095c57829003601f168201915b5050505050905090565b600061098e826128d4565b6109cd576040517f08c379a00000000000000000000000000000000000000000000000000000000081526004016109c490614888565b60405180910390fd5b6004600083815260200190815260200160002060009054906101000a900473ffffffffffffffffffffffffffffffffffffffff169050919050565b6000610a138261126b565b90508073ffffffffffffffffffffffffffffffffffffffff168373ffffffffffffffffffffffffffffffffffffffff161415610a84576040517f08c379a0000000000000000000000000000000000000000000000000000000008152600401610a7b90614908565b60405180910390fd5b8073ffffffffffffffffffffffffffffffffffffffff16610aa3612940565b73ffffffffffffffffffffffffffffffffffffffff161480610ad25750610ad181610acc612940565b61267a565b5b610b11576040517f08c379a0000000000000000000000000000000000000000000000000000000008152600401610b08906147c8565b60405180910390fd5b610b1b8383612948565b505050565b6000610b2a611f6b565b905090565b610b37612940565b73ffffffffffffffffffffffffffffffffffffffff16610b55611f6b565b73ffffffffffffffffffffffffffffffffffffffff1614610bab576040517f08c379a0000000000000000000000000000000000000000000000000000000008152600401610ba2906148a8565b60405180910390fd5b60005b8151811015610c1057600060086000848481518110610bd057610bcf614edb565b5b6020026020010151815260200190815260200160002060006101000a81548160ff0219169083151502179055508080610c0890614dd4565b915050610bae565b5050565b6000600f54905090565b610c2f610c29612940565b82612a01565b610c6e576040517f08c379a0000000000000000000000000000000000000000000000000000000008152600401610c6590614948565b60405180910390fd5b610c79838383612adf565b505050565b6008600084815260200190815260200160002060009054906101000a900460ff16610cde576040517f08c379a0000000000000000000000000000000000000000000000000000000008152600401610cd590614708565b60405180910390fd5b600a60003373ffffffffffffffffffffffffffffffffffffffff1673ffffffffffffffffffffffffffffffffffffffff16815260200190815260200160002060009054906101000a900460ff16610d6a576040517f08c379a0000000000000000000000000000000000000000000000000000000008152600401610d6190614968565b60405180910390fd5b6000610d76600e612d3b565b9050600f54610d85600e612d3b565b1115610dc6576040517f08c379a0000000000000000000000000000000000000000000000000000000008152600401610dbd906149a8565b60405180910390fd5b610dd0600e612854565b610de1610ddb612940565b82612d49565b6000600a60003373ffffffffffffffffffffffffffffffffffffffff1673ffffffffffffffffffffffffffffffffffffffff16815260200190815260200160002060006101000a81548160ff02191690831515021790555060405180606001604052808581526020018473ffffffffffffffffffffffffffffffffffffffff16815260200183815250600b60008381526020019081526020016000206000820151816000015560208201518160010160006101000a81548173ffffffffffffffffffffffffffffffffffffffff021916908373ffffffffffffffffffffffffffffffffffffffff1602179055506040820151816002015590505050505050565b610ee9612940565b73ffffffffffffffffffffffffffffffffffffffff16610f07611f6b565b73ffffffffffffffffffffffffffffffffffffffff1614610f5d576040517f08c379a0000000000000000000000000000000000000000000000000000000008152600401610f54906148a8565b60405180910390fd5b3373ffffffffffffffffffffffffffffffffffffffff16ff5b610f91838383604051806020016040528060008152506120f4565b505050565b610f9e612940565b73ffffffffffffffffffffffffffffffffffffffff16610fbc611f6b565b73ffffffffffffffffffffffffffffffffffffffff1614611012576040517f08c379a0000000000000000000000000000000000000000000000000000000008152600401611009906148a8565b60405180910390fd5b8060109080519060200190611028929190613720565b5050565b611034612940565b73ffffffffffffffffffffffffffffffffffffffff16611052611f6b565b73ffffffffffffffffffffffffffffffffffffffff16146110a8576040517f08c379a000000000000000000000000000000000000000000000000000000000815260040161109f906148a8565b60405180910390fd5b60005b8151811015611139576000600a60008484815181106110cd576110cc614edb565b5b602002602001015173ffffffffffffffffffffffffffffffffffffffff1673ffffffffffffffffffffffffffffffffffffffff16815260200190815260200160002060006101000a81548160ff021916908315150217905550808061113190614dd4565b9150506110ab565b5050565b3373ffffffffffffffffffffffffffffffffffffffff167f114abfdeae82a138df9b27b1f9d1f41e9de8820e7e3d29219403d2a290cbe85884848460405161118793929190614a1e565b60405180910390a2505050565b61119c612940565b73ffffffffffffffffffffffffffffffffffffffff166111ba611f6b565b73ffffffffffffffffffffffffffffffffffffffff1614611210576040517f08c379a0000000000000000000000000000000000000000000000000000000008152600401611207906148a8565b60405180910390fd5b6000600960008373ffffffffffffffffffffffffffffffffffffffff1673ffffffffffffffffffffffffffffffffffffffff16815260200190815260200160002060006101000a81548160ff02191690831515021790555050565b6000806002600084815260200190815260200160002060009054906101000a900473ffffffffffffffffffffffffffffffffffffffff169050600073ffffffffffffffffffffffffffffffffffffffff168173ffffffffffffffffffffffffffffffffffffffff161415611314576040517f08c379a000000000000000000000000000000000000000000000000000000000815260040161130b90614808565b60405180910390fd5b80915050919050565b6000600a60008373ffffffffffffffffffffffffffffffffffffffff1673ffffffffffffffffffffffffffffffffffffffff16815260200190815260200160002060009054906101000a900460ff169050919050565b61137b612940565b73ffffffffffffffffffffffffffffffffffffffff16611399611f6b565b73ffffffffffffffffffffffffffffffffffffffff16146113ef576040517f08c379a00000000000000000000000000000000000000000000000000000000081526004016113e6906148a8565b60405180910390fd5b60005b81518110156114545760016008600084848151811061141457611413614edb565b5b6020026020010151815260200190815260200160002060006101000a81548160ff021916908315150217905550808061144c90614dd4565b9150506113f2565b5050565b60606010805461146790614d71565b80601f016020809104026020016040519081016040528092919081815260200182805461149390614d71565b80156114e05780601f106114b5576101008083540402835291602001916114e0565b820191906000526020600020905b8154815290600101906020018083116114c357829003601f168201915b5050505050905090565b6114f2612940565b73ffffffffffffffffffffffffffffffffffffffff16611510611f6b565b73ffffffffffffffffffffffffffffffffffffffff1614611566576040517f08c379a000000000000000000000000000000000000000000000000000000000815260040161155d906148a8565b60405180910390fd5b80600f8190555050565b60008073ffffffffffffffffffffffffffffffffffffffff168273ffffffffffffffffffffffffffffffffffffffff1614156115e1576040517f08c379a00000000000000000000000000000000000000000000000000000000081526004016115d8906147e8565b60405180910390fd5b600360008373ffffffffffffffffffffffffffffffffffffffff1673ffffffffffffffffffffffffffffffffffffffff168152602001908152602001600020549050919050565b611630612940565b73ffffffffffffffffffffffffffffffffffffffff1661164e611f6b565b73ffffffffffffffffffffffffffffffffffffffff16146116a4576040517f08c379a000000000000000000000000000000000000000000000000000000000815260040161169b906148a8565b60405180910390fd5b6116ae6000612d67565b565b6116b8612940565b73ffffffffffffffffffffffffffffffffffffffff166116d6611f6b565b73ffffffffffffffffffffffffffffffffffffffff161461172c576040517f08c379a0000000000000000000000000000000000000000000000000000000008152600401611723906148a8565b60405180910390fd5b6001600960008373ffffffffffffffffffffffffffffffffffffffff1673ffffffffffffffffffffffffffffffffffffffff16815260200190815260200160002060006101000a81548160ff02191690831515021790555050565b61178f612940565b73ffffffffffffffffffffffffffffffffffffffff166117ad611f6b565b73ffffffffffffffffffffffffffffffffffffffff1614611803576040517f08c379a00000000000000000000000000000000000000000000000000000000081526004016117fa906148a8565b60405180910390fd5b600061180f600e612d3b565b9050600f5461181e600e612d3b565b111561185f576040517f08c379a0000000000000000000000000000000000000000000000000000000008152600401611856906149a8565b60405180910390fd5b6008600085815260200190815260200160002060009054906101000a900460ff166118bf576040517f08c379a00000000000000000000000000000000000000000000000000000000081526004016118b690614708565b60405180910390fd5b6118c9600e612854565b6118d38582612d49565b60405180606001604052808581526020018473ffffffffffffffffffffffffffffffffffffffff16815260200183815250600b60008381526020019081526020016000206000820151816000015560208201518160010160006101000a81548173ffffffffffffffffffffffffffffffffffffffff021916908373ffffffffffffffffffffffffffffffffffffffff160217905550604082015181600201559050505050505050565b6008600084815260200190815260200160002060009054906101000a900460ff166119dc576040517f08c379a00000000000000000000000000000000000000000000000000000000081526004016119d390614708565b60405180910390fd5b600960008373ffffffffffffffffffffffffffffffffffffffff1673ffffffffffffffffffffffffffffffffffffffff16815260200190815260200160002060009054906101000a900460ff16611a68576040517f08c379a0000000000000000000000000000000000000000000000000000000008152600401611a5f90614868565b60405180910390fd5b6000611a74600e612d3b565b9050600f54611a83600e612d3b565b1115611ac4576040517f08c379a0000000000000000000000000000000000000000000000000000000008152600401611abb906149a8565b60405180910390fd5b611ace600e612854565b611adf611ad9612940565b82612d49565b60405180606001604052808581526020018473ffffffffffffffffffffffffffffffffffffffff16815260200183815250600b60008381526020019081526020016000206000820151816000015560208201518160010160006101000a81548173ffffffffffffffffffffffffffffffffffffffff021916908373ffffffffffffffffffffffffffffffffffffffff1602179055506040820151816002015590505050505050565b60001515600c600087815260200190815260200160002060009054906101000a900460ff16151514611bee576040517f08c379a0000000000000000000000000000000000000000000000000000000008152600401611be5906149c8565b60405180910390fd5b6000611bfa8686612e2d565b9050611c04611f6b565b73ffffffffffffffffffffffffffffffffffffffff168173ffffffffffffffffffffffffffffffffffffffff1614611c3b57600080fd5b6008600085815260200190815260200160002060009054906101000a900460ff16611c9b576040517f08c379a0000000000000000000000000000000000000000000000000000000008152600401611c9290614708565b60405180910390fd5b6000611ca7600e612d3b565b9050600f54611cb6600e612d3b565b1115611cf7576040517f08c379a0000000000000000000000000000000000000000000000000000000008152600401611cee906149a8565b60405180910390fd5b611d01600e612854565b611d12611d0c612940565b82612d49565b60405180606001604052808681526020018573ffffffffffffffffffffffffffffffffffffffff16815260200184815250600b60008381526020019081526020016000206000820151816000015560208201518160010160006101000a81548173ffffffffffffffffffffffffffffffffffffffff021916908373ffffffffffffffffffffffffffffffffffffffff160217905550604082015181600201559050506001600c600089815260200190815260200160002060006101000a81548160ff02191690831515021790555050505050505050565b611df1612940565b73ffffffffffffffffffffffffffffffffffffffff16611e0f611f6b565b73ffffffffffffffffffffffffffffffffffffffff1614611e65576040517f08c379a0000000000000000000000000000000000000000000000000000000008152600401611e5c906148a8565b60405180910390fd5b6001600a60008373ffffffffffffffffffffffffffffffffffffffff1673ffffffffffffffffffffffffffffffffffffffff16815260200190815260200160002060006101000a81548160ff02191690831515021790555050565b611ec8612940565b73ffffffffffffffffffffffffffffffffffffffff16611ee6611f6b565b73ffffffffffffffffffffffffffffffffffffffff1614611f3c576040517f08c379a0000000000000000000000000000000000000000000000000000000008152600401611f33906148a8565b60405180910390fd5b60016008600083815260200190815260200160002060006101000a81548160ff02191690831515021790555050565b6000600760009054906101000a900473ffffffffffffffffffffffffffffffffffffffff16905090565b606060018054611fa490614d71565b80601f0160208091040260200160405190810160405280929190818152602001828054611fd090614d71565b801561201d5780601f10611ff25761010080835404028352916020019161201d565b820191906000526020600020905b81548152906001019060200180831161200057829003601f168201915b5050505050905090565b600d6020528060005260406000206000915054906101000a900460ff1681565b612059612052612940565b8383612ea2565b5050565b6120656137a6565b600b6000838152602001908152602001600020604051806060016040529081600082015481526020016001820160009054906101000a900473ffffffffffffffffffffffffffffffffffffffff1673ffffffffffffffffffffffffffffffffffffffff1673ffffffffffffffffffffffffffffffffffffffff1681526020016002820154815250509050919050565b6121056120ff612940565b83612a01565b612144576040517f08c379a000000000000000000000000000000000000000000000000000000000815260040161213b90614948565b60405180910390fd5b6121508484848461300f565b50505050565b815183511461219a576040517f08c379a000000000000000000000000000000000000000000000000000000000815260040161219190614988565b60405180910390fd5b80518351146121de576040517f08c379a00000000000000000000000000000000000000000000000000000000081526004016121d590614928565b60405180910390fd5b3373ffffffffffffffffffffffffffffffffffffffff167f8d9b1399e0d1533e91cadd84ceac1e10325efdbf28dc94c8f5209fdb5bf88a428484846040516122289392919061461a565b60405180910390a2505050565b61223d612940565b73ffffffffffffffffffffffffffffffffffffffff1661225b611f6b565b73ffffffffffffffffffffffffffffffffffffffff16146122b1576040517f08c379a00000000000000000000000000000000000000000000000000000000081526004016122a8906148a8565b60405180910390fd5b6000600a60008373ffffffffffffffffffffffffffffffffffffffff1673ffffffffffffffffffffffffffffffffffffffff16815260200190815260200160002060006101000a81548160ff02191690831515021790555050565b6060612317826128d4565b612356576040517f08c379a000000000000000000000000000000000000000000000000000000000815260040161234d90614848565b60405180910390fd5b600060066000848152602001908152602001600020805461237690614d71565b80601f01602080910402602001604051908101604052809291908181526020018280546123a290614d71565b80156123ef5780601f106123c4576101008083540402835291602001916123ef565b820191906000526020600020905b8154815290600101906020018083116123d257829003601f168201915b50505050509050600061240061306b565b9050600081511415612416578192505050612459565b60008251111561244b57808260405160200161243392919061458f565b60405160208183030381529060405292505050612459565b612454846130fd565b925050505b919050565b612466612940565b73ffffffffffffffffffffffffffffffffffffffff16612484611f6b565b73ffffffffffffffffffffffffffffffffffffffff16146124da576040517f08c379a00000000000000000000000000000000000000000000000000000000081526004016124d1906148a8565b60405180910390fd5b60005b815181101561256b576001600a60008484815181106124ff576124fe614edb565b5b602002602001015173ffffffffffffffffffffffffffffffffffffffff1673ffffffffffffffffffffffffffffffffffffffff16815260200190815260200160002060006101000a81548160ff021916908315150217905550808061256390614dd4565b9150506124dd565b5050565b6000600960008373ffffffffffffffffffffffffffffffffffffffff1673ffffffffffffffffffffffffffffffffffffffff16815260200190815260200160002060009054906101000a900460ff169050919050565b6000600f54905090565b6125d7612940565b73ffffffffffffffffffffffffffffffffffffffff166125f5611f6b565b73ffffffffffffffffffffffffffffffffffffffff161461264b576040517f08c379a0000000000000000000000000000000000000000000000000000000008152600401612642906148a8565b60405180910390fd5b60006008600083815260200190815260200160002060006101000a81548160ff02191690831515021790555050565b6000600560008473ffffffffffffffffffffffffffffffffffffffff1673ffffffffffffffffffffffffffffffffffffffff16815260200190815260200160002060008373ffffffffffffffffffffffffffffffffffffffff1673ffffffffffffffffffffffffffffffffffffffff16815260200190815260200160002060009054906101000a900460ff16905092915050565b60008061271b8484612e2d565b9050612725611f6b565b73ffffffffffffffffffffffffffffffffffffffff168173ffffffffffffffffffffffffffffffffffffffff161491505092915050565b612764612940565b73ffffffffffffffffffffffffffffffffffffffff16612782611f6b565b73ffffffffffffffffffffffffffffffffffffffff16146127d8576040517f08c379a00000000000000000000000000000000000000000000000000000000081526004016127cf906148a8565b60405180910390fd5b600073ffffffffffffffffffffffffffffffffffffffff168173ffffffffffffffffffffffffffffffffffffffff161415612848576040517f08c379a000000000000000000000000000000000000000000000000000000000815260040161283f90614728565b60405180910390fd5b61285181612d67565b50565b6001816000016000828254019250508190555050565b60007f01ffc9a7000000000000000000000000000000000000000000000000000000007bffffffffffffffffffffffffffffffffffffffffffffffffffffffff1916827bffffffffffffffffffffffffffffffffffffffffffffffffffffffff1916149050919050565b60008073ffffffffffffffffffffffffffffffffffffffff166002600084815260200190815260200160002060009054906101000a900473ffffffffffffffffffffffffffffffffffffffff1673ffffffffffffffffffffffffffffffffffffffff1614159050919050565b600033905090565b816004600083815260200190815260200160002060006101000a81548173ffffffffffffffffffffffffffffffffffffffff021916908373ffffffffffffffffffffffffffffffffffffffff160217905550808273ffffffffffffffffffffffffffffffffffffffff166129bb8361126b565b73ffffffffffffffffffffffffffffffffffffffff167f8c5be1e5ebec7d5bd14f71427d1e84f3dd0314c0f7b2291e5b200ac8c7c3b92560405160405180910390a45050565b6000612a0c826128d4565b612a4b576040517f08c379a0000000000000000000000000000000000000000000000000000000008152600401612a42906147a8565b60405180910390fd5b6000612a568361126b565b90508073ffffffffffffffffffffffffffffffffffffffff168473ffffffffffffffffffffffffffffffffffffffff161480612ac557508373ffffffffffffffffffffffffffffffffffffffff16612aad84610983565b73ffffffffffffffffffffffffffffffffffffffff16145b80612ad65750612ad5818561267a565b5b91505092915050565b8273ffffffffffffffffffffffffffffffffffffffff16612aff8261126b565b73ffffffffffffffffffffffffffffffffffffffff1614612b55576040517f08c379a0000000000000000000000000000000000000000000000000000000008152600401612b4c906148c8565b60405180910390fd5b600073ffffffffffffffffffffffffffffffffffffffff168273ffffffffffffffffffffffffffffffffffffffff161415612bc5576040517f08c379a0000000000000000000000000000000000000000000000000000000008152600401612bbc90614768565b60405180910390fd5b612bd08383836131a4565b612bdb600082612948565b6001600360008573ffffffffffffffffffffffffffffffffffffffff1673ffffffffffffffffffffffffffffffffffffffff1681526020019081526020016000206000828254612c2b9190614c70565b925050819055506001600360008473ffffffffffffffffffffffffffffffffffffffff1673ffffffffffffffffffffffffffffffffffffffff1681526020019081526020016000206000828254612c829190614be9565b92505081905550816002600083815260200190815260200160002060006101000a81548173ffffffffffffffffffffffffffffffffffffffff021916908373ffffffffffffffffffffffffffffffffffffffff160217905550808273ffffffffffffffffffffffffffffffffffffffff168473ffffffffffffffffffffffffffffffffffffffff167fddf252ad1be2c89b69c2b068fc378daa952ba7f163c4a11628f55a4df523b3ef60405160405180910390a4505050565b600081600001549050919050565b612d638282604051806020016040528060008152506131a9565b5050565b6000600760009054906101000a900473ffffffffffffffffffffffffffffffffffffffff16905081600760006101000a81548173ffffffffffffffffffffffffffffffffffffffff021916908373ffffffffffffffffffffffffffffffffffffffff1602179055508173ffffffffffffffffffffffffffffffffffffffff168173ffffffffffffffffffffffffffffffffffffffff167f8be0079c531659141344cd1fd0a4f28419497f9722a3daafe3b4186f6b6457e060405160405180910390a35050565b600080600080612e3c85613204565b80935081945082955050505060018684848460405160008152602001604052604051612e6b9493929190614681565b6020604051602081039080840390855afa158015612e8d573d6000803e3d6000fd5b50505060206040510351935050505092915050565b8173ffffffffffffffffffffffffffffffffffffffff168373ffffffffffffffffffffffffffffffffffffffff161415612f11576040517f08c379a0000000000000000000000000000000000000000000000000000000008152600401612f0890614788565b60405180910390fd5b80600560008573ffffffffffffffffffffffffffffffffffffffff1673ffffffffffffffffffffffffffffffffffffffff16815260200190815260200160002060008473ffffffffffffffffffffffffffffffffffffffff1673ffffffffffffffffffffffffffffffffffffffff16815260200190815260200160002060006101000a81548160ff0219169083151502179055508173ffffffffffffffffffffffffffffffffffffffff168373ffffffffffffffffffffffffffffffffffffffff167f17307eab39ab6107e8899845ad3d59bd9653f200f220920489ca2b5937696c31836040516130029190614666565b60405180910390a3505050565b61301a848484612adf565b61302684848484613247565b613065576040517f08c379a000000000000000000000000000000000000000000000000000000000815260040161305c906146e8565b60405180910390fd5b50505050565b60606010805461307a90614d71565b80601f01602080910402602001604051908101604052809291908181526020018280546130a690614d71565b80156130f35780601f106130c8576101008083540402835291602001916130f3565b820191906000526020600020905b8154815290600101906020018083116130d657829003601f168201915b5050505050905090565b6060613108826128d4565b613147576040517f08c379a000000000000000000000000000000000000000000000000000000000815260040161313e906148e8565b60405180910390fd5b600061315161306b565b90506000815111613171576040518060200160405280600081525061319c565b8061317b846133de565b60405160200161318c92919061458f565b6040516020818303038152906040525b915050919050565b505050565b6131b3838361353f565b6131c06000848484613247565b6131ff576040517f08c379a00000000000000000000000000000000000000000000000000000000081526004016131f6906146e8565b60405180910390fd5b505050565b6000806000604184511461321757600080fd5b60008060006020870151925060408701519150606087015160001a90508083839550955095505050509193909250565b60006132688473ffffffffffffffffffffffffffffffffffffffff1661370d565b156133d1578373ffffffffffffffffffffffffffffffffffffffff1663150b7a02613291612940565b8786866040518563ffffffff1660e01b81526004016132b394939291906145ce565b602060405180830381600087803b1580156132cd57600080fd5b505af19250505080156132fe57506040513d601f19601f820116820180604052508101906132fb9190613f17565b60015b613381573d806000811461332e576040519150601f19603f3d011682016040523d82523d6000602084013e613333565b606091505b50600081511415613379576040517f08c379a0000000000000000000000000000000000000000000000000000000008152600401613370906146e8565b60405180910390fd5b805181602001fd5b63150b7a0260e01b7bffffffffffffffffffffffffffffffffffffffffffffffffffffffff1916817bffffffffffffffffffffffffffffffffffffffffffffffffffffffff1916149150506133d6565b600190505b949350505050565b60606000821415613426576040518060400160405280600181526020017f3000000000000000000000000000000000000000000000000000000000000000815250905061353a565b600082905060005b6000821461345857808061344190614dd4565b915050600a826134519190614c3f565b915061342e565b60008167ffffffffffffffff81111561347457613473614f0a565b5b6040519080825280601f01601f1916602001820160405280156134a65781602001600182028036833780820191505090505b5090505b60008514613533576001826134bf9190614c70565b9150600a856134ce9190614e1d565b60306134da9190614be9565b60f81b8183815181106134f0576134ef614edb565b5b60200101907effffffffffffffffffffffffffffffffffffffffffffffffffffffffffffff1916908160001a905350600a8561352c9190614c3f565b94506134aa565b8093505050505b919050565b600073ffffffffffffffffffffffffffffffffffffffff168273ffffffffffffffffffffffffffffffffffffffff1614156135af576040517f08c379a00000000000000000000000000000000000000000000000000000000081526004016135a690614828565b60405180910390fd5b6135b8816128d4565b156135f8576040517f08c379a00000000000000000000000000000000000000000000000000000000081526004016135ef90614748565b60405180910390fd5b613604600083836131a4565b6001600360008473ffffffffffffffffffffffffffffffffffffffff1673ffffffffffffffffffffffffffffffffffffffff16815260200190815260200160002060008282546136549190614be9565b92505081905550816002600083815260200190815260200160002060006101000a81548173ffffffffffffffffffffffffffffffffffffffff021916908373ffffffffffffffffffffffffffffffffffffffff160217905550808273ffffffffffffffffffffffffffffffffffffffff16600073ffffffffffffffffffffffffffffffffffffffff167fddf252ad1be2c89b69c2b068fc378daa952ba7f163c4a11628f55a4df523b3ef60405160405180910390a45050565b600080823b905060008111915050919050565b82805461372c90614d71565b90600052602060002090601f01602090048101928261374e5760008555613795565b82601f1061376757805160ff1916838001178555613795565b82800160010185558215613795579182015b82811115613794578251825591602001919060010190613779565b5b5090506137a291906137dd565b5090565b604051806060016040528060008152602001600073ffffffffffffffffffffffffffffffffffffffff168152602001600081525090565b5b808211156137f65760008160009055506001016137de565b5090565b600061380d61380884614a7a565b614a55565b905080838252602082019050828560208602820111156138305761382f614f3e565b5b60005b858110156138605781613846888261395e565b845260208401935060208301925050600181019050613833565b5050509392505050565b600061387d61387884614aa6565b614a55565b905080838252602082019050828560208602820111156138a05761389f614f3e565b5b60005b858110156138d057816138b68882613a7f565b8452602084019350602083019250506001810190506138a3565b5050509392505050565b60006138ed6138e884614ad2565b614a55565b90508281526020810184848401111561390957613908614f43565b5b613914848285614d2f565b509392505050565b600061392f61392a84614b03565b614a55565b90508281526020810184848401111561394b5761394a614f43565b5b613956848285614d2f565b509392505050565b60008135905061396d816155c1565b92915050565b600082601f83011261398857613987614f39565b5b81356139988482602086016137fa565b91505092915050565b600082601f8301126139b6576139b5614f39565b5b81356139c684826020860161386a565b91505092915050565b6000813590506139de816155d8565b92915050565b6000813590506139f3816155ef565b92915050565b600081359050613a0881615606565b92915050565b600081519050613a1d81615606565b92915050565b600082601f830112613a3857613a37614f39565b5b8135613a488482602086016138da565b91505092915050565b600082601f830112613a6657613a65614f39565b5b8135613a7684826020860161391c565b91505092915050565b600081359050613a8e8161561d565b92915050565b600060208284031215613aaa57613aa9614f4d565b5b6000613ab88482850161395e565b91505092915050565b60008060408385031215613ad857613ad7614f4d565b5b6000613ae68582860161395e565b9250506020613af78582860161395e565b9150509250929050565b600080600060608486031215613b1a57613b19614f4d565b5b6000613b288682870161395e565b9350506020613b398682870161395e565b9250506040613b4a86828701613a7f565b9150509250925092565b60008060008060808587031215613b6e57613b6d614f4d565b5b6000613b7c8782880161395e565b9450506020613b8d8782880161395e565b9350506040613b9e87828801613a7f565b925050606085013567ffffffffffffffff811115613bbf57613bbe614f48565b5b613bcb87828801613a23565b91505092959194509250565b60008060408385031215613bee57613bed614f4d565b5b6000613bfc8582860161395e565b9250506020613c0d858286016139cf565b9150509250929050565b60008060408385031215613c2e57613c2d614f4d565b5b6000613c3c8582860161395e565b9250506020613c4d85828601613a7f565b9150509250929050565b60008060008060808587031215613c7157613c70614f4d565b5b6000613c7f8782880161395e565b9450506020613c9087828801613a7f565b9350506040613ca18782880161395e565b9250506060613cb287828801613a7f565b91505092959194509250565b600060208284031215613cd457613cd3614f4d565b5b600082013567ffffffffffffffff811115613cf257613cf1614f48565b5b613cfe84828501613973565b91505092915050565b600060208284031215613d1d57613d1c614f4d565b5b600082013567ffffffffffffffff811115613d3b57613d3a614f48565b5b613d47848285016139a1565b91505092915050565b600080600060608486031215613d6957613d68614f4d565b5b600084013567ffffffffffffffff811115613d8757613d86614f48565b5b613d93868287016139a1565b935050602084013567ffffffffffffffff811115613db457613db3614f48565b5b613dc086828701613973565b925050604084013567ffffffffffffffff811115613de157613de0614f48565b5b613ded868287016139a1565b9150509250925092565b60008060408385031215613e0e57613e0d614f4d565b5b6000613e1c858286016139e4565b925050602083013567ffffffffffffffff811115613e3d57613e3c614f48565b5b613e4985828601613a23565b9150509250929050565b600080600080600060a08688031215613e6f57613e6e614f4d565b5b6000613e7d888289016139e4565b955050602086013567ffffffffffffffff811115613e9e57613e9d614f48565b5b613eaa88828901613a23565b9450506040613ebb88828901613a7f565b9350506060613ecc8882890161395e565b9250506080613edd88828901613a7f565b9150509295509295909350565b600060208284031215613f0057613eff614f4d565b5b6000613f0e848285016139f9565b91505092915050565b600060208284031215613f2d57613f2c614f4d565b5b6000613f3b84828501613a0e565b91505092915050565b600060208284031215613f5a57613f59614f4d565b5b600082013567ffffffffffffffff811115613f7857613f77614f48565b5b613f8484828501613a51565b91505092915050565b600060208284031215613fa357613fa2614f4d565b5b6000613fb184828501613a7f565b91505092915050565b600080600060608486031215613fd357613fd2614f4d565b5b6000613fe186828701613a7f565b9350506020613ff28682870161395e565b925050604061400386828701613a7f565b9150509250925092565b6000614019838361403d565b60208301905092915050565b60006140318383614562565b60208301905092915050565b61404681614ca4565b82525050565b61405581614ca4565b82525050565b600061406682614b54565b6140708185614b9a565b935061407b83614b34565b8060005b838110156140ac578151614093888261400d565b975061409e83614b80565b92505060018101905061407f565b5085935050505092915050565b60006140c482614b5f565b6140ce8185614bab565b93506140d983614b44565b8060005b8381101561410a5781516140f18882614025565b97506140fc83614b8d565b9250506001810190506140dd565b5085935050505092915050565b61412081614cb6565b82525050565b61412f81614cc2565b82525050565b600061414082614b6a565b61414a8185614bbc565b935061415a818560208601614d3e565b61416381614f52565b840191505092915050565b600061417982614b75565b6141838185614bcd565b9350614193818560208601614d3e565b61419c81614f52565b840191505092915050565b60006141b282614b75565b6141bc8185614bde565b93506141cc818560208601614d3e565b80840191505092915050565b60006141e5603283614bcd565b91506141f082614f63565b604082019050919050565b6000614208601283614bcd565b915061421382614fb2565b602082019050919050565b600061422b602683614bcd565b915061423682614fdb565b604082019050919050565b600061424e601c83614bcd565b91506142598261502a565b602082019050919050565b6000614271602483614bcd565b915061427c82615053565b604082019050919050565b6000614294601983614bcd565b915061429f826150a2565b602082019050919050565b60006142b7602c83614bcd565b91506142c2826150cb565b604082019050919050565b60006142da603883614bcd565b91506142e58261511a565b604082019050919050565b60006142fd602a83614bcd565b915061430882615169565b604082019050919050565b6000614320602983614bcd565b915061432b826151b8565b604082019050919050565b6000614343602083614bcd565b915061434e82615207565b602082019050919050565b6000614366603183614bcd565b915061437182615230565b604082019050919050565b6000614389602083614bcd565b91506143948261527f565b602082019050919050565b60006143ac602c83614bcd565b91506143b7826152a8565b604082019050919050565b60006143cf602083614bcd565b91506143da826152f7565b602082019050919050565b60006143f2602983614bcd565b91506143fd82615320565b604082019050919050565b6000614415602f83614bcd565b91506144208261536f565b604082019050919050565b6000614438602183614bcd565b9150614443826153be565b604082019050919050565b600061445b604083614bcd565b91506144668261540d565b604082019050919050565b600061447e603183614bcd565b91506144898261545c565b604082019050919050565b60006144a1602c83614bcd565b91506144ac826154ab565b604082019050919050565b60006144c4604183614bcd565b91506144cf826154fa565b606082019050919050565b60006144e7601d83614bcd565b91506144f28261556f565b602082019050919050565b600061450a601583614bcd565b915061451582615598565b602082019050919050565b6060820160008201516145366000850182614562565b506020820151614549602085018261403d565b50604082015161455c6040850182614562565b50505050565b61456b81614d18565b82525050565b61457a81614d18565b82525050565b61458981614d22565b82525050565b600061459b82856141a7565b91506145a782846141a7565b91508190509392505050565b60006020820190506145c8600083018461404c565b92915050565b60006080820190506145e3600083018761404c565b6145f0602083018661404c565b6145fd6040830185614571565b818103606083015261460f8184614135565b905095945050505050565b6000606082019050818103600083015261463481866140b9565b90508181036020830152614648818561405b565b9050818103604083015261465c81846140b9565b9050949350505050565b600060208201905061467b6000830184614117565b92915050565b60006080820190506146966000830187614126565b6146a36020830186614580565b6146b06040830185614126565b6146bd6060830184614126565b95945050505050565b600060208201905081810360008301526146e0818461416e565b905092915050565b60006020820190508181036000830152614701816141d8565b9050919050565b60006020820190508181036000830152614721816141fb565b9050919050565b600060208201905081810360008301526147418161421e565b9050919050565b6000602082019050818103600083015261476181614241565b9050919050565b6000602082019050818103600083015261478181614264565b9050919050565b600060208201905081810360008301526147a181614287565b9050919050565b600060208201905081810360008301526147c1816142aa565b9050919050565b600060208201905081810360008301526147e1816142cd565b9050919050565b60006020820190508181036000830152614801816142f0565b9050919050565b6000602082019050818103600083015261482181614313565b9050919050565b6000602082019050818103600083015261484181614336565b9050919050565b6000602082019050818103600083015261486181614359565b9050919050565b600060208201905081810360008301526148818161437c565b9050919050565b600060208201905081810360008301526148a18161439f565b9050919050565b600060208201905081810360008301526148c1816143c2565b9050919050565b600060208201905081810360008301526148e1816143e5565b9050919050565b6000602082019050818103600083015261490181614408565b9050919050565b600060208201905081810360008301526149218161442b565b9050919050565b600060208201905081810360008301526149418161444e565b9050919050565b6000602082019050818103600083015261496181614471565b9050919050565b6000602082019050818103600083015261498181614494565b9050919050565b600060208201905081810360008301526149a1816144b7565b9050919050565b600060208201905081810360008301526149c1816144da565b9050919050565b600060208201905081810360008301526149e1816144fd565b9050919050565b60006060820190506149fd6000830184614520565b92915050565b6000602082019050614a186000830184614571565b92915050565b6000606082019050614a336000830186614571565b614a40602083018561404c565b614a4d6040830184614571565b949350505050565b6000614a5f614a70565b9050614a6b8282614da3565b919050565b6000604051905090565b600067ffffffffffffffff821115614a9557614a94614f0a565b5b602082029050602081019050919050565b600067ffffffffffffffff821115614ac157614ac0614f0a565b5b602082029050602081019050919050565b600067ffffffffffffffff821115614aed57614aec614f0a565b5b614af682614f52565b9050602081019050919050565b600067ffffffffffffffff821115614b1e57614b1d614f0a565b5b614b2782614f52565b9050602081019050919050565b6000819050602082019050919050565b6000819050602082019050919050565b600081519050919050565b600081519050919050565b600081519050919050565b600081519050919050565b6000602082019050919050565b6000602082019050919050565b600082825260208201905092915050565b600082825260208201905092915050565b600082825260208201905092915050565b600082825260208201905092915050565b600081905092915050565b6000614bf482614d18565b9150614bff83614d18565b9250827fffffffffffffffffffffffffffffffffffffffffffffffffffffffffffffffff03821115614c3457614c33614e4e565b5b828201905092915050565b6000614c4a82614d18565b9150614c5583614d18565b925082614c6557614c64614e7d565b5b828204905092915050565b6000614c7b82614d18565b9150614c8683614d18565b925082821015614c9957614c98614e4e565b5b828203905092915050565b6000614caf82614cf8565b9050919050565b60008115159050919050565b6000819050919050565b60007fffffffff0000000000000000000000000000000000000000000000000000000082169050919050565b600073ffffffffffffffffffffffffffffffffffffffff82169050919050565b6000819050919050565b600060ff82169050919050565b82818337600083830152505050565b60005b83811015614d5c578082015181840152602081019050614d41565b83811115614d6b576000848401525b50505050565b60006002820490506001821680614d8957607f821691505b60208210811415614d9d57614d9c614eac565b5b50919050565b614dac82614f52565b810181811067ffffffffffffffff82111715614dcb57614dca614f0a565b5b80604052505050565b6000614ddf82614d18565b91507fffffffffffffffffffffffffffffffffffffffffffffffffffffffffffffffff821415614e1257614e11614e4e565b5b600182019050919050565b6000614e2882614d18565b9150614e3383614d18565b925082614e4357614e42614e7d565b5b828206905092915050565b7f4e487b7100000000000000000000000000000000000000000000000000000000600052601160045260246000fd5b7f4e487b7100000000000000000000000000000000000000000000000000000000600052601260045260246000fd5b7f4e487b7100000000000000000000000000000000000000000000000000000000600052602260045260246000fd5b7f4e487b7100000000000000000000000000000000000000000000000000000000600052603260045260246000fd5b7f4e487b7100000000000000000000000000000000000000000000000000000000600052604160045260246000fd5b600080fd5b600080fd5b600080fd5b600080fd5b600080fd5b6000601f19601f8301169050919050565b7f4552433732313a207472616e7366657220746f206e6f6e20455243373231526560008201527f63656976657220696d706c656d656e7465720000000000000000000000000000602082015250565b7f556e737570706f7274656420636861696e2e0000000000000000000000000000600082015250565b7f4f776e61626c653a206e6577206f776e657220697320746865207a65726f206160008201527f6464726573730000000000000000000000000000000000000000000000000000602082015250565b7f4552433732313a20746f6b656e20616c7265616479206d696e74656400000000600082015250565b7f4552433732313a207472616e7366657220746f20746865207a65726f2061646460008201527f7265737300000000000000000000000000000000000000000000000000000000602082015250565b7f4552433732313a20617070726f766520746f2063616c6c657200000000000000600082015250565b7f4552433732313a206f70657261746f7220717565727920666f72206e6f6e657860008201527f697374656e7420746f6b656e0000000000000000000000000000000000000000602082015250565b7f4552433732313a20617070726f76652063616c6c6572206973206e6f74206f7760008201527f6e6572206e6f7220617070726f76656420666f7220616c6c0000000000000000602082015250565b7f4552433732313a2062616c616e636520717565727920666f7220746865207a6560008201527f726f206164647265737300000000000000000000000000000000000000000000602082015250565b7f4552433732313a206f776e657220717565727920666f72206e6f6e657869737460008201527f656e7420746f6b656e0000000000000000000000000000000000000000000000602082015250565b7f4552433732313a206d696e7420746f20746865207a65726f2061646472657373600082015250565b7f45524337323155524953746f726167653a2055524920717565727920666f722060008201527f6e6f6e6578697374656e7420746f6b656e000000000000000000000000000000602082015250565b7f556e737570706f72746564206e667420636f6e74726163742061646472657373600082015250565b7f4552433732313a20617070726f76656420717565727920666f72206e6f6e657860008201527f697374656e7420746f6b656e0000000000000000000000000000000000000000602082015250565b7f4f776e61626c653a2063616c6c6572206973206e6f7420746865206f776e6572600082015250565b7f4552433732313a207472616e73666572206f6620746f6b656e2074686174206960008201527f73206e6f74206f776e0000000000000000000000000000000000000000000000602082015250565b7f4552433732314d657461646174613a2055524920717565727920666f72206e6f60008201527f6e6578697374656e7420746f6b656e0000000000000000000000000000000000602082015250565b7f4552433732313a20617070726f76616c20746f2063757272656e74206f776e6560008201527f7200000000000000000000000000000000000000000000000000000000000000602082015250565b7f4261746368506179466f7241493a2071756f74655f636861696e49647320616e60008201527f642071756f74655f746f6b656e496473206c656e677468206d69736d61746368602082015250565b7f4552433732313a207472616e736665722063616c6c6572206973206e6f74206f60008201527f776e6572206e6f7220617070726f766564000000000000000000000000000000602082015250565b7f746865206d73672e73656e646572206973206e6f7420696e2077686974656c6960008201527f7374206164647265737365730000000000000000000000000000000000000000602082015250565b7f4261746368506179466f7241493a2071756f74655f636861696e49647320616e60008201527f642071756f74655f636f6e747261637473206c656e677468206d69736d61746360208201527f6800000000000000000000000000000000000000000000000000000000000000604082015250565b7f4d696e7420636f756e7420657863656564204d41585f535550504c5921000000600082015250565b7f496e76616c69642072656465656d20636f646520210000000000000000000000600082015250565b6155ca81614ca4565b81146155d557600080fd5b50565b6155e181614cb6565b81146155ec57600080fd5b50565b6155f881614cc2565b811461560357600080fd5b50565b61560f81614ccc565b811461561a57600080fd5b50565b61562681614d18565b811461563157600080fd5b5056fea2646970667358221220b5decfd98357fcf4b413e822543bc7e1757ed0f28cf9b2c9ea249c951a6c415064736f6c63430008070033",
			"opcodes": "PUSH1 0x80 PUSH1 0x40 MSTORE CALLVALUE DUP1 ISZERO PUSH3 0x11 JUMPI PUSH1 0x0 DUP1 REVERT JUMPDEST POP PUSH1 0x40 MLOAD DUP1 PUSH1 0x40 ADD PUSH1 0x40 MSTORE DUP1 PUSH1 0x10 DUP2 MSTORE PUSH1 0x20 ADD PUSH32 0x4D65746F706961204E465420436C756200000000000000000000000000000000 DUP2 MSTORE POP PUSH1 0x40 MLOAD DUP1 PUSH1 0x40 ADD PUSH1 0x40 MSTORE DUP1 PUSH1 0xB DUP2 MSTORE PUSH1 0x20 ADD PUSH32 0x6D65746F706961204E4654000000000000000000000000000000000000000000 DUP2 MSTORE POP DUP2 PUSH1 0x0 SWAP1 DUP1 MLOAD SWAP1 PUSH1 0x20 ADD SWAP1 PUSH3 0x96 SWAP3 SWAP2 SWAP1 PUSH3 0x2D7 JUMP JUMPDEST POP DUP1 PUSH1 0x1 SWAP1 DUP1 MLOAD SWAP1 PUSH1 0x20 ADD SWAP1 PUSH3 0xAF SWAP3 SWAP2 SWAP1 PUSH3 0x2D7 JUMP JUMPDEST POP POP POP PUSH3 0xD2 PUSH3 0xC6 PUSH3 0x1F3 PUSH1 0x20 SHL PUSH1 0x20 SHR JUMP JUMPDEST PUSH3 0x1FB PUSH1 0x20 SHL PUSH1 0x20 SHR JUMP JUMPDEST PUSH2 0x2710 PUSH1 0xF DUP2 SWAP1 SSTORE POP PUSH1 0x40 MLOAD DUP1 PUSH1 0x40 ADD PUSH1 0x40 MSTORE DUP1 PUSH1 0x1F DUP2 MSTORE PUSH1 0x20 ADD PUSH32 0x687474703A2F2F34372E35372E3234332E3137373A383036302F6D6574612F00 DUP2 MSTORE POP PUSH1 0x10 SWAP1 DUP1 MLOAD SWAP1 PUSH1 0x20 ADD SWAP1 PUSH3 0x128 SWAP3 SWAP2 SWAP1 PUSH3 0x2D7 JUMP JUMPDEST POP PUSH3 0x140 PUSH1 0xE PUSH3 0x2C1 PUSH1 0x20 SHL PUSH3 0x2854 OR PUSH1 0x20 SHR JUMP JUMPDEST PUSH1 0x1 PUSH1 0x8 PUSH1 0x0 PUSH3 0x13881 DUP2 MSTORE PUSH1 0x20 ADD SWAP1 DUP2 MSTORE PUSH1 0x20 ADD PUSH1 0x0 KECCAK256 PUSH1 0x0 PUSH2 0x100 EXP DUP2 SLOAD DUP2 PUSH1 0xFF MUL NOT AND SWAP1 DUP4 ISZERO ISZERO MUL OR SWAP1 SSTORE PUSH1 0x8 PUSH1 0x0 PUSH1 0x89 DUP2 MSTORE PUSH1 0x20 ADD SWAP1 DUP2 MSTORE PUSH1 0x20 ADD PUSH1 0x0 KECCAK256 PUSH1 0x0 PUSH2 0x100 EXP DUP2 SLOAD DUP2 PUSH1 0xFF MUL NOT AND SWAP1 DUP4 ISZERO ISZERO MUL OR SWAP1 SSTORE PUSH1 0x8 PUSH1 0x0 PUSH1 0x3 DUP2 MSTORE PUSH1 0x20 ADD SWAP1 DUP2 MSTORE PUSH1 0x20 ADD PUSH1 0x0 KECCAK256 PUSH1 0x0 PUSH2 0x100 EXP DUP2 SLOAD DUP2 PUSH1 0xFF MUL NOT AND SWAP1 DUP4 ISZERO ISZERO MUL OR SWAP1 SSTORE PUSH1 0x8 PUSH1 0x0 PUSH1 0x1 DUP2 MSTORE PUSH1 0x20 ADD SWAP1 DUP2 MSTORE PUSH1 0x20 ADD PUSH1 0x0 KECCAK256 PUSH1 0x0 PUSH2 0x100 EXP DUP2 SLOAD DUP2 PUSH1 0xFF MUL NOT AND SWAP1 DUP4 ISZERO ISZERO MUL OR SWAP1 SSTORE POP PUSH3 0x3EC JUMP JUMPDEST PUSH1 0x0 CALLER SWAP1 POP SWAP1 JUMP JUMPDEST PUSH1 0x0 PUSH1 0x7 PUSH1 0x0 SWAP1 SLOAD SWAP1 PUSH2 0x100 EXP SWAP1 DIV PUSH20 0xFFFFFFFFFFFFFFFFFFFFFFFFFFFFFFFFFFFFFFFF AND SWAP1 POP DUP2 PUSH1 0x7 PUSH1 0x0 PUSH2 0x100 EXP DUP2 SLOAD DUP2 PUSH20 0xFFFFFFFFFFFFFFFFFFFFFFFFFFFFFFFFFFFFFFFF MUL NOT AND SWAP1 DUP4 PUSH20 0xFFFFFFFFFFFFFFFFFFFFFFFFFFFFFFFFFFFFFFFF AND MUL OR SWAP1 SSTORE POP DUP2 PUSH20 0xFFFFFFFFFFFFFFFFFFFFFFFFFFFFFFFFFFFFFFFF AND DUP2 PUSH20 0xFFFFFFFFFFFFFFFFFFFFFFFFFFFFFFFFFFFFFFFF AND PUSH32 0x8BE0079C531659141344CD1FD0A4F28419497F9722A3DAAFE3B4186F6B6457E0 PUSH1 0x40 MLOAD PUSH1 0x40 MLOAD DUP1 SWAP2 SUB SWAP1 LOG3 POP POP JUMP JUMPDEST PUSH1 0x1 DUP2 PUSH1 0x0 ADD PUSH1 0x0 DUP3 DUP3 SLOAD ADD SWAP3 POP POP DUP2 SWAP1 SSTORE POP POP JUMP JUMPDEST DUP3 DUP1 SLOAD PUSH3 0x2E5 SWAP1 PUSH3 0x387 JUMP JUMPDEST SWAP1 PUSH1 0x0 MSTORE PUSH1 0x20 PUSH1 0x0 KECCAK256 SWAP1 PUSH1 0x1F ADD PUSH1 0x20 SWAP1 DIV DUP2 ADD SWAP3 DUP3 PUSH3 0x309 JUMPI PUSH1 0x0 DUP6 SSTORE PUSH3 0x355 JUMP JUMPDEST DUP3 PUSH1 0x1F LT PUSH3 0x324 JUMPI DUP1 MLOAD PUSH1 0xFF NOT AND DUP4 DUP1 ADD OR DUP6 SSTORE PUSH3 0x355 JUMP JUMPDEST DUP3 DUP1 ADD PUSH1 0x1 ADD DUP6 SSTORE DUP3 ISZERO PUSH3 0x355 JUMPI SWAP2 DUP3 ADD JUMPDEST DUP3 DUP2 GT ISZERO PUSH3 0x354 JUMPI DUP3 MLOAD DUP3 SSTORE SWAP2 PUSH1 0x20 ADD SWAP2 SWAP1 PUSH1 0x1 ADD SWAP1 PUSH3 0x337 JUMP JUMPDEST JUMPDEST POP SWAP1 POP PUSH3 0x364 SWAP2 SWAP1 PUSH3 0x368 JUMP JUMPDEST POP SWAP1 JUMP JUMPDEST JUMPDEST DUP1 DUP3 GT ISZERO PUSH3 0x383 JUMPI PUSH1 0x0 DUP2 PUSH1 0x0 SWAP1 SSTORE POP PUSH1 0x1 ADD PUSH3 0x369 JUMP JUMPDEST POP SWAP1 JUMP JUMPDEST PUSH1 0x0 PUSH1 0x2 DUP3 DIV SWAP1 POP PUSH1 0x1 DUP3 AND DUP1 PUSH3 0x3A0 JUMPI PUSH1 0x7F DUP3 AND SWAP2 POP JUMPDEST PUSH1 0x20 DUP3 LT DUP2 EQ ISZERO PUSH3 0x3B7 JUMPI PUSH3 0x3B6 PUSH3 0x3BD JUMP JUMPDEST JUMPDEST POP SWAP2 SWAP1 POP JUMP JUMPDEST PUSH32 0x4E487B7100000000000000000000000000000000000000000000000000000000 PUSH1 0x0 MSTORE PUSH1 0x22 PUSH1 0x4 MSTORE PUSH1 0x24 PUSH1 0x0 REVERT JUMPDEST PUSH2 0x566A DUP1 PUSH3 0x3FC PUSH1 0x0 CODECOPY PUSH1 0x0 RETURN INVALID PUSH1 0x80 PUSH1 0x40 MSTORE CALLVALUE DUP1 ISZERO PUSH2 0x10 JUMPI PUSH1 0x0 DUP1 REVERT JUMPDEST POP PUSH1 0x4 CALLDATASIZE LT PUSH2 0x274 JUMPI PUSH1 0x0 CALLDATALOAD PUSH1 0xE0 SHR DUP1 PUSH4 0x723A2A8E GT PUSH2 0x151 JUMPI DUP1 PUSH4 0xB88D4FDE GT PUSH2 0xC3 JUMPI DUP1 PUSH4 0xCE463734 GT PUSH2 0x87 JUMPI DUP1 PUSH4 0xCE463734 EQ PUSH2 0x729 JUMPI DUP1 PUSH4 0xD5ABEB01 EQ PUSH2 0x759 JUMPI DUP1 PUSH4 0xE591ED81 EQ PUSH2 0x777 JUMPI DUP1 PUSH4 0xE985E9C5 EQ PUSH2 0x793 JUMPI DUP1 PUSH4 0xEAB36087 EQ PUSH2 0x7C3 JUMPI DUP1 PUSH4 0xF2FDE38B EQ PUSH2 0x7F3 JUMPI PUSH2 0x274 JUMP JUMPDEST DUP1 PUSH4 0xB88D4FDE EQ PUSH2 0x689 JUMPI DUP1 PUSH4 0xBD30A4CB EQ PUSH2 0x6A5 JUMPI DUP1 PUSH4 0xC58D6799 EQ PUSH2 0x6C1 JUMPI DUP1 PUSH4 0xC87B56DD EQ PUSH2 0x6DD JUMPI DUP1 PUSH4 0xCD059237 EQ PUSH2 0x70D JUMPI PUSH2 0x274 JUMP JUMPDEST DUP1 PUSH4 0x8C4E3699 GT PUSH2 0x115 JUMPI DUP1 PUSH4 0x8C4E3699 EQ PUSH2 0x5B5 JUMPI DUP1 PUSH4 0x8DA5CB5B EQ PUSH2 0x5D1 JUMPI DUP1 PUSH4 0x95D89B41 EQ PUSH2 0x5EF JUMPI DUP1 PUSH4 0x95F20F4B EQ PUSH2 0x60D JUMPI DUP1 PUSH4 0xA22CB465 EQ PUSH2 0x63D JUMPI DUP1 PUSH4 0xA241AF99 EQ PUSH2 0x659 JUMPI PUSH2 0x274 JUMP JUMPDEST DUP1 PUSH4 0x723A2A8E EQ PUSH2 0x529 JUMPI DUP1 PUSH4 0x75D331CC EQ PUSH2 0x545 JUMPI DUP1 PUSH4 0x79CBA591 EQ PUSH2 0x561 JUMPI DUP1 PUSH4 0x7F77B3B5 EQ PUSH2 0x57D JUMPI DUP1 PUSH4 0x8164C309 EQ PUSH2 0x599 JUMPI PUSH2 0x274 JUMP JUMPDEST DUP1 PUSH4 0x55F804B3 GT PUSH2 0x1EA JUMPI DUP1 PUSH4 0x6360E1D9 GT PUSH2 0x1AE JUMPI DUP1 PUSH4 0x6360E1D9 EQ PUSH2 0x469 JUMPI DUP1 PUSH4 0x69D3372A EQ PUSH2 0x499 JUMPI DUP1 PUSH4 0x6C0360EB EQ PUSH2 0x4B5 JUMPI DUP1 PUSH4 0x6F8B44B0 EQ PUSH2 0x4D3 JUMPI DUP1 PUSH4 0x70A08231 EQ PUSH2 0x4EF JUMPI DUP1 PUSH4 0x715018A6 EQ PUSH2 0x51F JUMPI PUSH2 0x274 JUMP JUMPDEST DUP1 PUSH4 0x55F804B3 EQ PUSH2 0x3C9 JUMPI DUP1 PUSH4 0x5A4FE0F6 EQ PUSH2 0x3E5 JUMPI DUP1 PUSH4 0x5A68AC86 EQ PUSH2 0x401 JUMPI DUP1 PUSH4 0x5C35A65A EQ PUSH2 0x41D JUMPI DUP1 PUSH4 0x6352211E EQ PUSH2 0x439 JUMPI PUSH2 0x274 JUMP JUMPDEST DUP1 PUSH4 0xC66B3A0 GT PUSH2 0x23C JUMPI DUP1 PUSH4 0xC66B3A0 EQ PUSH2 0x331 JUMPI DUP1 PUSH4 0x18160DDD EQ PUSH2 0x34D JUMPI DUP1 PUSH4 0x23B872DD EQ PUSH2 0x36B JUMPI DUP1 PUSH4 0x24643DDB EQ PUSH2 0x387 JUMPI DUP1 PUSH4 0x41C0E1B5 EQ PUSH2 0x3A3 JUMPI DUP1 PUSH4 0x42842E0E EQ PUSH2 0x3AD JUMPI PUSH2 0x274 JUMP JUMPDEST DUP1 PUSH4 0x1FFC9A7 EQ PUSH2 0x279 JUMPI DUP1 PUSH4 0x6FDDE03 EQ PUSH2 0x2A9 JUMPI DUP1 PUSH4 0x81812FC EQ PUSH2 0x2C7 JUMPI DUP1 PUSH4 0x95EA7B3 EQ PUSH2 0x2F7 JUMPI DUP1 PUSH4 0xC4F65BD EQ PUSH2 0x313 JUMPI JUMPDEST PUSH1 0x0 DUP1 REVERT JUMPDEST PUSH2 0x293 PUSH1 0x4 DUP1 CALLDATASIZE SUB DUP2 ADD SWAP1 PUSH2 0x28E SWAP2 SWAP1 PUSH2 0x3EEA JUMP JUMPDEST PUSH2 0x80F JUMP JUMPDEST PUSH1 0x40 MLOAD PUSH2 0x2A0 SWAP2 SWAP1 PUSH2 0x4666 JUMP JUMPDEST PUSH1 0x40 MLOAD DUP1 SWAP2 SUB SWAP1 RETURN JUMPDEST PUSH2 0x2B1 PUSH2 0x8F1 JUMP JUMPDEST PUSH1 0x40 MLOAD PUSH2 0x2BE SWAP2 SWAP1 PUSH2 0x46C6 JUMP JUMPDEST PUSH1 0x40 MLOAD DUP1 SWAP2 SUB SWAP1 RETURN JUMPDEST PUSH2 0x2E1 PUSH1 0x4 DUP1 CALLDATASIZE SUB DUP2 ADD SWAP1 PUSH2 0x2DC SWAP2 SWAP1 PUSH2 0x3F8D JUMP JUMPDEST PUSH2 0x983 JUMP JUMPDEST PUSH1 0x40 MLOAD PUSH2 0x2EE SWAP2 SWAP1 PUSH2 0x45B3 JUMP JUMPDEST PUSH1 0x40 MLOAD DUP1 SWAP2 SUB SWAP1 RETURN JUMPDEST PUSH2 0x311 PUSH1 0x4 DUP1 CALLDATASIZE SUB DUP2 ADD SWAP1 PUSH2 0x30C SWAP2 SWAP1 PUSH2 0x3C17 JUMP JUMPDEST PUSH2 0xA08 JUMP JUMPDEST STOP JUMPDEST PUSH2 0x31B PUSH2 0xB20 JUMP JUMPDEST PUSH1 0x40 MLOAD PUSH2 0x328 SWAP2 SWAP1 PUSH2 0x45B3 JUMP JUMPDEST PUSH1 0x40 MLOAD DUP1 SWAP2 SUB SWAP1 RETURN JUMPDEST PUSH2 0x34B PUSH1 0x4 DUP1 CALLDATASIZE SUB DUP2 ADD SWAP1 PUSH2 0x346 SWAP2 SWAP1 PUSH2 0x3D07 JUMP JUMPDEST PUSH2 0xB2F JUMP JUMPDEST STOP JUMPDEST PUSH2 0x355 PUSH2 0xC14 JUMP JUMPDEST PUSH1 0x40 MLOAD PUSH2 0x362 SWAP2 SWAP1 PUSH2 0x4A03 JUMP JUMPDEST PUSH1 0x40 MLOAD DUP1 SWAP2 SUB SWAP1 RETURN JUMPDEST PUSH2 0x385 PUSH1 0x4 DUP1 CALLDATASIZE SUB DUP2 ADD SWAP1 PUSH2 0x380 SWAP2 SWAP1 PUSH2 0x3B01 JUMP JUMPDEST PUSH2 0xC1E JUMP JUMPDEST STOP JUMPDEST PUSH2 0x3A1 PUSH1 0x4 DUP1 CALLDATASIZE SUB DUP2 ADD SWAP1 PUSH2 0x39C SWAP2 SWAP1 PUSH2 0x3FBA JUMP JUMPDEST PUSH2 0xC7E JUMP JUMPDEST STOP JUMPDEST PUSH2 0x3AB PUSH2 0xEE1 JUMP JUMPDEST STOP JUMPDEST PUSH2 0x3C7 PUSH1 0x4 DUP1 CALLDATASIZE SUB DUP2 ADD SWAP1 PUSH2 0x3C2 SWAP2 SWAP1 PUSH2 0x3B01 JUMP JUMPDEST PUSH2 0xF76 JUMP JUMPDEST STOP JUMPDEST PUSH2 0x3E3 PUSH1 0x4 DUP1 CALLDATASIZE SUB DUP2 ADD SWAP1 PUSH2 0x3DE SWAP2 SWAP1 PUSH2 0x3F44 JUMP JUMPDEST PUSH2 0xF96 JUMP JUMPDEST STOP JUMPDEST PUSH2 0x3FF PUSH1 0x4 DUP1 CALLDATASIZE SUB DUP2 ADD SWAP1 PUSH2 0x3FA SWAP2 SWAP1 PUSH2 0x3CBE JUMP JUMPDEST PUSH2 0x102C JUMP JUMPDEST STOP JUMPDEST PUSH2 0x41B PUSH1 0x4 DUP1 CALLDATASIZE SUB DUP2 ADD SWAP1 PUSH2 0x416 SWAP2 SWAP1 PUSH2 0x3FBA JUMP JUMPDEST PUSH2 0x113D JUMP JUMPDEST STOP JUMPDEST PUSH2 0x437 PUSH1 0x4 DUP1 CALLDATASIZE SUB DUP2 ADD SWAP1 PUSH2 0x432 SWAP2 SWAP1 PUSH2 0x3A94 JUMP JUMPDEST PUSH2 0x1194 JUMP JUMPDEST STOP JUMPDEST PUSH2 0x453 PUSH1 0x4 DUP1 CALLDATASIZE SUB DUP2 ADD SWAP1 PUSH2 0x44E SWAP2 SWAP1 PUSH2 0x3F8D JUMP JUMPDEST PUSH2 0x126B JUMP JUMPDEST PUSH1 0x40 MLOAD PUSH2 0x460 SWAP2 SWAP1 PUSH2 0x45B3 JUMP JUMPDEST PUSH1 0x40 MLOAD DUP1 SWAP2 SUB SWAP1 RETURN JUMPDEST PUSH2 0x483 PUSH1 0x4 DUP1 CALLDATASIZE SUB DUP2 ADD SWAP1 PUSH2 0x47E SWAP2 SWAP1 PUSH2 0x3A94 JUMP JUMPDEST PUSH2 0x131D JUMP JUMPDEST PUSH1 0x40 MLOAD PUSH2 0x490 SWAP2 SWAP1 PUSH2 0x4666 JUMP JUMPDEST PUSH1 0x40 MLOAD DUP1 SWAP2 SUB SWAP1 RETURN JUMPDEST PUSH2 0x4B3 PUSH1 0x4 DUP1 CALLDATASIZE SUB DUP2 ADD SWAP1 PUSH2 0x4AE SWAP2 SWAP1 PUSH2 0x3D07 JUMP JUMPDEST PUSH2 0x1373 JUMP JUMPDEST STOP JUMPDEST PUSH2 0x4BD PUSH2 0x1458 JUMP JUMPDEST PUSH1 0x40 MLOAD PUSH2 0x4CA SWAP2 SWAP1 PUSH2 0x46C6 JUMP JUMPDEST PUSH1 0x40 MLOAD DUP1 SWAP2 SUB SWAP1 RETURN JUMPDEST PUSH2 0x4ED PUSH1 0x4 DUP1 CALLDATASIZE SUB DUP2 ADD SWAP1 PUSH2 0x4E8 SWAP2 SWAP1 PUSH2 0x3F8D JUMP JUMPDEST PUSH2 0x14EA JUMP JUMPDEST STOP JUMPDEST PUSH2 0x509 PUSH1 0x4 DUP1 CALLDATASIZE SUB DUP2 ADD SWAP1 PUSH2 0x504 SWAP2 SWAP1 PUSH2 0x3A94 JUMP JUMPDEST PUSH2 0x1570 JUMP JUMPDEST PUSH1 0x40 MLOAD PUSH2 0x516 SWAP2 SWAP1 PUSH2 0x4A03 JUMP JUMPDEST PUSH1 0x40 MLOAD DUP1 SWAP2 SUB SWAP1 RETURN JUMPDEST PUSH2 0x527 PUSH2 0x1628 JUMP JUMPDEST STOP JUMPDEST PUSH2 0x543 PUSH1 0x4 DUP1 CALLDATASIZE SUB DUP2 ADD SWAP1 PUSH2 0x53E SWAP2 SWAP1 PUSH2 0x3A94 JUMP JUMPDEST PUSH2 0x16B0 JUMP JUMPDEST STOP JUMPDEST PUSH2 0x55F PUSH1 0x4 DUP1 CALLDATASIZE SUB DUP2 ADD SWAP1 PUSH2 0x55A SWAP2 SWAP1 PUSH2 0x3C57 JUMP JUMPDEST PUSH2 0x1787 JUMP JUMPDEST STOP JUMPDEST PUSH2 0x57B PUSH1 0x4 DUP1 CALLDATASIZE SUB DUP2 ADD SWAP1 PUSH2 0x576 SWAP2 SWAP1 PUSH2 0x3FBA JUMP JUMPDEST PUSH2 0x197C JUMP JUMPDEST STOP JUMPDEST PUSH2 0x597 PUSH1 0x4 DUP1 CALLDATASIZE SUB DUP2 ADD SWAP1 PUSH2 0x592 SWAP2 SWAP1 PUSH2 0x3E53 JUMP JUMPDEST PUSH2 0x1B87 JUMP JUMPDEST STOP JUMPDEST PUSH2 0x5B3 PUSH1 0x4 DUP1 CALLDATASIZE SUB DUP2 ADD SWAP1 PUSH2 0x5AE SWAP2 SWAP1 PUSH2 0x3A94 JUMP JUMPDEST PUSH2 0x1DE9 JUMP JUMPDEST STOP JUMPDEST PUSH2 0x5CF PUSH1 0x4 DUP1 CALLDATASIZE SUB DUP2 ADD SWAP1 PUSH2 0x5CA SWAP2 SWAP1 PUSH2 0x3F8D JUMP JUMPDEST PUSH2 0x1EC0 JUMP JUMPDEST STOP JUMPDEST PUSH2 0x5D9 PUSH2 0x1F6B JUMP JUMPDEST PUSH1 0x40 MLOAD PUSH2 0x5E6 SWAP2 SWAP1 PUSH2 0x45B3 JUMP JUMPDEST PUSH1 0x40 MLOAD DUP1 SWAP2 SUB SWAP1 RETURN JUMPDEST PUSH2 0x5F7 PUSH2 0x1F95 JUMP JUMPDEST PUSH1 0x40 MLOAD PUSH2 0x604 SWAP2 SWAP1 PUSH2 0x46C6 JUMP JUMPDEST PUSH1 0x40 MLOAD DUP1 SWAP2 SUB SWAP1 RETURN JUMPDEST PUSH2 0x627 PUSH1 0x4 DUP1 CALLDATASIZE SUB DUP2 ADD SWAP1 PUSH2 0x622 SWAP2 SWAP1 PUSH2 0x3A94 JUMP JUMPDEST PUSH2 0x2027 JUMP JUMPDEST PUSH1 0x40 MLOAD PUSH2 0x634 SWAP2 SWAP1 PUSH2 0x4666 JUMP JUMPDEST PUSH1 0x40 MLOAD DUP1 SWAP2 SUB SWAP1 RETURN JUMPDEST PUSH2 0x657 PUSH1 0x4 DUP1 CALLDATASIZE SUB DUP2 ADD SWAP1 PUSH2 0x652 SWAP2 SWAP1 PUSH2 0x3BD7 JUMP JUMPDEST PUSH2 0x2047 JUMP JUMPDEST STOP JUMPDEST PUSH2 0x673 PUSH1 0x4 DUP1 CALLDATASIZE SUB DUP2 ADD SWAP1 PUSH2 0x66E SWAP2 SWAP1 PUSH2 0x3F8D JUMP JUMPDEST PUSH2 0x205D JUMP JUMPDEST PUSH1 0x40 MLOAD PUSH2 0x680 SWAP2 SWAP1 PUSH2 0x49E8 JUMP JUMPDEST PUSH1 0x40 MLOAD DUP1 SWAP2 SUB SWAP1 RETURN JUMPDEST PUSH2 0x6A3 PUSH1 0x4 DUP1 CALLDATASIZE SUB DUP2 ADD SWAP1 PUSH2 0x69E SWAP2 SWAP1 PUSH2 0x3B54 JUMP JUMPDEST PUSH2 0x20F4 JUMP JUMPDEST STOP JUMPDEST PUSH2 0x6BF PUSH1 0x4 DUP1 CALLDATASIZE SUB DUP2 ADD SWAP1 PUSH2 0x6BA SWAP2 SWAP1 PUSH2 0x3D50 JUMP JUMPDEST PUSH2 0x2156 JUMP JUMPDEST STOP JUMPDEST PUSH2 0x6DB PUSH1 0x4 DUP1 CALLDATASIZE SUB DUP2 ADD SWAP1 PUSH2 0x6D6 SWAP2 SWAP1 PUSH2 0x3A94 JUMP JUMPDEST PUSH2 0x2235 JUMP JUMPDEST STOP JUMPDEST PUSH2 0x6F7 PUSH1 0x4 DUP1 CALLDATASIZE SUB DUP2 ADD SWAP1 PUSH2 0x6F2 SWAP2 SWAP1 PUSH2 0x3F8D JUMP JUMPDEST PUSH2 0x230C JUMP JUMPDEST PUSH1 0x40 MLOAD PUSH2 0x704 SWAP2 SWAP1 PUSH2 0x46C6 JUMP JUMPDEST PUSH1 0x40 MLOAD DUP1 SWAP2 SUB SWAP1 RETURN JUMPDEST PUSH2 0x727 PUSH1 0x4 DUP1 CALLDATASIZE SUB DUP2 ADD SWAP1 PUSH2 0x722 SWAP2 SWAP1 PUSH2 0x3CBE JUMP JUMPDEST PUSH2 0x245E JUMP JUMPDEST STOP JUMPDEST PUSH2 0x743 PUSH1 0x4 DUP1 CALLDATASIZE SUB DUP2 ADD SWAP1 PUSH2 0x73E SWAP2 SWAP1 PUSH2 0x3A94 JUMP JUMPDEST PUSH2 0x256F JUMP JUMPDEST PUSH1 0x40 MLOAD PUSH2 0x750 SWAP2 SWAP1 PUSH2 0x4666 JUMP JUMPDEST PUSH1 0x40 MLOAD DUP1 SWAP2 SUB SWAP1 RETURN JUMPDEST PUSH2 0x761 PUSH2 0x25C5 JUMP JUMPDEST PUSH1 0x40 MLOAD PUSH2 0x76E SWAP2 SWAP1 PUSH2 0x4A03 JUMP JUMPDEST PUSH1 0x40 MLOAD DUP1 SWAP2 SUB SWAP1 RETURN JUMPDEST PUSH2 0x791 PUSH1 0x4 DUP1 CALLDATASIZE SUB DUP2 ADD SWAP1 PUSH2 0x78C SWAP2 SWAP1 PUSH2 0x3F8D JUMP JUMPDEST PUSH2 0x25CF JUMP JUMPDEST STOP JUMPDEST PUSH2 0x7AD PUSH1 0x4 DUP1 CALLDATASIZE SUB DUP2 ADD SWAP1 PUSH2 0x7A8 SWAP2 SWAP1 PUSH2 0x3AC1 JUMP JUMPDEST PUSH2 0x267A JUMP JUMPDEST PUSH1 0x40 MLOAD PUSH2 0x7BA SWAP2 SWAP1 PUSH2 0x4666 JUMP JUMPDEST PUSH1 0x40 MLOAD DUP1 SWAP2 SUB SWAP1 RETURN JUMPDEST PUSH2 0x7DD PUSH1 0x4 DUP1 CALLDATASIZE SUB DUP2 ADD SWAP1 PUSH2 0x7D8 SWAP2 SWAP1 PUSH2 0x3DF7 JUMP JUMPDEST PUSH2 0x270E JUMP JUMPDEST PUSH1 0x40 MLOAD PUSH2 0x7EA SWAP2 SWAP1 PUSH2 0x4666 JUMP JUMPDEST PUSH1 0x40 MLOAD DUP1 SWAP2 SUB SWAP1 RETURN JUMPDEST PUSH2 0x80D PUSH1 0x4 DUP1 CALLDATASIZE SUB DUP2 ADD SWAP1 PUSH2 0x808 SWAP2 SWAP1 PUSH2 0x3A94 JUMP JUMPDEST PUSH2 0x275C JUMP JUMPDEST STOP JUMPDEST PUSH1 0x0 PUSH32 0x80AC58CD00000000000000000000000000000000000000000000000000000000 PUSH28 0xFFFFFFFFFFFFFFFFFFFFFFFFFFFFFFFFFFFFFFFFFFFFFFFFFFFFFFFF NOT AND DUP3 PUSH28 0xFFFFFFFFFFFFFFFFFFFFFFFFFFFFFFFFFFFFFFFFFFFFFFFFFFFFFFFF NOT AND EQ DUP1 PUSH2 0x8DA JUMPI POP PUSH32 0x5B5E139F00000000000000000000000000000000000000000000000000000000 PUSH28 0xFFFFFFFFFFFFFFFFFFFFFFFFFFFFFFFFFFFFFFFFFFFFFFFFFFFFFFFF NOT AND DUP3 PUSH28 0xFFFFFFFFFFFFFFFFFFFFFFFFFFFFFFFFFFFFFFFFFFFFFFFFFFFFFFFF NOT AND EQ JUMPDEST DUP1 PUSH2 0x8EA JUMPI POP PUSH2 0x8E9 DUP3 PUSH2 0x286A JUMP JUMPDEST JUMPDEST SWAP1 POP SWAP2 SWAP1 POP JUMP JUMPDEST PUSH1 0x60 PUSH1 0x0 DUP1 SLOAD PUSH2 0x900 SWAP1 PUSH2 0x4D71 JUMP JUMPDEST DUP1 PUSH1 0x1F ADD PUSH1 0x20 DUP1 SWAP2 DIV MUL PUSH1 0x20 ADD PUSH1 0x40 MLOAD SWAP1 DUP2 ADD PUSH1 0x40 MSTORE DUP1 SWAP3 SWAP2 SWAP1 DUP2 DUP2 MSTORE PUSH1 0x20 ADD DUP3 DUP1 SLOAD PUSH2 0x92C SWAP1 PUSH2 0x4D71 JUMP JUMPDEST DUP1 ISZERO PUSH2 0x979 JUMPI DUP1 PUSH1 0x1F LT PUSH2 0x94E JUMPI PUSH2 0x100 DUP1 DUP4 SLOAD DIV MUL DUP4 MSTORE SWAP2 PUSH1 0x20 ADD SWAP2 PUSH2 0x979 JUMP JUMPDEST DUP3 ADD SWAP2 SWAP1 PUSH1 0x0 MSTORE PUSH1 0x20 PUSH1 0x0 KECCAK256 SWAP1 JUMPDEST DUP2 SLOAD DUP2 MSTORE SWAP1 PUSH1 0x1 ADD SWAP1 PUSH1 0x20 ADD DUP1 DUP4 GT PUSH2 0x95C JUMPI DUP3 SWAP1 SUB PUSH1 0x1F AND DUP3 ADD SWAP2 JUMPDEST POP POP POP POP POP SWAP1 POP SWAP1 JUMP JUMPDEST PUSH1 0x0 PUSH2 0x98E DUP3 PUSH2 0x28D4 JUMP JUMPDEST PUSH2 0x9CD JUMPI PUSH1 0x40 MLOAD PUSH32 0x8C379A000000000000000000000000000000000000000000000000000000000 DUP2 MSTORE PUSH1 0x4 ADD PUSH2 0x9C4 SWAP1 PUSH2 0x4888 JUMP JUMPDEST PUSH1 0x40 MLOAD DUP1 SWAP2 SUB SWAP1 REVERT JUMPDEST PUSH1 0x4 PUSH1 0x0 DUP4 DUP2 MSTORE PUSH1 0x20 ADD SWAP1 DUP2 MSTORE PUSH1 0x20 ADD PUSH1 0x0 KECCAK256 PUSH1 0x0 SWAP1 SLOAD SWAP1 PUSH2 0x100 EXP SWAP1 DIV PUSH20 0xFFFFFFFFFFFFFFFFFFFFFFFFFFFFFFFFFFFFFFFF AND SWAP1 POP SWAP2 SWAP1 POP JUMP JUMPDEST PUSH1 0x0 PUSH2 0xA13 DUP3 PUSH2 0x126B JUMP JUMPDEST SWAP1 POP DUP1 PUSH20 0xFFFFFFFFFFFFFFFFFFFFFFFFFFFFFFFFFFFFFFFF AND DUP4 PUSH20 0xFFFFFFFFFFFFFFFFFFFFFFFFFFFFFFFFFFFFFFFF AND EQ ISZERO PUSH2 0xA84 JUMPI PUSH1 0x40 MLOAD PUSH32 0x8C379A000000000000000000000000000000000000000000000000000000000 DUP2 MSTORE PUSH1 0x4 ADD PUSH2 0xA7B SWAP1 PUSH2 0x4908 JUMP JUMPDEST PUSH1 0x40 MLOAD DUP1 SWAP2 SUB SWAP1 REVERT JUMPDEST DUP1 PUSH20 0xFFFFFFFFFFFFFFFFFFFFFFFFFFFFFFFFFFFFFFFF AND PUSH2 0xAA3 PUSH2 0x2940 JUMP JUMPDEST PUSH20 0xFFFFFFFFFFFFFFFFFFFFFFFFFFFFFFFFFFFFFFFF AND EQ DUP1 PUSH2 0xAD2 JUMPI POP PUSH2 0xAD1 DUP2 PUSH2 0xACC PUSH2 0x2940 JUMP JUMPDEST PUSH2 0x267A JUMP JUMPDEST JUMPDEST PUSH2 0xB11 JUMPI PUSH1 0x40 MLOAD PUSH32 0x8C379A000000000000000000000000000000000000000000000000000000000 DUP2 MSTORE PUSH1 0x4 ADD PUSH2 0xB08 SWAP1 PUSH2 0x47C8 JUMP JUMPDEST PUSH1 0x40 MLOAD DUP1 SWAP2 SUB SWAP1 REVERT JUMPDEST PUSH2 0xB1B DUP4 DUP4 PUSH2 0x2948 JUMP JUMPDEST POP POP POP JUMP JUMPDEST PUSH1 0x0 PUSH2 0xB2A PUSH2 0x1F6B JUMP JUMPDEST SWAP1 POP SWAP1 JUMP JUMPDEST PUSH2 0xB37 PUSH2 0x2940 JUMP JUMPDEST PUSH20 0xFFFFFFFFFFFFFFFFFFFFFFFFFFFFFFFFFFFFFFFF AND PUSH2 0xB55 PUSH2 0x1F6B JUMP JUMPDEST PUSH20 0xFFFFFFFFFFFFFFFFFFFFFFFFFFFFFFFFFFFFFFFF AND EQ PUSH2 0xBAB JUMPI PUSH1 0x40 MLOAD PUSH32 0x8C379A000000000000000000000000000000000000000000000000000000000 DUP2 MSTORE PUSH1 0x4 ADD PUSH2 0xBA2 SWAP1 PUSH2 0x48A8 JUMP JUMPDEST PUSH1 0x40 MLOAD DUP1 SWAP2 SUB SWAP1 REVERT JUMPDEST PUSH1 0x0 JUMPDEST DUP2 MLOAD DUP2 LT ISZERO PUSH2 0xC10 JUMPI PUSH1 0x0 PUSH1 0x8 PUSH1 0x0 DUP5 DUP5 DUP2 MLOAD DUP2 LT PUSH2 0xBD0 JUMPI PUSH2 0xBCF PUSH2 0x4EDB JUMP JUMPDEST JUMPDEST PUSH1 0x20 MUL PUSH1 0x20 ADD ADD MLOAD DUP2 MSTORE PUSH1 0x20 ADD SWAP1 DUP2 MSTORE PUSH1 0x20 ADD PUSH1 0x0 KECCAK256 PUSH1 0x0 PUSH2 0x100 EXP DUP2 SLOAD DUP2 PUSH1 0xFF MUL NOT AND SWAP1 DUP4 ISZERO ISZERO MUL OR SWAP1 SSTORE POP DUP1 DUP1 PUSH2 0xC08 SWAP1 PUSH2 0x4DD4 JUMP JUMPDEST SWAP2 POP POP PUSH2 0xBAE JUMP JUMPDEST POP POP JUMP JUMPDEST PUSH1 0x0 PUSH1 0xF SLOAD SWAP1 POP SWAP1 JUMP JUMPDEST PUSH2 0xC2F PUSH2 0xC29 PUSH2 0x2940 JUMP JUMPDEST DUP3 PUSH2 0x2A01 JUMP JUMPDEST PUSH2 0xC6E JUMPI PUSH1 0x40 MLOAD PUSH32 0x8C379A000000000000000000000000000000000000000000000000000000000 DUP2 MSTORE PUSH1 0x4 ADD PUSH2 0xC65 SWAP1 PUSH2 0x4948 JUMP JUMPDEST PUSH1 0x40 MLOAD DUP1 SWAP2 SUB SWAP1 REVERT JUMPDEST PUSH2 0xC79 DUP4 DUP4 DUP4 PUSH2 0x2ADF JUMP JUMPDEST POP POP POP JUMP JUMPDEST PUSH1 0x8 PUSH1 0x0 DUP5 DUP2 MSTORE PUSH1 0x20 ADD SWAP1 DUP2 MSTORE PUSH1 0x20 ADD PUSH1 0x0 KECCAK256 PUSH1 0x0 SWAP1 SLOAD SWAP1 PUSH2 0x100 EXP SWAP1 DIV PUSH1 0xFF AND PUSH2 0xCDE JUMPI PUSH1 0x40 MLOAD PUSH32 0x8C379A000000000000000000000000000000000000000000000000000000000 DUP2 MSTORE PUSH1 0x4 ADD PUSH2 0xCD5 SWAP1 PUSH2 0x4708 JUMP JUMPDEST PUSH1 0x40 MLOAD DUP1 SWAP2 SUB SWAP1 REVERT JUMPDEST PUSH1 0xA PUSH1 0x0 CALLER PUSH20 0xFFFFFFFFFFFFFFFFFFFFFFFFFFFFFFFFFFFFFFFF AND PUSH20 0xFFFFFFFFFFFFFFFFFFFFFFFFFFFFFFFFFFFFFFFF AND DUP2 MSTORE PUSH1 0x20 ADD SWAP1 DUP2 MSTORE PUSH1 0x20 ADD PUSH1 0x0 KECCAK256 PUSH1 0x0 SWAP1 SLOAD SWAP1 PUSH2 0x100 EXP SWAP1 DIV PUSH1 0xFF AND PUSH2 0xD6A JUMPI PUSH1 0x40 MLOAD PUSH32 0x8C379A000000000000000000000000000000000000000000000000000000000 DUP2 MSTORE PUSH1 0x4 ADD PUSH2 0xD61 SWAP1 PUSH2 0x4968 JUMP JUMPDEST PUSH1 0x40 MLOAD DUP1 SWAP2 SUB SWAP1 REVERT JUMPDEST PUSH1 0x0 PUSH2 0xD76 PUSH1 0xE PUSH2 0x2D3B JUMP JUMPDEST SWAP1 POP PUSH1 0xF SLOAD PUSH2 0xD85 PUSH1 0xE PUSH2 0x2D3B JUMP JUMPDEST GT ISZERO PUSH2 0xDC6 JUMPI PUSH1 0x40 MLOAD PUSH32 0x8C379A000000000000000000000000000000000000000000000000000000000 DUP2 MSTORE PUSH1 0x4 ADD PUSH2 0xDBD SWAP1 PUSH2 0x49A8 JUMP JUMPDEST PUSH1 0x40 MLOAD DUP1 SWAP2 SUB SWAP1 REVERT JUMPDEST PUSH2 0xDD0 PUSH1 0xE PUSH2 0x2854 JUMP JUMPDEST PUSH2 0xDE1 PUSH2 0xDDB PUSH2 0x2940 JUMP JUMPDEST DUP3 PUSH2 0x2D49 JUMP JUMPDEST PUSH1 0x0 PUSH1 0xA PUSH1 0x0 CALLER PUSH20 0xFFFFFFFFFFFFFFFFFFFFFFFFFFFFFFFFFFFFFFFF AND PUSH20 0xFFFFFFFFFFFFFFFFFFFFFFFFFFFFFFFFFFFFFFFF AND DUP2 MSTORE PUSH1 0x20 ADD SWAP1 DUP2 MSTORE PUSH1 0x20 ADD PUSH1 0x0 KECCAK256 PUSH1 0x0 PUSH2 0x100 EXP DUP2 SLOAD DUP2 PUSH1 0xFF MUL NOT AND SWAP1 DUP4 ISZERO ISZERO MUL OR SWAP1 SSTORE POP PUSH1 0x40 MLOAD DUP1 PUSH1 0x60 ADD PUSH1 0x40 MSTORE DUP1 DUP6 DUP2 MSTORE PUSH1 0x20 ADD DUP5 PUSH20 0xFFFFFFFFFFFFFFFFFFFFFFFFFFFFFFFFFFFFFFFF AND DUP2 MSTORE PUSH1 0x20 ADD DUP4 DUP2 MSTORE POP PUSH1 0xB PUSH1 0x0 DUP4 DUP2 MSTORE PUSH1 0x20 ADD SWAP1 DUP2 MSTORE PUSH1 0x20 ADD PUSH1 0x0 KECCAK256 PUSH1 0x0 DUP3 ADD MLOAD DUP2 PUSH1 0x0 ADD SSTORE PUSH1 0x20 DUP3 ADD MLOAD DUP2 PUSH1 0x1 ADD PUSH1 0x0 PUSH2 0x100 EXP DUP2 SLOAD DUP2 PUSH20 0xFFFFFFFFFFFFFFFFFFFFFFFFFFFFFFFFFFFFFFFF MUL NOT AND SWAP1 DUP4 PUSH20 0xFFFFFFFFFFFFFFFFFFFFFFFFFFFFFFFFFFFFFFFF AND MUL OR SWAP1 SSTORE POP PUSH1 0x40 DUP3 ADD MLOAD DUP2 PUSH1 0x2 ADD SSTORE SWAP1 POP POP POP POP POP POP JUMP JUMPDEST PUSH2 0xEE9 PUSH2 0x2940 JUMP JUMPDEST PUSH20 0xFFFFFFFFFFFFFFFFFFFFFFFFFFFFFFFFFFFFFFFF AND PUSH2 0xF07 PUSH2 0x1F6B JUMP JUMPDEST PUSH20 0xFFFFFFFFFFFFFFFFFFFFFFFFFFFFFFFFFFFFFFFF AND EQ PUSH2 0xF5D JUMPI PUSH1 0x40 MLOAD PUSH32 0x8C379A000000000000000000000000000000000000000000000000000000000 DUP2 MSTORE PUSH1 0x4 ADD PUSH2 0xF54 SWAP1 PUSH2 0x48A8 JUMP JUMPDEST PUSH1 0x40 MLOAD DUP1 SWAP2 SUB SWAP1 REVERT JUMPDEST CALLER PUSH20 0xFFFFFFFFFFFFFFFFFFFFFFFFFFFFFFFFFFFFFFFF AND SELFDESTRUCT JUMPDEST PUSH2 0xF91 DUP4 DUP4 DUP4 PUSH1 0x40 MLOAD DUP1 PUSH1 0x20 ADD PUSH1 0x40 MSTORE DUP1 PUSH1 0x0 DUP2 MSTORE POP PUSH2 0x20F4 JUMP JUMPDEST POP POP POP JUMP JUMPDEST PUSH2 0xF9E PUSH2 0x2940 JUMP JUMPDEST PUSH20 0xFFFFFFFFFFFFFFFFFFFFFFFFFFFFFFFFFFFFFFFF AND PUSH2 0xFBC PUSH2 0x1F6B JUMP JUMPDEST PUSH20 0xFFFFFFFFFFFFFFFFFFFFFFFFFFFFFFFFFFFFFFFF AND EQ PUSH2 0x1012 JUMPI PUSH1 0x40 MLOAD PUSH32 0x8C379A000000000000000000000000000000000000000000000000000000000 DUP2 MSTORE PUSH1 0x4 ADD PUSH2 0x1009 SWAP1 PUSH2 0x48A8 JUMP JUMPDEST PUSH1 0x40 MLOAD DUP1 SWAP2 SUB SWAP1 REVERT JUMPDEST DUP1 PUSH1 0x10 SWAP1 DUP1 MLOAD SWAP1 PUSH1 0x20 ADD SWAP1 PUSH2 0x1028 SWAP3 SWAP2 SWAP1 PUSH2 0x3720 JUMP JUMPDEST POP POP JUMP JUMPDEST PUSH2 0x1034 PUSH2 0x2940 JUMP JUMPDEST PUSH20 0xFFFFFFFFFFFFFFFFFFFFFFFFFFFFFFFFFFFFFFFF AND PUSH2 0x1052 PUSH2 0x1F6B JUMP JUMPDEST PUSH20 0xFFFFFFFFFFFFFFFFFFFFFFFFFFFFFFFFFFFFFFFF AND EQ PUSH2 0x10A8 JUMPI PUSH1 0x40 MLOAD PUSH32 0x8C379A000000000000000000000000000000000000000000000000000000000 DUP2 MSTORE PUSH1 0x4 ADD PUSH2 0x109F SWAP1 PUSH2 0x48A8 JUMP JUMPDEST PUSH1 0x40 MLOAD DUP1 SWAP2 SUB SWAP1 REVERT JUMPDEST PUSH1 0x0 JUMPDEST DUP2 MLOAD DUP2 LT ISZERO PUSH2 0x1139 JUMPI PUSH1 0x0 PUSH1 0xA PUSH1 0x0 DUP5 DUP5 DUP2 MLOAD DUP2 LT PUSH2 0x10CD JUMPI PUSH2 0x10CC PUSH2 0x4EDB JUMP JUMPDEST JUMPDEST PUSH1 0x20 MUL PUSH1 0x20 ADD ADD MLOAD PUSH20 0xFFFFFFFFFFFFFFFFFFFFFFFFFFFFFFFFFFFFFFFF AND PUSH20 0xFFFFFFFFFFFFFFFFFFFFFFFFFFFFFFFFFFFFFFFF AND DUP2 MSTORE PUSH1 0x20 ADD SWAP1 DUP2 MSTORE PUSH1 0x20 ADD PUSH1 0x0 KECCAK256 PUSH1 0x0 PUSH2 0x100 EXP DUP2 SLOAD DUP2 PUSH1 0xFF MUL NOT AND SWAP1 DUP4 ISZERO ISZERO MUL OR SWAP1 SSTORE POP DUP1 DUP1 PUSH2 0x1131 SWAP1 PUSH2 0x4DD4 JUMP JUMPDEST SWAP2 POP POP PUSH2 0x10AB JUMP JUMPDEST POP POP JUMP JUMPDEST CALLER PUSH20 0xFFFFFFFFFFFFFFFFFFFFFFFFFFFFFFFFFFFFFFFF AND PUSH32 0x114ABFDEAE82A138DF9B27B1F9D1F41E9DE8820E7E3D29219403D2A290CBE858 DUP5 DUP5 DUP5 PUSH1 0x40 MLOAD PUSH2 0x1187 SWAP4 SWAP3 SWAP2 SWAP1 PUSH2 0x4A1E JUMP JUMPDEST PUSH1 0x40 MLOAD DUP1 SWAP2 SUB SWAP1 LOG2 POP POP POP JUMP JUMPDEST PUSH2 0x119C PUSH2 0x2940 JUMP JUMPDEST PUSH20 0xFFFFFFFFFFFFFFFFFFFFFFFFFFFFFFFFFFFFFFFF AND PUSH2 0x11BA PUSH2 0x1F6B JUMP JUMPDEST PUSH20 0xFFFFFFFFFFFFFFFFFFFFFFFFFFFFFFFFFFFFFFFF AND EQ PUSH2 0x1210 JUMPI PUSH1 0x40 MLOAD PUSH32 0x8C379A000000000000000000000000000000000000000000000000000000000 DUP2 MSTORE PUSH1 0x4 ADD PUSH2 0x1207 SWAP1 PUSH2 0x48A8 JUMP JUMPDEST PUSH1 0x40 MLOAD DUP1 SWAP2 SUB SWAP1 REVERT JUMPDEST PUSH1 0x0 PUSH1 0x9 PUSH1 0x0 DUP4 PUSH20 0xFFFFFFFFFFFFFFFFFFFFFFFFFFFFFFFFFFFFFFFF AND PUSH20 0xFFFFFFFFFFFFFFFFFFFFFFFFFFFFFFFFFFFFFFFF AND DUP2 MSTORE PUSH1 0x20 ADD SWAP1 DUP2 MSTORE PUSH1 0x20 ADD PUSH1 0x0 KECCAK256 PUSH1 0x0 PUSH2 0x100 EXP DUP2 SLOAD DUP2 PUSH1 0xFF MUL NOT AND SWAP1 DUP4 ISZERO ISZERO MUL OR SWAP1 SSTORE POP POP JUMP JUMPDEST PUSH1 0x0 DUP1 PUSH1 0x2 PUSH1 0x0 DUP5 DUP2 MSTORE PUSH1 0x20 ADD SWAP1 DUP2 MSTORE PUSH1 0x20 ADD PUSH1 0x0 KECCAK256 PUSH1 0x0 SWAP1 SLOAD SWAP1 PUSH2 0x100 EXP SWAP1 DIV PUSH20 0xFFFFFFFFFFFFFFFFFFFFFFFFFFFFFFFFFFFFFFFF AND SWAP1 POP PUSH1 0x0 PUSH20 0xFFFFFFFFFFFFFFFFFFFFFFFFFFFFFFFFFFFFFFFF AND DUP2 PUSH20 0xFFFFFFFFFFFFFFFFFFFFFFFFFFFFFFFFFFFFFFFF AND EQ ISZERO PUSH2 0x1314 JUMPI PUSH1 0x40 MLOAD PUSH32 0x8C379A000000000000000000000000000000000000000000000000000000000 DUP2 MSTORE PUSH1 0x4 ADD PUSH2 0x130B SWAP1 PUSH2 0x4808 JUMP JUMPDEST PUSH1 0x40 MLOAD DUP1 SWAP2 SUB SWAP1 REVERT JUMPDEST DUP1 SWAP2 POP POP SWAP2 SWAP1 POP JUMP JUMPDEST PUSH1 0x0 PUSH1 0xA PUSH1 0x0 DUP4 PUSH20 0xFFFFFFFFFFFFFFFFFFFFFFFFFFFFFFFFFFFFFFFF AND PUSH20 0xFFFFFFFFFFFFFFFFFFFFFFFFFFFFFFFFFFFFFFFF AND DUP2 MSTORE PUSH1 0x20 ADD SWAP1 DUP2 MSTORE PUSH1 0x20 ADD PUSH1 0x0 KECCAK256 PUSH1 0x0 SWAP1 SLOAD SWAP1 PUSH2 0x100 EXP SWAP1 DIV PUSH1 0xFF AND SWAP1 POP SWAP2 SWAP1 POP JUMP JUMPDEST PUSH2 0x137B PUSH2 0x2940 JUMP JUMPDEST PUSH20 0xFFFFFFFFFFFFFFFFFFFFFFFFFFFFFFFFFFFFFFFF AND PUSH2 0x1399 PUSH2 0x1F6B JUMP JUMPDEST PUSH20 0xFFFFFFFFFFFFFFFFFFFFFFFFFFFFFFFFFFFFFFFF AND EQ PUSH2 0x13EF JUMPI PUSH1 0x40 MLOAD PUSH32 0x8C379A000000000000000000000000000000000000000000000000000000000 DUP2 MSTORE PUSH1 0x4 ADD PUSH2 0x13E6 SWAP1 PUSH2 0x48A8 JUMP JUMPDEST PUSH1 0x40 MLOAD DUP1 SWAP2 SUB SWAP1 REVERT JUMPDEST PUSH1 0x0 JUMPDEST DUP2 MLOAD DUP2 LT ISZERO PUSH2 0x1454 JUMPI PUSH1 0x1 PUSH1 0x8 PUSH1 0x0 DUP5 DUP5 DUP2 MLOAD DUP2 LT PUSH2 0x1414 JUMPI PUSH2 0x1413 PUSH2 0x4EDB JUMP JUMPDEST JUMPDEST PUSH1 0x20 MUL PUSH1 0x20 ADD ADD MLOAD DUP2 MSTORE PUSH1 0x20 ADD SWAP1 DUP2 MSTORE PUSH1 0x20 ADD PUSH1 0x0 KECCAK256 PUSH1 0x0 PUSH2 0x100 EXP DUP2 SLOAD DUP2 PUSH1 0xFF MUL NOT AND SWAP1 DUP4 ISZERO ISZERO MUL OR SWAP1 SSTORE POP DUP1 DUP1 PUSH2 0x144C SWAP1 PUSH2 0x4DD4 JUMP JUMPDEST SWAP2 POP POP PUSH2 0x13F2 JUMP JUMPDEST POP POP JUMP JUMPDEST PUSH1 0x60 PUSH1 0x10 DUP1 SLOAD PUSH2 0x1467 SWAP1 PUSH2 0x4D71 JUMP JUMPDEST DUP1 PUSH1 0x1F ADD PUSH1 0x20 DUP1 SWAP2 DIV MUL PUSH1 0x20 ADD PUSH1 0x40 MLOAD SWAP1 DUP2 ADD PUSH1 0x40 MSTORE DUP1 SWAP3 SWAP2 SWAP1 DUP2 DUP2 MSTORE PUSH1 0x20 ADD DUP3 DUP1 SLOAD PUSH2 0x1493 SWAP1 PUSH2 0x4D71 JUMP JUMPDEST DUP1 ISZERO PUSH2 0x14E0 JUMPI DUP1 PUSH1 0x1F LT PUSH2 0x14B5 JUMPI PUSH2 0x100 DUP1 DUP4 SLOAD DIV MUL DUP4 MSTORE SWAP2 PUSH1 0x20 ADD SWAP2 PUSH2 0x14E0 JUMP JUMPDEST DUP3 ADD SWAP2 SWAP1 PUSH1 0x0 MSTORE PUSH1 0x20 PUSH1 0x0 KECCAK256 SWAP1 JUMPDEST DUP2 SLOAD DUP2 MSTORE SWAP1 PUSH1 0x1 ADD SWAP1 PUSH1 0x20 ADD DUP1 DUP4 GT PUSH2 0x14C3 JUMPI DUP3 SWAP1 SUB PUSH1 0x1F AND DUP3 ADD SWAP2 JUMPDEST POP POP POP POP POP SWAP1 POP SWAP1 JUMP JUMPDEST PUSH2 0x14F2 PUSH2 0x2940 JUMP JUMPDEST PUSH20 0xFFFFFFFFFFFFFFFFFFFFFFFFFFFFFFFFFFFFFFFF AND PUSH2 0x1510 PUSH2 0x1F6B JUMP JUMPDEST PUSH20 0xFFFFFFFFFFFFFFFFFFFFFFFFFFFFFFFFFFFFFFFF AND EQ PUSH2 0x1566 JUMPI PUSH1 0x40 MLOAD PUSH32 0x8C379A000000000000000000000000000000000000000000000000000000000 DUP2 MSTORE PUSH1 0x4 ADD PUSH2 0x155D SWAP1 PUSH2 0x48A8 JUMP JUMPDEST PUSH1 0x40 MLOAD DUP1 SWAP2 SUB SWAP1 REVERT JUMPDEST DUP1 PUSH1 0xF DUP2 SWAP1 SSTORE POP POP JUMP JUMPDEST PUSH1 0x0 DUP1 PUSH20 0xFFFFFFFFFFFFFFFFFFFFFFFFFFFFFFFFFFFFFFFF AND DUP3 PUSH20 0xFFFFFFFFFFFFFFFFFFFFFFFFFFFFFFFFFFFFFFFF AND EQ ISZERO PUSH2 0x15E1 JUMPI PUSH1 0x40 MLOAD PUSH32 0x8C379A000000000000000000000000000000000000000000000000000000000 DUP2 MSTORE PUSH1 0x4 ADD PUSH2 0x15D8 SWAP1 PUSH2 0x47E8 JUMP JUMPDEST PUSH1 0x40 MLOAD DUP1 SWAP2 SUB SWAP1 REVERT JUMPDEST PUSH1 0x3 PUSH1 0x0 DUP4 PUSH20 0xFFFFFFFFFFFFFFFFFFFFFFFFFFFFFFFFFFFFFFFF AND PUSH20 0xFFFFFFFFFFFFFFFFFFFFFFFFFFFFFFFFFFFFFFFF AND DUP2 MSTORE PUSH1 0x20 ADD SWAP1 DUP2 MSTORE PUSH1 0x20 ADD PUSH1 0x0 KECCAK256 SLOAD SWAP1 POP SWAP2 SWAP1 POP JUMP JUMPDEST PUSH2 0x1630 PUSH2 0x2940 JUMP JUMPDEST PUSH20 0xFFFFFFFFFFFFFFFFFFFFFFFFFFFFFFFFFFFFFFFF AND PUSH2 0x164E PUSH2 0x1F6B JUMP JUMPDEST PUSH20 0xFFFFFFFFFFFFFFFFFFFFFFFFFFFFFFFFFFFFFFFF AND EQ PUSH2 0x16A4 JUMPI PUSH1 0x40 MLOAD PUSH32 0x8C379A000000000000000000000000000000000000000000000000000000000 DUP2 MSTORE PUSH1 0x4 ADD PUSH2 0x169B SWAP1 PUSH2 0x48A8 JUMP JUMPDEST PUSH1 0x40 MLOAD DUP1 SWAP2 SUB SWAP1 REVERT JUMPDEST PUSH2 0x16AE PUSH1 0x0 PUSH2 0x2D67 JUMP JUMPDEST JUMP JUMPDEST PUSH2 0x16B8 PUSH2 0x2940 JUMP JUMPDEST PUSH20 0xFFFFFFFFFFFFFFFFFFFFFFFFFFFFFFFFFFFFFFFF AND PUSH2 0x16D6 PUSH2 0x1F6B JUMP JUMPDEST PUSH20 0xFFFFFFFFFFFFFFFFFFFFFFFFFFFFFFFFFFFFFFFF AND EQ PUSH2 0x172C JUMPI PUSH1 0x40 MLOAD PUSH32 0x8C379A000000000000000000000000000000000000000000000000000000000 DUP2 MSTORE PUSH1 0x4 ADD PUSH2 0x1723 SWAP1 PUSH2 0x48A8 JUMP JUMPDEST PUSH1 0x40 MLOAD DUP1 SWAP2 SUB SWAP1 REVERT JUMPDEST PUSH1 0x1 PUSH1 0x9 PUSH1 0x0 DUP4 PUSH20 0xFFFFFFFFFFFFFFFFFFFFFFFFFFFFFFFFFFFFFFFF AND PUSH20 0xFFFFFFFFFFFFFFFFFFFFFFFFFFFFFFFFFFFFFFFF AND DUP2 MSTORE PUSH1 0x20 ADD SWAP1 DUP2 MSTORE PUSH1 0x20 ADD PUSH1 0x0 KECCAK256 PUSH1 0x0 PUSH2 0x100 EXP DUP2 SLOAD DUP2 PUSH1 0xFF MUL NOT AND SWAP1 DUP4 ISZERO ISZERO MUL OR SWAP1 SSTORE POP POP JUMP JUMPDEST PUSH2 0x178F PUSH2 0x2940 JUMP JUMPDEST PUSH20 0xFFFFFFFFFFFFFFFFFFFFFFFFFFFFFFFFFFFFFFFF AND PUSH2 0x17AD PUSH2 0x1F6B JUMP JUMPDEST PUSH20 0xFFFFFFFFFFFFFFFFFFFFFFFFFFFFFFFFFFFFFFFF AND EQ PUSH2 0x1803 JUMPI PUSH1 0x40 MLOAD PUSH32 0x8C379A000000000000000000000000000000000000000000000000000000000 DUP2 MSTORE PUSH1 0x4 ADD PUSH2 0x17FA SWAP1 PUSH2 0x48A8 JUMP JUMPDEST PUSH1 0x40 MLOAD DUP1 SWAP2 SUB SWAP1 REVERT JUMPDEST PUSH1 0x0 PUSH2 0x180F PUSH1 0xE PUSH2 0x2D3B JUMP JUMPDEST SWAP1 POP PUSH1 0xF SLOAD PUSH2 0x181E PUSH1 0xE PUSH2 0x2D3B JUMP JUMPDEST GT ISZERO PUSH2 0x185F JUMPI PUSH1 0x40 MLOAD PUSH32 0x8C379A000000000000000000000000000000000000000000000000000000000 DUP2 MSTORE PUSH1 0x4 ADD PUSH2 0x1856 SWAP1 PUSH2 0x49A8 JUMP JUMPDEST PUSH1 0x40 MLOAD DUP1 SWAP2 SUB SWAP1 REVERT JUMPDEST PUSH1 0x8 PUSH1 0x0 DUP6 DUP2 MSTORE PUSH1 0x20 ADD SWAP1 DUP2 MSTORE PUSH1 0x20 ADD PUSH1 0x0 KECCAK256 PUSH1 0x0 SWAP1 SLOAD SWAP1 PUSH2 0x100 EXP SWAP1 DIV PUSH1 0xFF AND PUSH2 0x18BF JUMPI PUSH1 0x40 MLOAD PUSH32 0x8C379A000000000000000000000000000000000000000000000000000000000 DUP2 MSTORE PUSH1 0x4 ADD PUSH2 0x18B6 SWAP1 PUSH2 0x4708 JUMP JUMPDEST PUSH1 0x40 MLOAD DUP1 SWAP2 SUB SWAP1 REVERT JUMPDEST PUSH2 0x18C9 PUSH1 0xE PUSH2 0x2854 JUMP JUMPDEST PUSH2 0x18D3 DUP6 DUP3 PUSH2 0x2D49 JUMP JUMPDEST PUSH1 0x40 MLOAD DUP1 PUSH1 0x60 ADD PUSH1 0x40 MSTORE DUP1 DUP6 DUP2 MSTORE PUSH1 0x20 ADD DUP5 PUSH20 0xFFFFFFFFFFFFFFFFFFFFFFFFFFFFFFFFFFFFFFFF AND DUP2 MSTORE PUSH1 0x20 ADD DUP4 DUP2 MSTORE POP PUSH1 0xB PUSH1 0x0 DUP4 DUP2 MSTORE PUSH1 0x20 ADD SWAP1 DUP2 MSTORE PUSH1 0x20 ADD PUSH1 0x0 KECCAK256 PUSH1 0x0 DUP3 ADD MLOAD DUP2 PUSH1 0x0 ADD SSTORE PUSH1 0x20 DUP3 ADD MLOAD DUP2 PUSH1 0x1 ADD PUSH1 0x0 PUSH2 0x100 EXP DUP2 SLOAD DUP2 PUSH20 0xFFFFFFFFFFFFFFFFFFFFFFFFFFFFFFFFFFFFFFFF MUL NOT AND SWAP1 DUP4 PUSH20 0xFFFFFFFFFFFFFFFFFFFFFFFFFFFFFFFFFFFFFFFF AND MUL OR SWAP1 SSTORE POP PUSH1 0x40 DUP3 ADD MLOAD DUP2 PUSH1 0x2 ADD SSTORE SWAP1 POP POP POP POP POP POP POP JUMP JUMPDEST PUSH1 0x8 PUSH1 0x0 DUP5 DUP2 MSTORE PUSH1 0x20 ADD SWAP1 DUP2 MSTORE PUSH1 0x20 ADD PUSH1 0x0 KECCAK256 PUSH1 0x0 SWAP1 SLOAD SWAP1 PUSH2 0x100 EXP SWAP1 DIV PUSH1 0xFF AND PUSH2 0x19DC JUMPI PUSH1 0x40 MLOAD PUSH32 0x8C379A000000000000000000000000000000000000000000000000000000000 DUP2 MSTORE PUSH1 0x4 ADD PUSH2 0x19D3 SWAP1 PUSH2 0x4708 JUMP JUMPDEST PUSH1 0x40 MLOAD DUP1 SWAP2 SUB SWAP1 REVERT JUMPDEST PUSH1 0x9 PUSH1 0x0 DUP4 PUSH20 0xFFFFFFFFFFFFFFFFFFFFFFFFFFFFFFFFFFFFFFFF AND PUSH20 0xFFFFFFFFFFFFFFFFFFFFFFFFFFFFFFFFFFFFFFFF AND DUP2 MSTORE PUSH1 0x20 ADD SWAP1 DUP2 MSTORE PUSH1 0x20 ADD PUSH1 0x0 KECCAK256 PUSH1 0x0 SWAP1 SLOAD SWAP1 PUSH2 0x100 EXP SWAP1 DIV PUSH1 0xFF AND PUSH2 0x1A68 JUMPI PUSH1 0x40 MLOAD PUSH32 0x8C379A000000000000000000000000000000000000000000000000000000000 DUP2 MSTORE PUSH1 0x4 ADD PUSH2 0x1A5F SWAP1 PUSH2 0x4868 JUMP JUMPDEST PUSH1 0x40 MLOAD DUP1 SWAP2 SUB SWAP1 REVERT JUMPDEST PUSH1 0x0 PUSH2 0x1A74 PUSH1 0xE PUSH2 0x2D3B JUMP JUMPDEST SWAP1 POP PUSH1 0xF SLOAD PUSH2 0x1A83 PUSH1 0xE PUSH2 0x2D3B JUMP JUMPDEST GT ISZERO PUSH2 0x1AC4 JUMPI PUSH1 0x40 MLOAD PUSH32 0x8C379A000000000000000000000000000000000000000000000000000000000 DUP2 MSTORE PUSH1 0x4 ADD PUSH2 0x1ABB SWAP1 PUSH2 0x49A8 JUMP JUMPDEST PUSH1 0x40 MLOAD DUP1 SWAP2 SUB SWAP1 REVERT JUMPDEST PUSH2 0x1ACE PUSH1 0xE PUSH2 0x2854 JUMP JUMPDEST PUSH2 0x1ADF PUSH2 0x1AD9 PUSH2 0x2940 JUMP JUMPDEST DUP3 PUSH2 0x2D49 JUMP JUMPDEST PUSH1 0x40 MLOAD DUP1 PUSH1 0x60 ADD PUSH1 0x40 MSTORE DUP1 DUP6 DUP2 MSTORE PUSH1 0x20 ADD DUP5 PUSH20 0xFFFFFFFFFFFFFFFFFFFFFFFFFFFFFFFFFFFFFFFF AND DUP2 MSTORE PUSH1 0x20 ADD DUP4 DUP2 MSTORE POP PUSH1 0xB PUSH1 0x0 DUP4 DUP2 MSTORE PUSH1 0x20 ADD SWAP1 DUP2 MSTORE PUSH1 0x20 ADD PUSH1 0x0 KECCAK256 PUSH1 0x0 DUP3 ADD MLOAD DUP2 PUSH1 0x0 ADD SSTORE PUSH1 0x20 DUP3 ADD MLOAD DUP2 PUSH1 0x1 ADD PUSH1 0x0 PUSH2 0x100 EXP DUP2 SLOAD DUP2 PUSH20 0xFFFFFFFFFFFFFFFFFFFFFFFFFFFFFFFFFFFFFFFF MUL NOT AND SWAP1 DUP4 PUSH20 0xFFFFFFFFFFFFFFFFFFFFFFFFFFFFFFFFFFFFFFFF AND MUL OR SWAP1 SSTORE POP PUSH1 0x40 DUP3 ADD MLOAD DUP2 PUSH1 0x2 ADD SSTORE SWAP1 POP POP POP POP POP POP JUMP JUMPDEST PUSH1 0x0 ISZERO ISZERO PUSH1 0xC PUSH1 0x0 DUP8 DUP2 MSTORE PUSH1 0x20 ADD SWAP1 DUP2 MSTORE PUSH1 0x20 ADD PUSH1 0x0 KECCAK256 PUSH1 0x0 SWAP1 SLOAD SWAP1 PUSH2 0x100 EXP SWAP1 DIV PUSH1 0xFF AND ISZERO ISZERO EQ PUSH2 0x1BEE JUMPI PUSH1 0x40 MLOAD PUSH32 0x8C379A000000000000000000000000000000000000000000000000000000000 DUP2 MSTORE PUSH1 0x4 ADD PUSH2 0x1BE5 SWAP1 PUSH2 0x49C8 JUMP JUMPDEST PUSH1 0x40 MLOAD DUP1 SWAP2 SUB SWAP1 REVERT JUMPDEST PUSH1 0x0 PUSH2 0x1BFA DUP7 DUP7 PUSH2 0x2E2D JUMP JUMPDEST SWAP1 POP PUSH2 0x1C04 PUSH2 0x1F6B JUMP JUMPDEST PUSH20 0xFFFFFFFFFFFFFFFFFFFFFFFFFFFFFFFFFFFFFFFF AND DUP2 PUSH20 0xFFFFFFFFFFFFFFFFFFFFFFFFFFFFFFFFFFFFFFFF AND EQ PUSH2 0x1C3B JUMPI PUSH1 0x0 DUP1 REVERT JUMPDEST PUSH1 0x8 PUSH1 0x0 DUP6 DUP2 MSTORE PUSH1 0x20 ADD SWAP1 DUP2 MSTORE PUSH1 0x20 ADD PUSH1 0x0 KECCAK256 PUSH1 0x0 SWAP1 SLOAD SWAP1 PUSH2 0x100 EXP SWAP1 DIV PUSH1 0xFF AND PUSH2 0x1C9B JUMPI PUSH1 0x40 MLOAD PUSH32 0x8C379A000000000000000000000000000000000000000000000000000000000 DUP2 MSTORE PUSH1 0x4 ADD PUSH2 0x1C92 SWAP1 PUSH2 0x4708 JUMP JUMPDEST PUSH1 0x40 MLOAD DUP1 SWAP2 SUB SWAP1 REVERT JUMPDEST PUSH1 0x0 PUSH2 0x1CA7 PUSH1 0xE PUSH2 0x2D3B JUMP JUMPDEST SWAP1 POP PUSH1 0xF SLOAD PUSH2 0x1CB6 PUSH1 0xE PUSH2 0x2D3B JUMP JUMPDEST GT ISZERO PUSH2 0x1CF7 JUMPI PUSH1 0x40 MLOAD PUSH32 0x8C379A000000000000000000000000000000000000000000000000000000000 DUP2 MSTORE PUSH1 0x4 ADD PUSH2 0x1CEE SWAP1 PUSH2 0x49A8 JUMP JUMPDEST PUSH1 0x40 MLOAD DUP1 SWAP2 SUB SWAP1 REVERT JUMPDEST PUSH2 0x1D01 PUSH1 0xE PUSH2 0x2854 JUMP JUMPDEST PUSH2 0x1D12 PUSH2 0x1D0C PUSH2 0x2940 JUMP JUMPDEST DUP3 PUSH2 0x2D49 JUMP JUMPDEST PUSH1 0x40 MLOAD DUP1 PUSH1 0x60 ADD PUSH1 0x40 MSTORE DUP1 DUP7 DUP2 MSTORE PUSH1 0x20 ADD DUP6 PUSH20 0xFFFFFFFFFFFFFFFFFFFFFFFFFFFFFFFFFFFFFFFF AND DUP2 MSTORE PUSH1 0x20 ADD DUP5 DUP2 MSTORE POP PUSH1 0xB PUSH1 0x0 DUP4 DUP2 MSTORE PUSH1 0x20 ADD SWAP1 DUP2 MSTORE PUSH1 0x20 ADD PUSH1 0x0 KECCAK256 PUSH1 0x0 DUP3 ADD MLOAD DUP2 PUSH1 0x0 ADD SSTORE PUSH1 0x20 DUP3 ADD MLOAD DUP2 PUSH1 0x1 ADD PUSH1 0x0 PUSH2 0x100 EXP DUP2 SLOAD DUP2 PUSH20 0xFFFFFFFFFFFFFFFFFFFFFFFFFFFFFFFFFFFFFFFF MUL NOT AND SWAP1 DUP4 PUSH20 0xFFFFFFFFFFFFFFFFFFFFFFFFFFFFFFFFFFFFFFFF AND MUL OR SWAP1 SSTORE POP PUSH1 0x40 DUP3 ADD MLOAD DUP2 PUSH1 0x2 ADD SSTORE SWAP1 POP POP PUSH1 0x1 PUSH1 0xC PUSH1 0x0 DUP10 DUP2 MSTORE PUSH1 0x20 ADD SWAP1 DUP2 MSTORE PUSH1 0x20 ADD PUSH1 0x0 KECCAK256 PUSH1 0x0 PUSH2 0x100 EXP DUP2 SLOAD DUP2 PUSH1 0xFF MUL NOT AND SWAP1 DUP4 ISZERO ISZERO MUL OR SWAP1 SSTORE POP POP POP POP POP POP POP POP JUMP JUMPDEST PUSH2 0x1DF1 PUSH2 0x2940 JUMP JUMPDEST PUSH20 0xFFFFFFFFFFFFFFFFFFFFFFFFFFFFFFFFFFFFFFFF AND PUSH2 0x1E0F PUSH2 0x1F6B JUMP JUMPDEST PUSH20 0xFFFFFFFFFFFFFFFFFFFFFFFFFFFFFFFFFFFFFFFF AND EQ PUSH2 0x1E65 JUMPI PUSH1 0x40 MLOAD PUSH32 0x8C379A000000000000000000000000000000000000000000000000000000000 DUP2 MSTORE PUSH1 0x4 ADD PUSH2 0x1E5C SWAP1 PUSH2 0x48A8 JUMP JUMPDEST PUSH1 0x40 MLOAD DUP1 SWAP2 SUB SWAP1 REVERT JUMPDEST PUSH1 0x1 PUSH1 0xA PUSH1 0x0 DUP4 PUSH20 0xFFFFFFFFFFFFFFFFFFFFFFFFFFFFFFFFFFFFFFFF AND PUSH20 0xFFFFFFFFFFFFFFFFFFFFFFFFFFFFFFFFFFFFFFFF AND DUP2 MSTORE PUSH1 0x20 ADD SWAP1 DUP2 MSTORE PUSH1 0x20 ADD PUSH1 0x0 KECCAK256 PUSH1 0x0 PUSH2 0x100 EXP DUP2 SLOAD DUP2 PUSH1 0xFF MUL NOT AND SWAP1 DUP4 ISZERO ISZERO MUL OR SWAP1 SSTORE POP POP JUMP JUMPDEST PUSH2 0x1EC8 PUSH2 0x2940 JUMP JUMPDEST PUSH20 0xFFFFFFFFFFFFFFFFFFFFFFFFFFFFFFFFFFFFFFFF AND PUSH2 0x1EE6 PUSH2 0x1F6B JUMP JUMPDEST PUSH20 0xFFFFFFFFFFFFFFFFFFFFFFFFFFFFFFFFFFFFFFFF AND EQ PUSH2 0x1F3C JUMPI PUSH1 0x40 MLOAD PUSH32 0x8C379A000000000000000000000000000000000000000000000000000000000 DUP2 MSTORE PUSH1 0x4 ADD PUSH2 0x1F33 SWAP1 PUSH2 0x48A8 JUMP JUMPDEST PUSH1 0x40 MLOAD DUP1 SWAP2 SUB SWAP1 REVERT JUMPDEST PUSH1 0x1 PUSH1 0x8 PUSH1 0x0 DUP4 DUP2 MSTORE PUSH1 0x20 ADD SWAP1 DUP2 MSTORE PUSH1 0x20 ADD PUSH1 0x0 KECCAK256 PUSH1 0x0 PUSH2 0x100 EXP DUP2 SLOAD DUP2 PUSH1 0xFF MUL NOT AND SWAP1 DUP4 ISZERO ISZERO MUL OR SWAP1 SSTORE POP POP JUMP JUMPDEST PUSH1 0x0 PUSH1 0x7 PUSH1 0x0 SWAP1 SLOAD SWAP1 PUSH2 0x100 EXP SWAP1 DIV PUSH20 0xFFFFFFFFFFFFFFFFFFFFFFFFFFFFFFFFFFFFFFFF AND SWAP1 POP SWAP1 JUMP JUMPDEST PUSH1 0x60 PUSH1 0x1 DUP1 SLOAD PUSH2 0x1FA4 SWAP1 PUSH2 0x4D71 JUMP JUMPDEST DUP1 PUSH1 0x1F ADD PUSH1 0x20 DUP1 SWAP2 DIV MUL PUSH1 0x20 ADD PUSH1 0x40 MLOAD SWAP1 DUP2 ADD PUSH1 0x40 MSTORE DUP1 SWAP3 SWAP2 SWAP1 DUP2 DUP2 MSTORE PUSH1 0x20 ADD DUP3 DUP1 SLOAD PUSH2 0x1FD0 SWAP1 PUSH2 0x4D71 JUMP JUMPDEST DUP1 ISZERO PUSH2 0x201D JUMPI DUP1 PUSH1 0x1F LT PUSH2 0x1FF2 JUMPI PUSH2 0x100 DUP1 DUP4 SLOAD DIV MUL DUP4 MSTORE SWAP2 PUSH1 0x20 ADD SWAP2 PUSH2 0x201D JUMP JUMPDEST DUP3 ADD SWAP2 SWAP1 PUSH1 0x0 MSTORE PUSH1 0x20 PUSH1 0x0 KECCAK256 SWAP1 JUMPDEST DUP2 SLOAD DUP2 MSTORE SWAP1 PUSH1 0x1 ADD SWAP1 PUSH1 0x20 ADD DUP1 DUP4 GT PUSH2 0x2000 JUMPI DUP3 SWAP1 SUB PUSH1 0x1F AND DUP3 ADD SWAP2 JUMPDEST POP POP POP POP POP SWAP1 POP SWAP1 JUMP JUMPDEST PUSH1 0xD PUSH1 0x20 MSTORE DUP1 PUSH1 0x0 MSTORE PUSH1 0x40 PUSH1 0x0 KECCAK256 PUSH1 0x0 SWAP2 POP SLOAD SWAP1 PUSH2 0x100 EXP SWAP1 DIV PUSH1 0xFF AND DUP2 JUMP JUMPDEST PUSH2 0x2059 PUSH2 0x2052 PUSH2 0x2940 JUMP JUMPDEST DUP4 DUP4 PUSH2 0x2EA2 JUMP JUMPDEST POP POP JUMP JUMPDEST PUSH2 0x2065 PUSH2 0x37A6 JUMP JUMPDEST PUSH1 0xB PUSH1 0x0 DUP4 DUP2 MSTORE PUSH1 0x20 ADD SWAP1 DUP2 MSTORE PUSH1 0x20 ADD PUSH1 0x0 KECCAK256 PUSH1 0x40 MLOAD DUP1 PUSH1 0x60 ADD PUSH1 0x40 MSTORE SWAP1 DUP2 PUSH1 0x0 DUP3 ADD SLOAD DUP2 MSTORE PUSH1 0x20 ADD PUSH1 0x1 DUP3 ADD PUSH1 0x0 SWAP1 SLOAD SWAP1 PUSH2 0x100 EXP SWAP1 DIV PUSH20 0xFFFFFFFFFFFFFFFFFFFFFFFFFFFFFFFFFFFFFFFF AND PUSH20 0xFFFFFFFFFFFFFFFFFFFFFFFFFFFFFFFFFFFFFFFF AND PUSH20 0xFFFFFFFFFFFFFFFFFFFFFFFFFFFFFFFFFFFFFFFF AND DUP2 MSTORE PUSH1 0x20 ADD PUSH1 0x2 DUP3 ADD SLOAD DUP2 MSTORE POP POP SWAP1 POP SWAP2 SWAP1 POP JUMP JUMPDEST PUSH2 0x2105 PUSH2 0x20FF PUSH2 0x2940 JUMP JUMPDEST DUP4 PUSH2 0x2A01 JUMP JUMPDEST PUSH2 0x2144 JUMPI PUSH1 0x40 MLOAD PUSH32 0x8C379A000000000000000000000000000000000000000000000000000000000 DUP2 MSTORE PUSH1 0x4 ADD PUSH2 0x213B SWAP1 PUSH2 0x4948 JUMP JUMPDEST PUSH1 0x40 MLOAD DUP1 SWAP2 SUB SWAP1 REVERT JUMPDEST PUSH2 0x2150 DUP5 DUP5 DUP5 DUP5 PUSH2 0x300F JUMP JUMPDEST POP POP POP POP JUMP JUMPDEST DUP2 MLOAD DUP4 MLOAD EQ PUSH2 0x219A JUMPI PUSH1 0x40 MLOAD PUSH32 0x8C379A000000000000000000000000000000000000000000000000000000000 DUP2 MSTORE PUSH1 0x4 ADD PUSH2 0x2191 SWAP1 PUSH2 0x4988 JUMP JUMPDEST PUSH1 0x40 MLOAD DUP1 SWAP2 SUB SWAP1 REVERT JUMPDEST DUP1 MLOAD DUP4 MLOAD EQ PUSH2 0x21DE JUMPI PUSH1 0x40 MLOAD PUSH32 0x8C379A000000000000000000000000000000000000000000000000000000000 DUP2 MSTORE PUSH1 0x4 ADD PUSH2 0x21D5 SWAP1 PUSH2 0x4928 JUMP JUMPDEST PUSH1 0x40 MLOAD DUP1 SWAP2 SUB SWAP1 REVERT JUMPDEST CALLER PUSH20 0xFFFFFFFFFFFFFFFFFFFFFFFFFFFFFFFFFFFFFFFF AND PUSH32 0x8D9B1399E0D1533E91CADD84CEAC1E10325EFDBF28DC94C8F5209FDB5BF88A42 DUP5 DUP5 DUP5 PUSH1 0x40 MLOAD PUSH2 0x2228 SWAP4 SWAP3 SWAP2 SWAP1 PUSH2 0x461A JUMP JUMPDEST PUSH1 0x40 MLOAD DUP1 SWAP2 SUB SWAP1 LOG2 POP POP POP JUMP JUMPDEST PUSH2 0x223D PUSH2 0x2940 JUMP JUMPDEST PUSH20 0xFFFFFFFFFFFFFFFFFFFFFFFFFFFFFFFFFFFFFFFF AND PUSH2 0x225B PUSH2 0x1F6B JUMP JUMPDEST PUSH20 0xFFFFFFFFFFFFFFFFFFFFFFFFFFFFFFFFFFFFFFFF AND EQ PUSH2 0x22B1 JUMPI PUSH1 0x40 MLOAD PUSH32 0x8C379A000000000000000000000000000000000000000000000000000000000 DUP2 MSTORE PUSH1 0x4 ADD PUSH2 0x22A8 SWAP1 PUSH2 0x48A8 JUMP JUMPDEST PUSH1 0x40 MLOAD DUP1 SWAP2 SUB SWAP1 REVERT JUMPDEST PUSH1 0x0 PUSH1 0xA PUSH1 0x0 DUP4 PUSH20 0xFFFFFFFFFFFFFFFFFFFFFFFFFFFFFFFFFFFFFFFF AND PUSH20 0xFFFFFFFFFFFFFFFFFFFFFFFFFFFFFFFFFFFFFFFF AND DUP2 MSTORE PUSH1 0x20 ADD SWAP1 DUP2 MSTORE PUSH1 0x20 ADD PUSH1 0x0 KECCAK256 PUSH1 0x0 PUSH2 0x100 EXP DUP2 SLOAD DUP2 PUSH1 0xFF MUL NOT AND SWAP1 DUP4 ISZERO ISZERO MUL OR SWAP1 SSTORE POP POP JUMP JUMPDEST PUSH1 0x60 PUSH2 0x2317 DUP3 PUSH2 0x28D4 JUMP JUMPDEST PUSH2 0x2356 JUMPI PUSH1 0x40 MLOAD PUSH32 0x8C379A000000000000000000000000000000000000000000000000000000000 DUP2 MSTORE PUSH1 0x4 ADD PUSH2 0x234D SWAP1 PUSH2 0x4848 JUMP JUMPDEST PUSH1 0x40 MLOAD DUP1 SWAP2 SUB SWAP1 REVERT JUMPDEST PUSH1 0x0 PUSH1 0x6 PUSH1 0x0 DUP5 DUP2 MSTORE PUSH1 0x20 ADD SWAP1 DUP2 MSTORE PUSH1 0x20 ADD PUSH1 0x0 KECCAK256 DUP1 SLOAD PUSH2 0x2376 SWAP1 PUSH2 0x4D71 JUMP JUMPDEST DUP1 PUSH1 0x1F ADD PUSH1 0x20 DUP1 SWAP2 DIV MUL PUSH1 0x20 ADD PUSH1 0x40 MLOAD SWAP1 DUP2 ADD PUSH1 0x40 MSTORE DUP1 SWAP3 SWAP2 SWAP1 DUP2 DUP2 MSTORE PUSH1 0x20 ADD DUP3 DUP1 SLOAD PUSH2 0x23A2 SWAP1 PUSH2 0x4D71 JUMP JUMPDEST DUP1 ISZERO PUSH2 0x23EF JUMPI DUP1 PUSH1 0x1F LT PUSH2 0x23C4 JUMPI PUSH2 0x100 DUP1 DUP4 SLOAD DIV MUL DUP4 MSTORE SWAP2 PUSH1 0x20 ADD SWAP2 PUSH2 0x23EF JUMP JUMPDEST DUP3 ADD SWAP2 SWAP1 PUSH1 0x0 MSTORE PUSH1 0x20 PUSH1 0x0 KECCAK256 SWAP1 JUMPDEST DUP2 SLOAD DUP2 MSTORE SWAP1 PUSH1 0x1 ADD SWAP1 PUSH1 0x20 ADD DUP1 DUP4 GT PUSH2 0x23D2 JUMPI DUP3 SWAP1 SUB PUSH1 0x1F AND DUP3 ADD SWAP2 JUMPDEST POP POP POP POP POP SWAP1 POP PUSH1 0x0 PUSH2 0x2400 PUSH2 0x306B JUMP JUMPDEST SWAP1 POP PUSH1 0x0 DUP2 MLOAD EQ ISZERO PUSH2 0x2416 JUMPI DUP2 SWAP3 POP POP POP PUSH2 0x2459 JUMP JUMPDEST PUSH1 0x0 DUP3 MLOAD GT ISZERO PUSH2 0x244B JUMPI DUP1 DUP3 PUSH1 0x40 MLOAD PUSH1 0x20 ADD PUSH2 0x2433 SWAP3 SWAP2 SWAP1 PUSH2 0x458F JUMP JUMPDEST PUSH1 0x40 MLOAD PUSH1 0x20 DUP2 DUP4 SUB SUB DUP2 MSTORE SWAP1 PUSH1 0x40 MSTORE SWAP3 POP POP POP PUSH2 0x2459 JUMP JUMPDEST PUSH2 0x2454 DUP5 PUSH2 0x30FD JUMP JUMPDEST SWAP3 POP POP POP JUMPDEST SWAP2 SWAP1 POP JUMP JUMPDEST PUSH2 0x2466 PUSH2 0x2940 JUMP JUMPDEST PUSH20 0xFFFFFFFFFFFFFFFFFFFFFFFFFFFFFFFFFFFFFFFF AND PUSH2 0x2484 PUSH2 0x1F6B JUMP JUMPDEST PUSH20 0xFFFFFFFFFFFFFFFFFFFFFFFFFFFFFFFFFFFFFFFF AND EQ PUSH2 0x24DA JUMPI PUSH1 0x40 MLOAD PUSH32 0x8C379A000000000000000000000000000000000000000000000000000000000 DUP2 MSTORE PUSH1 0x4 ADD PUSH2 0x24D1 SWAP1 PUSH2 0x48A8 JUMP JUMPDEST PUSH1 0x40 MLOAD DUP1 SWAP2 SUB SWAP1 REVERT JUMPDEST PUSH1 0x0 JUMPDEST DUP2 MLOAD DUP2 LT ISZERO PUSH2 0x256B JUMPI PUSH1 0x1 PUSH1 0xA PUSH1 0x0 DUP5 DUP5 DUP2 MLOAD DUP2 LT PUSH2 0x24FF JUMPI PUSH2 0x24FE PUSH2 0x4EDB JUMP JUMPDEST JUMPDEST PUSH1 0x20 MUL PUSH1 0x20 ADD ADD MLOAD PUSH20 0xFFFFFFFFFFFFFFFFFFFFFFFFFFFFFFFFFFFFFFFF AND PUSH20 0xFFFFFFFFFFFFFFFFFFFFFFFFFFFFFFFFFFFFFFFF AND DUP2 MSTORE PUSH1 0x20 ADD SWAP1 DUP2 MSTORE PUSH1 0x20 ADD PUSH1 0x0 KECCAK256 PUSH1 0x0 PUSH2 0x100 EXP DUP2 SLOAD DUP2 PUSH1 0xFF MUL NOT AND SWAP1 DUP4 ISZERO ISZERO MUL OR SWAP1 SSTORE POP DUP1 DUP1 PUSH2 0x2563 SWAP1 PUSH2 0x4DD4 JUMP JUMPDEST SWAP2 POP POP PUSH2 0x24DD JUMP JUMPDEST POP POP JUMP JUMPDEST PUSH1 0x0 PUSH1 0x9 PUSH1 0x0 DUP4 PUSH20 0xFFFFFFFFFFFFFFFFFFFFFFFFFFFFFFFFFFFFFFFF AND PUSH20 0xFFFFFFFFFFFFFFFFFFFFFFFFFFFFFFFFFFFFFFFF AND DUP2 MSTORE PUSH1 0x20 ADD SWAP1 DUP2 MSTORE PUSH1 0x20 ADD PUSH1 0x0 KECCAK256 PUSH1 0x0 SWAP1 SLOAD SWAP1 PUSH2 0x100 EXP SWAP1 DIV PUSH1 0xFF AND SWAP1 POP SWAP2 SWAP1 POP JUMP JUMPDEST PUSH1 0x0 PUSH1 0xF SLOAD SWAP1 POP SWAP1 JUMP JUMPDEST PUSH2 0x25D7 PUSH2 0x2940 JUMP JUMPDEST PUSH20 0xFFFFFFFFFFFFFFFFFFFFFFFFFFFFFFFFFFFFFFFF AND PUSH2 0x25F5 PUSH2 0x1F6B JUMP JUMPDEST PUSH20 0xFFFFFFFFFFFFFFFFFFFFFFFFFFFFFFFFFFFFFFFF AND EQ PUSH2 0x264B JUMPI PUSH1 0x40 MLOAD PUSH32 0x8C379A000000000000000000000000000000000000000000000000000000000 DUP2 MSTORE PUSH1 0x4 ADD PUSH2 0x2642 SWAP1 PUSH2 0x48A8 JUMP JUMPDEST PUSH1 0x40 MLOAD DUP1 SWAP2 SUB SWAP1 REVERT JUMPDEST PUSH1 0x0 PUSH1 0x8 PUSH1 0x0 DUP4 DUP2 MSTORE PUSH1 0x20 ADD SWAP1 DUP2 MSTORE PUSH1 0x20 ADD PUSH1 0x0 KECCAK256 PUSH1 0x0 PUSH2 0x100 EXP DUP2 SLOAD DUP2 PUSH1 0xFF MUL NOT AND SWAP1 DUP4 ISZERO ISZERO MUL OR SWAP1 SSTORE POP POP JUMP JUMPDEST PUSH1 0x0 PUSH1 0x5 PUSH1 0x0 DUP5 PUSH20 0xFFFFFFFFFFFFFFFFFFFFFFFFFFFFFFFFFFFFFFFF AND PUSH20 0xFFFFFFFFFFFFFFFFFFFFFFFFFFFFFFFFFFFFFFFF AND DUP2 MSTORE PUSH1 0x20 ADD SWAP1 DUP2 MSTORE PUSH1 0x20 ADD PUSH1 0x0 KECCAK256 PUSH1 0x0 DUP4 PUSH20 0xFFFFFFFFFFFFFFFFFFFFFFFFFFFFFFFFFFFFFFFF AND PUSH20 0xFFFFFFFFFFFFFFFFFFFFFFFFFFFFFFFFFFFFFFFF AND DUP2 MSTORE PUSH1 0x20 ADD SWAP1 DUP2 MSTORE PUSH1 0x20 ADD PUSH1 0x0 KECCAK256 PUSH1 0x0 SWAP1 SLOAD SWAP1 PUSH2 0x100 EXP SWAP1 DIV PUSH1 0xFF AND SWAP1 POP SWAP3 SWAP2 POP POP JUMP JUMPDEST PUSH1 0x0 DUP1 PUSH2 0x271B DUP5 DUP5 PUSH2 0x2E2D JUMP JUMPDEST SWAP1 POP PUSH2 0x2725 PUSH2 0x1F6B JUMP JUMPDEST PUSH20 0xFFFFFFFFFFFFFFFFFFFFFFFFFFFFFFFFFFFFFFFF AND DUP2 PUSH20 0xFFFFFFFFFFFFFFFFFFFFFFFFFFFFFFFFFFFFFFFF AND EQ SWAP2 POP POP SWAP3 SWAP2 POP POP JUMP JUMPDEST PUSH2 0x2764 PUSH2 0x2940 JUMP JUMPDEST PUSH20 0xFFFFFFFFFFFFFFFFFFFFFFFFFFFFFFFFFFFFFFFF AND PUSH2 0x2782 PUSH2 0x1F6B JUMP JUMPDEST PUSH20 0xFFFFFFFFFFFFFFFFFFFFFFFFFFFFFFFFFFFFFFFF AND EQ PUSH2 0x27D8 JUMPI PUSH1 0x40 MLOAD PUSH32 0x8C379A000000000000000000000000000000000000000000000000000000000 DUP2 MSTORE PUSH1 0x4 ADD PUSH2 0x27CF SWAP1 PUSH2 0x48A8 JUMP JUMPDEST PUSH1 0x40 MLOAD DUP1 SWAP2 SUB SWAP1 REVERT JUMPDEST PUSH1 0x0 PUSH20 0xFFFFFFFFFFFFFFFFFFFFFFFFFFFFFFFFFFFFFFFF AND DUP2 PUSH20 0xFFFFFFFFFFFFFFFFFFFFFFFFFFFFFFFFFFFFFFFF AND EQ ISZERO PUSH2 0x2848 JUMPI PUSH1 0x40 MLOAD PUSH32 0x8C379A000000000000000000000000000000000000000000000000000000000 DUP2 MSTORE PUSH1 0x4 ADD PUSH2 0x283F SWAP1 PUSH2 0x4728 JUMP JUMPDEST PUSH1 0x40 MLOAD DUP1 SWAP2 SUB SWAP1 REVERT JUMPDEST PUSH2 0x2851 DUP2 PUSH2 0x2D67 JUMP JUMPDEST POP JUMP JUMPDEST PUSH1 0x1 DUP2 PUSH1 0x0 ADD PUSH1 0x0 DUP3 DUP3 SLOAD ADD SWAP3 POP POP DUP2 SWAP1 SSTORE POP POP JUMP JUMPDEST PUSH1 0x0 PUSH32 0x1FFC9A700000000000000000000000000000000000000000000000000000000 PUSH28 0xFFFFFFFFFFFFFFFFFFFFFFFFFFFFFFFFFFFFFFFFFFFFFFFFFFFFFFFF NOT AND DUP3 PUSH28 0xFFFFFFFFFFFFFFFFFFFFFFFFFFFFFFFFFFFFFFFFFFFFFFFFFFFFFFFF NOT AND EQ SWAP1 POP SWAP2 SWAP1 POP JUMP JUMPDEST PUSH1 0x0 DUP1 PUSH20 0xFFFFFFFFFFFFFFFFFFFFFFFFFFFFFFFFFFFFFFFF AND PUSH1 0x2 PUSH1 0x0 DUP5 DUP2 MSTORE PUSH1 0x20 ADD SWAP1 DUP2 MSTORE PUSH1 0x20 ADD PUSH1 0x0 KECCAK256 PUSH1 0x0 SWAP1 SLOAD SWAP1 PUSH2 0x100 EXP SWAP1 DIV PUSH20 0xFFFFFFFFFFFFFFFFFFFFFFFFFFFFFFFFFFFFFFFF AND PUSH20 0xFFFFFFFFFFFFFFFFFFFFFFFFFFFFFFFFFFFFFFFF AND EQ ISZERO SWAP1 POP SWAP2 SWAP1 POP JUMP JUMPDEST PUSH1 0x0 CALLER SWAP1 POP SWAP1 JUMP JUMPDEST DUP2 PUSH1 0x4 PUSH1 0x0 DUP4 DUP2 MSTORE PUSH1 0x20 ADD SWAP1 DUP2 MSTORE PUSH1 0x20 ADD PUSH1 0x0 KECCAK256 PUSH1 0x0 PUSH2 0x100 EXP DUP2 SLOAD DUP2 PUSH20 0xFFFFFFFFFFFFFFFFFFFFFFFFFFFFFFFFFFFFFFFF MUL NOT AND SWAP1 DUP4 PUSH20 0xFFFFFFFFFFFFFFFFFFFFFFFFFFFFFFFFFFFFFFFF AND MUL OR SWAP1 SSTORE POP DUP1 DUP3 PUSH20 0xFFFFFFFFFFFFFFFFFFFFFFFFFFFFFFFFFFFFFFFF AND PUSH2 0x29BB DUP4 PUSH2 0x126B JUMP JUMPDEST PUSH20 0xFFFFFFFFFFFFFFFFFFFFFFFFFFFFFFFFFFFFFFFF AND PUSH32 0x8C5BE1E5EBEC7D5BD14F71427D1E84F3DD0314C0F7B2291E5B200AC8C7C3B925 PUSH1 0x40 MLOAD PUSH1 0x40 MLOAD DUP1 SWAP2 SUB SWAP1 LOG4 POP POP JUMP JUMPDEST PUSH1 0x0 PUSH2 0x2A0C DUP3 PUSH2 0x28D4 JUMP JUMPDEST PUSH2 0x2A4B JUMPI PUSH1 0x40 MLOAD PUSH32 0x8C379A000000000000000000000000000000000000000000000000000000000 DUP2 MSTORE PUSH1 0x4 ADD PUSH2 0x2A42 SWAP1 PUSH2 0x47A8 JUMP JUMPDEST PUSH1 0x40 MLOAD DUP1 SWAP2 SUB SWAP1 REVERT JUMPDEST PUSH1 0x0 PUSH2 0x2A56 DUP4 PUSH2 0x126B JUMP JUMPDEST SWAP1 POP DUP1 PUSH20 0xFFFFFFFFFFFFFFFFFFFFFFFFFFFFFFFFFFFFFFFF AND DUP5 PUSH20 0xFFFFFFFFFFFFFFFFFFFFFFFFFFFFFFFFFFFFFFFF AND EQ DUP1 PUSH2 0x2AC5 JUMPI POP DUP4 PUSH20 0xFFFFFFFFFFFFFFFFFFFFFFFFFFFFFFFFFFFFFFFF AND PUSH2 0x2AAD DUP5 PUSH2 0x983 JUMP JUMPDEST PUSH20 0xFFFFFFFFFFFFFFFFFFFFFFFFFFFFFFFFFFFFFFFF AND EQ JUMPDEST DUP1 PUSH2 0x2AD6 JUMPI POP PUSH2 0x2AD5 DUP2 DUP6 PUSH2 0x267A JUMP JUMPDEST JUMPDEST SWAP2 POP POP SWAP3 SWAP2 POP POP JUMP JUMPDEST DUP3 PUSH20 0xFFFFFFFFFFFFFFFFFFFFFFFFFFFFFFFFFFFFFFFF AND PUSH2 0x2AFF DUP3 PUSH2 0x126B JUMP JUMPDEST PUSH20 0xFFFFFFFFFFFFFFFFFFFFFFFFFFFFFFFFFFFFFFFF AND EQ PUSH2 0x2B55 JUMPI PUSH1 0x40 MLOAD PUSH32 0x8C379A000000000000000000000000000000000000000000000000000000000 DUP2 MSTORE PUSH1 0x4 ADD PUSH2 0x2B4C SWAP1 PUSH2 0x48C8 JUMP JUMPDEST PUSH1 0x40 MLOAD DUP1 SWAP2 SUB SWAP1 REVERT JUMPDEST PUSH1 0x0 PUSH20 0xFFFFFFFFFFFFFFFFFFFFFFFFFFFFFFFFFFFFFFFF AND DUP3 PUSH20 0xFFFFFFFFFFFFFFFFFFFFFFFFFFFFFFFFFFFFFFFF AND EQ ISZERO PUSH2 0x2BC5 JUMPI PUSH1 0x40 MLOAD PUSH32 0x8C379A000000000000000000000000000000000000000000000000000000000 DUP2 MSTORE PUSH1 0x4 ADD PUSH2 0x2BBC SWAP1 PUSH2 0x4768 JUMP JUMPDEST PUSH1 0x40 MLOAD DUP1 SWAP2 SUB SWAP1 REVERT JUMPDEST PUSH2 0x2BD0 DUP4 DUP4 DUP4 PUSH2 0x31A4 JUMP JUMPDEST PUSH2 0x2BDB PUSH1 0x0 DUP3 PUSH2 0x2948 JUMP JUMPDEST PUSH1 0x1 PUSH1 0x3 PUSH1 0x0 DUP6 PUSH20 0xFFFFFFFFFFFFFFFFFFFFFFFFFFFFFFFFFFFFFFFF AND PUSH20 0xFFFFFFFFFFFFFFFFFFFFFFFFFFFFFFFFFFFFFFFF AND DUP2 MSTORE PUSH1 0x20 ADD SWAP1 DUP2 MSTORE PUSH1 0x20 ADD PUSH1 0x0 KECCAK256 PUSH1 0x0 DUP3 DUP3 SLOAD PUSH2 0x2C2B SWAP2 SWAP1 PUSH2 0x4C70 JUMP JUMPDEST SWAP3 POP POP DUP2 SWAP1 SSTORE POP PUSH1 0x1 PUSH1 0x3 PUSH1 0x0 DUP5 PUSH20 0xFFFFFFFFFFFFFFFFFFFFFFFFFFFFFFFFFFFFFFFF AND PUSH20 0xFFFFFFFFFFFFFFFFFFFFFFFFFFFFFFFFFFFFFFFF AND DUP2 MSTORE PUSH1 0x20 ADD SWAP1 DUP2 MSTORE PUSH1 0x20 ADD PUSH1 0x0 KECCAK256 PUSH1 0x0 DUP3 DUP3 SLOAD PUSH2 0x2C82 SWAP2 SWAP1 PUSH2 0x4BE9 JUMP JUMPDEST SWAP3 POP POP DUP2 SWAP1 SSTORE POP DUP2 PUSH1 0x2 PUSH1 0x0 DUP4 DUP2 MSTORE PUSH1 0x20 ADD SWAP1 DUP2 MSTORE PUSH1 0x20 ADD PUSH1 0x0 KECCAK256 PUSH1 0x0 PUSH2 0x100 EXP DUP2 SLOAD DUP2 PUSH20 0xFFFFFFFFFFFFFFFFFFFFFFFFFFFFFFFFFFFFFFFF MUL NOT AND SWAP1 DUP4 PUSH20 0xFFFFFFFFFFFFFFFFFFFFFFFFFFFFFFFFFFFFFFFF AND MUL OR SWAP1 SSTORE POP DUP1 DUP3 PUSH20 0xFFFFFFFFFFFFFFFFFFFFFFFFFFFFFFFFFFFFFFFF AND DUP5 PUSH20 0xFFFFFFFFFFFFFFFFFFFFFFFFFFFFFFFFFFFFFFFF AND PUSH32 0xDDF252AD1BE2C89B69C2B068FC378DAA952BA7F163C4A11628F55A4DF523B3EF PUSH1 0x40 MLOAD PUSH1 0x40 MLOAD DUP1 SWAP2 SUB SWAP1 LOG4 POP POP POP JUMP JUMPDEST PUSH1 0x0 DUP2 PUSH1 0x0 ADD SLOAD SWAP1 POP SWAP2 SWAP1 POP JUMP JUMPDEST PUSH2 0x2D63 DUP3 DUP3 PUSH1 0x40 MLOAD DUP1 PUSH1 0x20 ADD PUSH1 0x40 MSTORE DUP1 PUSH1 0x0 DUP2 MSTORE POP PUSH2 0x31A9 JUMP JUMPDEST POP POP JUMP JUMPDEST PUSH1 0x0 PUSH1 0x7 PUSH1 0x0 SWAP1 SLOAD SWAP1 PUSH2 0x100 EXP SWAP1 DIV PUSH20 0xFFFFFFFFFFFFFFFFFFFFFFFFFFFFFFFFFFFFFFFF AND SWAP1 POP DUP2 PUSH1 0x7 PUSH1 0x0 PUSH2 0x100 EXP DUP2 SLOAD DUP2 PUSH20 0xFFFFFFFFFFFFFFFFFFFFFFFFFFFFFFFFFFFFFFFF MUL NOT AND SWAP1 DUP4 PUSH20 0xFFFFFFFFFFFFFFFFFFFFFFFFFFFFFFFFFFFFFFFF AND MUL OR SWAP1 SSTORE POP DUP2 PUSH20 0xFFFFFFFFFFFFFFFFFFFFFFFFFFFFFFFFFFFFFFFF AND DUP2 PUSH20 0xFFFFFFFFFFFFFFFFFFFFFFFFFFFFFFFFFFFFFFFF AND PUSH32 0x8BE0079C531659141344CD1FD0A4F28419497F9722A3DAAFE3B4186F6B6457E0 PUSH1 0x40 MLOAD PUSH1 0x40 MLOAD DUP1 SWAP2 SUB SWAP1 LOG3 POP POP JUMP JUMPDEST PUSH1 0x0 DUP1 PUSH1 0x0 DUP1 PUSH2 0x2E3C DUP6 PUSH2 0x3204 JUMP JUMPDEST DUP1 SWAP4 POP DUP2 SWAP5 POP DUP3 SWAP6 POP POP POP POP PUSH1 0x1 DUP7 DUP5 DUP5 DUP5 PUSH1 0x40 MLOAD PUSH1 0x0 DUP2 MSTORE PUSH1 0x20 ADD PUSH1 0x40 MSTORE PUSH1 0x40 MLOAD PUSH2 0x2E6B SWAP5 SWAP4 SWAP3 SWAP2 SWAP1 PUSH2 0x4681 JUMP JUMPDEST PUSH1 0x20 PUSH1 0x40 MLOAD PUSH1 0x20 DUP2 SUB SWAP1 DUP1 DUP5 SUB SWAP1 DUP6 GAS STATICCALL ISZERO DUP1 ISZERO PUSH2 0x2E8D JUMPI RETURNDATASIZE PUSH1 0x0 DUP1 RETURNDATACOPY RETURNDATASIZE PUSH1 0x0 REVERT JUMPDEST POP POP POP PUSH1 0x20 PUSH1 0x40 MLOAD SUB MLOAD SWAP4 POP POP POP POP SWAP3 SWAP2 POP POP JUMP JUMPDEST DUP2 PUSH20 0xFFFFFFFFFFFFFFFFFFFFFFFFFFFFFFFFFFFFFFFF AND DUP4 PUSH20 0xFFFFFFFFFFFFFFFFFFFFFFFFFFFFFFFFFFFFFFFF AND EQ ISZERO PUSH2 0x2F11 JUMPI PUSH1 0x40 MLOAD PUSH32 0x8C379A000000000000000000000000000000000000000000000000000000000 DUP2 MSTORE PUSH1 0x4 ADD PUSH2 0x2F08 SWAP1 PUSH2 0x4788 JUMP JUMPDEST PUSH1 0x40 MLOAD DUP1 SWAP2 SUB SWAP1 REVERT JUMPDEST DUP1 PUSH1 0x5 PUSH1 0x0 DUP6 PUSH20 0xFFFFFFFFFFFFFFFFFFFFFFFFFFFFFFFFFFFFFFFF AND PUSH20 0xFFFFFFFFFFFFFFFFFFFFFFFFFFFFFFFFFFFFFFFF AND DUP2 MSTORE PUSH1 0x20 ADD SWAP1 DUP2 MSTORE PUSH1 0x20 ADD PUSH1 0x0 KECCAK256 PUSH1 0x0 DUP5 PUSH20 0xFFFFFFFFFFFFFFFFFFFFFFFFFFFFFFFFFFFFFFFF AND PUSH20 0xFFFFFFFFFFFFFFFFFFFFFFFFFFFFFFFFFFFFFFFF AND DUP2 MSTORE PUSH1 0x20 ADD SWAP1 DUP2 MSTORE PUSH1 0x20 ADD PUSH1 0x0 KECCAK256 PUSH1 0x0 PUSH2 0x100 EXP DUP2 SLOAD DUP2 PUSH1 0xFF MUL NOT AND SWAP1 DUP4 ISZERO ISZERO MUL OR SWAP1 SSTORE POP DUP2 PUSH20 0xFFFFFFFFFFFFFFFFFFFFFFFFFFFFFFFFFFFFFFFF AND DUP4 PUSH20 0xFFFFFFFFFFFFFFFFFFFFFFFFFFFFFFFFFFFFFFFF AND PUSH32 0x17307EAB39AB6107E8899845AD3D59BD9653F200F220920489CA2B5937696C31 DUP4 PUSH1 0x40 MLOAD PUSH2 0x3002 SWAP2 SWAP1 PUSH2 0x4666 JUMP JUMPDEST PUSH1 0x40 MLOAD DUP1 SWAP2 SUB SWAP1 LOG3 POP POP POP JUMP JUMPDEST PUSH2 0x301A DUP5 DUP5 DUP5 PUSH2 0x2ADF JUMP JUMPDEST PUSH2 0x3026 DUP5 DUP5 DUP5 DUP5 PUSH2 0x3247 JUMP JUMPDEST PUSH2 0x3065 JUMPI PUSH1 0x40 MLOAD PUSH32 0x8C379A000000000000000000000000000000000000000000000000000000000 DUP2 MSTORE PUSH1 0x4 ADD PUSH2 0x305C SWAP1 PUSH2 0x46E8 JUMP JUMPDEST PUSH1 0x40 MLOAD DUP1 SWAP2 SUB SWAP1 REVERT JUMPDEST POP POP POP POP JUMP JUMPDEST PUSH1 0x60 PUSH1 0x10 DUP1 SLOAD PUSH2 0x307A SWAP1 PUSH2 0x4D71 JUMP JUMPDEST DUP1 PUSH1 0x1F ADD PUSH1 0x20 DUP1 SWAP2 DIV MUL PUSH1 0x20 ADD PUSH1 0x40 MLOAD SWAP1 DUP2 ADD PUSH1 0x40 MSTORE DUP1 SWAP3 SWAP2 SWAP1 DUP2 DUP2 MSTORE PUSH1 0x20 ADD DUP3 DUP1 SLOAD PUSH2 0x30A6 SWAP1 PUSH2 0x4D71 JUMP JUMPDEST DUP1 ISZERO PUSH2 0x30F3 JUMPI DUP1 PUSH1 0x1F LT PUSH2 0x30C8 JUMPI PUSH2 0x100 DUP1 DUP4 SLOAD DIV MUL DUP4 MSTORE SWAP2 PUSH1 0x20 ADD SWAP2 PUSH2 0x30F3 JUMP JUMPDEST DUP3 ADD SWAP2 SWAP1 PUSH1 0x0 MSTORE PUSH1 0x20 PUSH1 0x0 KECCAK256 SWAP1 JUMPDEST DUP2 SLOAD DUP2 MSTORE SWAP1 PUSH1 0x1 ADD SWAP1 PUSH1 0x20 ADD DUP1 DUP4 GT PUSH2 0x30D6 JUMPI DUP3 SWAP1 SUB PUSH1 0x1F AND DUP3 ADD SWAP2 JUMPDEST POP POP POP POP POP SWAP1 POP SWAP1 JUMP JUMPDEST PUSH1 0x60 PUSH2 0x3108 DUP3 PUSH2 0x28D4 JUMP JUMPDEST PUSH2 0x3147 JUMPI PUSH1 0x40 MLOAD PUSH32 0x8C379A000000000000000000000000000000000000000000000000000000000 DUP2 MSTORE PUSH1 0x4 ADD PUSH2 0x313E SWAP1 PUSH2 0x48E8 JUMP JUMPDEST PUSH1 0x40 MLOAD DUP1 SWAP2 SUB SWAP1 REVERT JUMPDEST PUSH1 0x0 PUSH2 0x3151 PUSH2 0x306B JUMP JUMPDEST SWAP1 POP PUSH1 0x0 DUP2 MLOAD GT PUSH2 0x3171 JUMPI PUSH1 0x40 MLOAD DUP1 PUSH1 0x20 ADD PUSH1 0x40 MSTORE DUP1 PUSH1 0x0 DUP2 MSTORE POP PUSH2 0x319C JUMP JUMPDEST DUP1 PUSH2 0x317B DUP5 PUSH2 0x33DE JUMP JUMPDEST PUSH1 0x40 MLOAD PUSH1 0x20 ADD PUSH2 0x318C SWAP3 SWAP2 SWAP1 PUSH2 0x458F JUMP JUMPDEST PUSH1 0x40 MLOAD PUSH1 0x20 DUP2 DUP4 SUB SUB DUP2 MSTORE SWAP1 PUSH1 0x40 MSTORE JUMPDEST SWAP2 POP POP SWAP2 SWAP1 POP JUMP JUMPDEST POP POP POP JUMP JUMPDEST PUSH2 0x31B3 DUP4 DUP4 PUSH2 0x353F JUMP JUMPDEST PUSH2 0x31C0 PUSH1 0x0 DUP5 DUP5 DUP5 PUSH2 0x3247 JUMP JUMPDEST PUSH2 0x31FF JUMPI PUSH1 0x40 MLOAD PUSH32 0x8C379A000000000000000000000000000000000000000000000000000000000 DUP2 MSTORE PUSH1 0x4 ADD PUSH2 0x31F6 SWAP1 PUSH2 0x46E8 JUMP JUMPDEST PUSH1 0x40 MLOAD DUP1 SWAP2 SUB SWAP1 REVERT JUMPDEST POP POP POP JUMP JUMPDEST PUSH1 0x0 DUP1 PUSH1 0x0 PUSH1 0x41 DUP5 MLOAD EQ PUSH2 0x3217 JUMPI PUSH1 0x0 DUP1 REVERT JUMPDEST PUSH1 0x0 DUP1 PUSH1 0x0 PUSH1 0x20 DUP8 ADD MLOAD SWAP3 POP PUSH1 0x40 DUP8 ADD MLOAD SWAP2 POP PUSH1 0x60 DUP8 ADD MLOAD PUSH1 0x0 BYTE SWAP1 POP DUP1 DUP4 DUP4 SWAP6 POP SWAP6 POP SWAP6 POP POP POP POP SWAP2 SWAP4 SWAP1 SWAP3 POP JUMP JUMPDEST PUSH1 0x0 PUSH2 0x3268 DUP5 PUSH20 0xFFFFFFFFFFFFFFFFFFFFFFFFFFFFFFFFFFFFFFFF AND PUSH2 0x370D JUMP JUMPDEST ISZERO PUSH2 0x33D1 JUMPI DUP4 PUSH20 0xFFFFFFFFFFFFFFFFFFFFFFFFFFFFFFFFFFFFFFFF AND PUSH4 0x150B7A02 PUSH2 0x3291 PUSH2 0x2940 JUMP JUMPDEST DUP8 DUP7 DUP7 PUSH1 0x40 MLOAD DUP6 PUSH4 0xFFFFFFFF AND PUSH1 0xE0 SHL DUP2 MSTORE PUSH1 0x4 ADD PUSH2 0x32B3 SWAP5 SWAP4 SWAP3 SWAP2 SWAP1 PUSH2 0x45CE JUMP JUMPDEST PUSH1 0x20 PUSH1 0x40 MLOAD DUP1 DUP4 SUB DUP2 PUSH1 0x0 DUP8 DUP1 EXTCODESIZE ISZERO DUP1 ISZERO PUSH2 0x32CD JUMPI PUSH1 0x0 DUP1 REVERT JUMPDEST POP GAS CALL SWAP3 POP POP POP DUP1 ISZERO PUSH2 0x32FE JUMPI POP PUSH1 0x40 MLOAD RETURNDATASIZE PUSH1 0x1F NOT PUSH1 0x1F DUP3 ADD AND DUP3 ADD DUP1 PUSH1 0x40 MSTORE POP DUP2 ADD SWAP1 PUSH2 0x32FB SWAP2 SWAP1 PUSH2 0x3F17 JUMP JUMPDEST PUSH1 0x1 JUMPDEST PUSH2 0x3381 JUMPI RETURNDATASIZE DUP1 PUSH1 0x0 DUP2 EQ PUSH2 0x332E JUMPI PUSH1 0x40 MLOAD SWAP2 POP PUSH1 0x1F NOT PUSH1 0x3F RETURNDATASIZE ADD AND DUP3 ADD PUSH1 0x40 MSTORE RETURNDATASIZE DUP3 MSTORE RETURNDATASIZE PUSH1 0x0 PUSH1 0x20 DUP5 ADD RETURNDATACOPY PUSH2 0x3333 JUMP JUMPDEST PUSH1 0x60 SWAP2 POP JUMPDEST POP PUSH1 0x0 DUP2 MLOAD EQ ISZERO PUSH2 0x3379 JUMPI PUSH1 0x40 MLOAD PUSH32 0x8C379A000000000000000000000000000000000000000000000000000000000 DUP2 MSTORE PUSH1 0x4 ADD PUSH2 0x3370 SWAP1 PUSH2 0x46E8 JUMP JUMPDEST PUSH1 0x40 MLOAD DUP1 SWAP2 SUB SWAP1 REVERT JUMPDEST DUP1 MLOAD DUP2 PUSH1 0x20 ADD REVERT JUMPDEST PUSH4 0x150B7A02 PUSH1 0xE0 SHL PUSH28 0xFFFFFFFFFFFFFFFFFFFFFFFFFFFFFFFFFFFFFFFFFFFFFFFFFFFFFFFF NOT AND DUP2 PUSH28 0xFFFFFFFFFFFFFFFFFFFFFFFFFFFFFFFFFFFFFFFFFFFFFFFFFFFFFFFF NOT AND EQ SWAP2 POP POP PUSH2 0x33D6 JUMP JUMPDEST PUSH1 0x1 SWAP1 POP JUMPDEST SWAP5 SWAP4 POP POP POP POP JUMP JUMPDEST PUSH1 0x60 PUSH1 0x0 DUP3 EQ ISZERO PUSH2 0x3426 JUMPI PUSH1 0x40 MLOAD DUP1 PUSH1 0x40 ADD PUSH1 0x40 MSTORE DUP1 PUSH1 0x1 DUP2 MSTORE PUSH1 0x20 ADD PUSH32 0x3000000000000000000000000000000000000000000000000000000000000000 DUP2 MSTORE POP SWAP1 POP PUSH2 0x353A JUMP JUMPDEST PUSH1 0x0 DUP3 SWAP1 POP PUSH1 0x0 JUMPDEST PUSH1 0x0 DUP3 EQ PUSH2 0x3458 JUMPI DUP1 DUP1 PUSH2 0x3441 SWAP1 PUSH2 0x4DD4 JUMP JUMPDEST SWAP2 POP POP PUSH1 0xA DUP3 PUSH2 0x3451 SWAP2 SWAP1 PUSH2 0x4C3F JUMP JUMPDEST SWAP2 POP PUSH2 0x342E JUMP JUMPDEST PUSH1 0x0 DUP2 PUSH8 0xFFFFFFFFFFFFFFFF DUP2 GT ISZERO PUSH2 0x3474 JUMPI PUSH2 0x3473 PUSH2 0x4F0A JUMP JUMPDEST JUMPDEST PUSH1 0x40 MLOAD SWAP1 DUP1 DUP3 MSTORE DUP1 PUSH1 0x1F ADD PUSH1 0x1F NOT AND PUSH1 0x20 ADD DUP3 ADD PUSH1 0x40 MSTORE DUP1 ISZERO PUSH2 0x34A6 JUMPI DUP2 PUSH1 0x20 ADD PUSH1 0x1 DUP3 MUL DUP1 CALLDATASIZE DUP4 CALLDATACOPY DUP1 DUP3 ADD SWAP2 POP POP SWAP1 POP JUMPDEST POP SWAP1 POP JUMPDEST PUSH1 0x0 DUP6 EQ PUSH2 0x3533 JUMPI PUSH1 0x1 DUP3 PUSH2 0x34BF SWAP2 SWAP1 PUSH2 0x4C70 JUMP JUMPDEST SWAP2 POP PUSH1 0xA DUP6 PUSH2 0x34CE SWAP2 SWAP1 PUSH2 0x4E1D JUMP JUMPDEST PUSH1 0x30 PUSH2 0x34DA SWAP2 SWAP1 PUSH2 0x4BE9 JUMP JUMPDEST PUSH1 0xF8 SHL DUP2 DUP4 DUP2 MLOAD DUP2 LT PUSH2 0x34F0 JUMPI PUSH2 0x34EF PUSH2 0x4EDB JUMP JUMPDEST JUMPDEST PUSH1 0x20 ADD ADD SWAP1 PUSH31 0xFFFFFFFFFFFFFFFFFFFFFFFFFFFFFFFFFFFFFFFFFFFFFFFFFFFFFFFFFFFFFF NOT AND SWAP1 DUP2 PUSH1 0x0 BYTE SWAP1 MSTORE8 POP PUSH1 0xA DUP6 PUSH2 0x352C SWAP2 SWAP1 PUSH2 0x4C3F JUMP JUMPDEST SWAP5 POP PUSH2 0x34AA JUMP JUMPDEST DUP1 SWAP4 POP POP POP POP JUMPDEST SWAP2 SWAP1 POP JUMP JUMPDEST PUSH1 0x0 PUSH20 0xFFFFFFFFFFFFFFFFFFFFFFFFFFFFFFFFFFFFFFFF AND DUP3 PUSH20 0xFFFFFFFFFFFFFFFFFFFFFFFFFFFFFFFFFFFFFFFF AND EQ ISZERO PUSH2 0x35AF JUMPI PUSH1 0x40 MLOAD PUSH32 0x8C379A000000000000000000000000000000000000000000000000000000000 DUP2 MSTORE PUSH1 0x4 ADD PUSH2 0x35A6 SWAP1 PUSH2 0x4828 JUMP JUMPDEST PUSH1 0x40 MLOAD DUP1 SWAP2 SUB SWAP1 REVERT JUMPDEST PUSH2 0x35B8 DUP2 PUSH2 0x28D4 JUMP JUMPDEST ISZERO PUSH2 0x35F8 JUMPI PUSH1 0x40 MLOAD PUSH32 0x8C379A000000000000000000000000000000000000000000000000000000000 DUP2 MSTORE PUSH1 0x4 ADD PUSH2 0x35EF SWAP1 PUSH2 0x4748 JUMP JUMPDEST PUSH1 0x40 MLOAD DUP1 SWAP2 SUB SWAP1 REVERT JUMPDEST PUSH2 0x3604 PUSH1 0x0 DUP4 DUP4 PUSH2 0x31A4 JUMP JUMPDEST PUSH1 0x1 PUSH1 0x3 PUSH1 0x0 DUP5 PUSH20 0xFFFFFFFFFFFFFFFFFFFFFFFFFFFFFFFFFFFFFFFF AND PUSH20 0xFFFFFFFFFFFFFFFFFFFFFFFFFFFFFFFFFFFFFFFF AND DUP2 MSTORE PUSH1 0x20 ADD SWAP1 DUP2 MSTORE PUSH1 0x20 ADD PUSH1 0x0 KECCAK256 PUSH1 0x0 DUP3 DUP3 SLOAD PUSH2 0x3654 SWAP2 SWAP1 PUSH2 0x4BE9 JUMP JUMPDEST SWAP3 POP POP DUP2 SWAP1 SSTORE POP DUP2 PUSH1 0x2 PUSH1 0x0 DUP4 DUP2 MSTORE PUSH1 0x20 ADD SWAP1 DUP2 MSTORE PUSH1 0x20 ADD PUSH1 0x0 KECCAK256 PUSH1 0x0 PUSH2 0x100 EXP DUP2 SLOAD DUP2 PUSH20 0xFFFFFFFFFFFFFFFFFFFFFFFFFFFFFFFFFFFFFFFF MUL NOT AND SWAP1 DUP4 PUSH20 0xFFFFFFFFFFFFFFFFFFFFFFFFFFFFFFFFFFFFFFFF AND MUL OR SWAP1 SSTORE POP DUP1 DUP3 PUSH20 0xFFFFFFFFFFFFFFFFFFFFFFFFFFFFFFFFFFFFFFFF AND PUSH1 0x0 PUSH20 0xFFFFFFFFFFFFFFFFFFFFFFFFFFFFFFFFFFFFFFFF AND PUSH32 0xDDF252AD1BE2C89B69C2B068FC378DAA952BA7F163C4A11628F55A4DF523B3EF PUSH1 0x40 MLOAD PUSH1 0x40 MLOAD DUP1 SWAP2 SUB SWAP1 LOG4 POP POP JUMP JUMPDEST PUSH1 0x0 DUP1 DUP3 EXTCODESIZE SWAP1 POP PUSH1 0x0 DUP2 GT SWAP2 POP POP SWAP2 SWAP1 POP JUMP JUMPDEST DUP3 DUP1 SLOAD PUSH2 0x372C SWAP1 PUSH2 0x4D71 JUMP JUMPDEST SWAP1 PUSH1 0x0 MSTORE PUSH1 0x20 PUSH1 0x0 KECCAK256 SWAP1 PUSH1 0x1F ADD PUSH1 0x20 SWAP1 DIV DUP2 ADD SWAP3 DUP3 PUSH2 0x374E JUMPI PUSH1 0x0 DUP6 SSTORE PUSH2 0x3795 JUMP JUMPDEST DUP3 PUSH1 0x1F LT PUSH2 0x3767 JUMPI DUP1 MLOAD PUSH1 0xFF NOT AND DUP4 DUP1 ADD OR DUP6 SSTORE PUSH2 0x3795 JUMP JUMPDEST DUP3 DUP1 ADD PUSH1 0x1 ADD DUP6 SSTORE DUP3 ISZERO PUSH2 0x3795 JUMPI SWAP2 DUP3 ADD JUMPDEST DUP3 DUP2 GT ISZERO PUSH2 0x3794 JUMPI DUP3 MLOAD DUP3 SSTORE SWAP2 PUSH1 0x20 ADD SWAP2 SWAP1 PUSH1 0x1 ADD SWAP1 PUSH2 0x3779 JUMP JUMPDEST JUMPDEST POP SWAP1 POP PUSH2 0x37A2 SWAP2 SWAP1 PUSH2 0x37DD JUMP JUMPDEST POP SWAP1 JUMP JUMPDEST PUSH1 0x40 MLOAD DUP1 PUSH1 0x60 ADD PUSH1 0x40 MSTORE DUP1 PUSH1 0x0 DUP2 MSTORE PUSH1 0x20 ADD PUSH1 0x0 PUSH20 0xFFFFFFFFFFFFFFFFFFFFFFFFFFFFFFFFFFFFFFFF AND DUP2 MSTORE PUSH1 0x20 ADD PUSH1 0x0 DUP2 MSTORE POP SWAP1 JUMP JUMPDEST JUMPDEST DUP1 DUP3 GT ISZERO PUSH2 0x37F6 JUMPI PUSH1 0x0 DUP2 PUSH1 0x0 SWAP1 SSTORE POP PUSH1 0x1 ADD PUSH2 0x37DE JUMP JUMPDEST POP SWAP1 JUMP JUMPDEST PUSH1 0x0 PUSH2 0x380D PUSH2 0x3808 DUP5 PUSH2 0x4A7A JUMP JUMPDEST PUSH2 0x4A55 JUMP JUMPDEST SWAP1 POP DUP1 DUP4 DUP3 MSTORE PUSH1 0x20 DUP3 ADD SWAP1 POP DUP3 DUP6 PUSH1 0x20 DUP7 MUL DUP3 ADD GT ISZERO PUSH2 0x3830 JUMPI PUSH2 0x382F PUSH2 0x4F3E JUMP JUMPDEST JUMPDEST PUSH1 0x0 JUMPDEST DUP6 DUP2 LT ISZERO PUSH2 0x3860 JUMPI DUP2 PUSH2 0x3846 DUP9 DUP3 PUSH2 0x395E JUMP JUMPDEST DUP5 MSTORE PUSH1 0x20 DUP5 ADD SWAP4 POP PUSH1 0x20 DUP4 ADD SWAP3 POP POP PUSH1 0x1 DUP2 ADD SWAP1 POP PUSH2 0x3833 JUMP JUMPDEST POP POP POP SWAP4 SWAP3 POP POP POP JUMP JUMPDEST PUSH1 0x0 PUSH2 0x387D PUSH2 0x3878 DUP5 PUSH2 0x4AA6 JUMP JUMPDEST PUSH2 0x4A55 JUMP JUMPDEST SWAP1 POP DUP1 DUP4 DUP3 MSTORE PUSH1 0x20 DUP3 ADD SWAP1 POP DUP3 DUP6 PUSH1 0x20 DUP7 MUL DUP3 ADD GT ISZERO PUSH2 0x38A0 JUMPI PUSH2 0x389F PUSH2 0x4F3E JUMP JUMPDEST JUMPDEST PUSH1 0x0 JUMPDEST DUP6 DUP2 LT ISZERO PUSH2 0x38D0 JUMPI DUP2 PUSH2 0x38B6 DUP9 DUP3 PUSH2 0x3A7F JUMP JUMPDEST DUP5 MSTORE PUSH1 0x20 DUP5 ADD SWAP4 POP PUSH1 0x20 DUP4 ADD SWAP3 POP POP PUSH1 0x1 DUP2 ADD SWAP1 POP PUSH2 0x38A3 JUMP JUMPDEST POP POP POP SWAP4 SWAP3 POP POP POP JUMP JUMPDEST PUSH1 0x0 PUSH2 0x38ED PUSH2 0x38E8 DUP5 PUSH2 0x4AD2 JUMP JUMPDEST PUSH2 0x4A55 JUMP JUMPDEST SWAP1 POP DUP3 DUP2 MSTORE PUSH1 0x20 DUP2 ADD DUP5 DUP5 DUP5 ADD GT ISZERO PUSH2 0x3909 JUMPI PUSH2 0x3908 PUSH2 0x4F43 JUMP JUMPDEST JUMPDEST PUSH2 0x3914 DUP5 DUP3 DUP6 PUSH2 0x4D2F JUMP JUMPDEST POP SWAP4 SWAP3 POP POP POP JUMP JUMPDEST PUSH1 0x0 PUSH2 0x392F PUSH2 0x392A DUP5 PUSH2 0x4B03 JUMP JUMPDEST PUSH2 0x4A55 JUMP JUMPDEST SWAP1 POP DUP3 DUP2 MSTORE PUSH1 0x20 DUP2 ADD DUP5 DUP5 DUP5 ADD GT ISZERO PUSH2 0x394B JUMPI PUSH2 0x394A PUSH2 0x4F43 JUMP JUMPDEST JUMPDEST PUSH2 0x3956 DUP5 DUP3 DUP6 PUSH2 0x4D2F JUMP JUMPDEST POP SWAP4 SWAP3 POP POP POP JUMP JUMPDEST PUSH1 0x0 DUP2 CALLDATALOAD SWAP1 POP PUSH2 0x396D DUP2 PUSH2 0x55C1 JUMP JUMPDEST SWAP3 SWAP2 POP POP JUMP JUMPDEST PUSH1 0x0 DUP3 PUSH1 0x1F DUP4 ADD SLT PUSH2 0x3988 JUMPI PUSH2 0x3987 PUSH2 0x4F39 JUMP JUMPDEST JUMPDEST DUP2 CALLDATALOAD PUSH2 0x3998 DUP5 DUP3 PUSH1 0x20 DUP7 ADD PUSH2 0x37FA JUMP JUMPDEST SWAP2 POP POP SWAP3 SWAP2 POP POP JUMP JUMPDEST PUSH1 0x0 DUP3 PUSH1 0x1F DUP4 ADD SLT PUSH2 0x39B6 JUMPI PUSH2 0x39B5 PUSH2 0x4F39 JUMP JUMPDEST JUMPDEST DUP2 CALLDATALOAD PUSH2 0x39C6 DUP5 DUP3 PUSH1 0x20 DUP7 ADD PUSH2 0x386A JUMP JUMPDEST SWAP2 POP POP SWAP3 SWAP2 POP POP JUMP JUMPDEST PUSH1 0x0 DUP2 CALLDATALOAD SWAP1 POP PUSH2 0x39DE DUP2 PUSH2 0x55D8 JUMP JUMPDEST SWAP3 SWAP2 POP POP JUMP JUMPDEST PUSH1 0x0 DUP2 CALLDATALOAD SWAP1 POP PUSH2 0x39F3 DUP2 PUSH2 0x55EF JUMP JUMPDEST SWAP3 SWAP2 POP POP JUMP JUMPDEST PUSH1 0x0 DUP2 CALLDATALOAD SWAP1 POP PUSH2 0x3A08 DUP2 PUSH2 0x5606 JUMP JUMPDEST SWAP3 SWAP2 POP POP JUMP JUMPDEST PUSH1 0x0 DUP2 MLOAD SWAP1 POP PUSH2 0x3A1D DUP2 PUSH2 0x5606 JUMP JUMPDEST SWAP3 SWAP2 POP POP JUMP JUMPDEST PUSH1 0x0 DUP3 PUSH1 0x1F DUP4 ADD SLT PUSH2 0x3A38 JUMPI PUSH2 0x3A37 PUSH2 0x4F39 JUMP JUMPDEST JUMPDEST DUP2 CALLDATALOAD PUSH2 0x3A48 DUP5 DUP3 PUSH1 0x20 DUP7 ADD PUSH2 0x38DA JUMP JUMPDEST SWAP2 POP POP SWAP3 SWAP2 POP POP JUMP JUMPDEST PUSH1 0x0 DUP3 PUSH1 0x1F DUP4 ADD SLT PUSH2 0x3A66 JUMPI PUSH2 0x3A65 PUSH2 0x4F39 JUMP JUMPDEST JUMPDEST DUP2 CALLDATALOAD PUSH2 0x3A76 DUP5 DUP3 PUSH1 0x20 DUP7 ADD PUSH2 0x391C JUMP JUMPDEST SWAP2 POP POP SWAP3 SWAP2 POP POP JUMP JUMPDEST PUSH1 0x0 DUP2 CALLDATALOAD SWAP1 POP PUSH2 0x3A8E DUP2 PUSH2 0x561D JUMP JUMPDEST SWAP3 SWAP2 POP POP JUMP JUMPDEST PUSH1 0x0 PUSH1 0x20 DUP3 DUP5 SUB SLT ISZERO PUSH2 0x3AAA JUMPI PUSH2 0x3AA9 PUSH2 0x4F4D JUMP JUMPDEST JUMPDEST PUSH1 0x0 PUSH2 0x3AB8 DUP5 DUP3 DUP6 ADD PUSH2 0x395E JUMP JUMPDEST SWAP2 POP POP SWAP3 SWAP2 POP POP JUMP JUMPDEST PUSH1 0x0 DUP1 PUSH1 0x40 DUP4 DUP6 SUB SLT ISZERO PUSH2 0x3AD8 JUMPI PUSH2 0x3AD7 PUSH2 0x4F4D JUMP JUMPDEST JUMPDEST PUSH1 0x0 PUSH2 0x3AE6 DUP6 DUP3 DUP7 ADD PUSH2 0x395E JUMP JUMPDEST SWAP3 POP POP PUSH1 0x20 PUSH2 0x3AF7 DUP6 DUP3 DUP7 ADD PUSH2 0x395E JUMP JUMPDEST SWAP2 POP POP SWAP3 POP SWAP3 SWAP1 POP JUMP JUMPDEST PUSH1 0x0 DUP1 PUSH1 0x0 PUSH1 0x60 DUP5 DUP7 SUB SLT ISZERO PUSH2 0x3B1A JUMPI PUSH2 0x3B19 PUSH2 0x4F4D JUMP JUMPDEST JUMPDEST PUSH1 0x0 PUSH2 0x3B28 DUP7 DUP3 DUP8 ADD PUSH2 0x395E JUMP JUMPDEST SWAP4 POP POP PUSH1 0x20 PUSH2 0x3B39 DUP7 DUP3 DUP8 ADD PUSH2 0x395E JUMP JUMPDEST SWAP3 POP POP PUSH1 0x40 PUSH2 0x3B4A DUP7 DUP3 DUP8 ADD PUSH2 0x3A7F JUMP JUMPDEST SWAP2 POP POP SWAP3 POP SWAP3 POP SWAP3 JUMP JUMPDEST PUSH1 0x0 DUP1 PUSH1 0x0 DUP1 PUSH1 0x80 DUP6 DUP8 SUB SLT ISZERO PUSH2 0x3B6E JUMPI PUSH2 0x3B6D PUSH2 0x4F4D JUMP JUMPDEST JUMPDEST PUSH1 0x0 PUSH2 0x3B7C DUP8 DUP3 DUP9 ADD PUSH2 0x395E JUMP JUMPDEST SWAP5 POP POP PUSH1 0x20 PUSH2 0x3B8D DUP8 DUP3 DUP9 ADD PUSH2 0x395E JUMP JUMPDEST SWAP4 POP POP PUSH1 0x40 PUSH2 0x3B9E DUP8 DUP3 DUP9 ADD PUSH2 0x3A7F JUMP JUMPDEST SWAP3 POP POP PUSH1 0x60 DUP6 ADD CALLDATALOAD PUSH8 0xFFFFFFFFFFFFFFFF DUP2 GT ISZERO PUSH2 0x3BBF JUMPI PUSH2 0x3BBE PUSH2 0x4F48 JUMP JUMPDEST JUMPDEST PUSH2 0x3BCB DUP8 DUP3 DUP9 ADD PUSH2 0x3A23 JUMP JUMPDEST SWAP2 POP POP SWAP3 SWAP6 SWAP2 SWAP5 POP SWAP3 POP JUMP JUMPDEST PUSH1 0x0 DUP1 PUSH1 0x40 DUP4 DUP6 SUB SLT ISZERO PUSH2 0x3BEE JUMPI PUSH2 0x3BED PUSH2 0x4F4D JUMP JUMPDEST JUMPDEST PUSH1 0x0 PUSH2 0x3BFC DUP6 DUP3 DUP7 ADD PUSH2 0x395E JUMP JUMPDEST SWAP3 POP POP PUSH1 0x20 PUSH2 0x3C0D DUP6 DUP3 DUP7 ADD PUSH2 0x39CF JUMP JUMPDEST SWAP2 POP POP SWAP3 POP SWAP3 SWAP1 POP JUMP JUMPDEST PUSH1 0x0 DUP1 PUSH1 0x40 DUP4 DUP6 SUB SLT ISZERO PUSH2 0x3C2E JUMPI PUSH2 0x3C2D PUSH2 0x4F4D JUMP JUMPDEST JUMPDEST PUSH1 0x0 PUSH2 0x3C3C DUP6 DUP3 DUP7 ADD PUSH2 0x395E JUMP JUMPDEST SWAP3 POP POP PUSH1 0x20 PUSH2 0x3C4D DUP6 DUP3 DUP7 ADD PUSH2 0x3A7F JUMP JUMPDEST SWAP2 POP POP SWAP3 POP SWAP3 SWAP1 POP JUMP JUMPDEST PUSH1 0x0 DUP1 PUSH1 0x0 DUP1 PUSH1 0x80 DUP6 DUP8 SUB SLT ISZERO PUSH2 0x3C71 JUMPI PUSH2 0x3C70 PUSH2 0x4F4D JUMP JUMPDEST JUMPDEST PUSH1 0x0 PUSH2 0x3C7F DUP8 DUP3 DUP9 ADD PUSH2 0x395E JUMP JUMPDEST SWAP5 POP POP PUSH1 0x20 PUSH2 0x3C90 DUP8 DUP3 DUP9 ADD PUSH2 0x3A7F JUMP JUMPDEST SWAP4 POP POP PUSH1 0x40 PUSH2 0x3CA1 DUP8 DUP3 DUP9 ADD PUSH2 0x395E JUMP JUMPDEST SWAP3 POP POP PUSH1 0x60 PUSH2 0x3CB2 DUP8 DUP3 DUP9 ADD PUSH2 0x3A7F JUMP JUMPDEST SWAP2 POP POP SWAP3 SWAP6 SWAP2 SWAP5 POP SWAP3 POP JUMP JUMPDEST PUSH1 0x0 PUSH1 0x20 DUP3 DUP5 SUB SLT ISZERO PUSH2 0x3CD4 JUMPI PUSH2 0x3CD3 PUSH2 0x4F4D JUMP JUMPDEST JUMPDEST PUSH1 0x0 DUP3 ADD CALLDATALOAD PUSH8 0xFFFFFFFFFFFFFFFF DUP2 GT ISZERO PUSH2 0x3CF2 JUMPI PUSH2 0x3CF1 PUSH2 0x4F48 JUMP JUMPDEST JUMPDEST PUSH2 0x3CFE DUP5 DUP3 DUP6 ADD PUSH2 0x3973 JUMP JUMPDEST SWAP2 POP POP SWAP3 SWAP2 POP POP JUMP JUMPDEST PUSH1 0x0 PUSH1 0x20 DUP3 DUP5 SUB SLT ISZERO PUSH2 0x3D1D JUMPI PUSH2 0x3D1C PUSH2 0x4F4D JUMP JUMPDEST JUMPDEST PUSH1 0x0 DUP3 ADD CALLDATALOAD PUSH8 0xFFFFFFFFFFFFFFFF DUP2 GT ISZERO PUSH2 0x3D3B JUMPI PUSH2 0x3D3A PUSH2 0x4F48 JUMP JUMPDEST JUMPDEST PUSH2 0x3D47 DUP5 DUP3 DUP6 ADD PUSH2 0x39A1 JUMP JUMPDEST SWAP2 POP POP SWAP3 SWAP2 POP POP JUMP JUMPDEST PUSH1 0x0 DUP1 PUSH1 0x0 PUSH1 0x60 DUP5 DUP7 SUB SLT ISZERO PUSH2 0x3D69 JUMPI PUSH2 0x3D68 PUSH2 0x4F4D JUMP JUMPDEST JUMPDEST PUSH1 0x0 DUP5 ADD CALLDATALOAD PUSH8 0xFFFFFFFFFFFFFFFF DUP2 GT ISZERO PUSH2 0x3D87 JUMPI PUSH2 0x3D86 PUSH2 0x4F48 JUMP JUMPDEST JUMPDEST PUSH2 0x3D93 DUP7 DUP3 DUP8 ADD PUSH2 0x39A1 JUMP JUMPDEST SWAP4 POP POP PUSH1 0x20 DUP5 ADD CALLDATALOAD PUSH8 0xFFFFFFFFFFFFFFFF DUP2 GT ISZERO PUSH2 0x3DB4 JUMPI PUSH2 0x3DB3 PUSH2 0x4F48 JUMP JUMPDEST JUMPDEST PUSH2 0x3DC0 DUP7 DUP3 DUP8 ADD PUSH2 0x3973 JUMP JUMPDEST SWAP3 POP POP PUSH1 0x40 DUP5 ADD CALLDATALOAD PUSH8 0xFFFFFFFFFFFFFFFF DUP2 GT ISZERO PUSH2 0x3DE1 JUMPI PUSH2 0x3DE0 PUSH2 0x4F48 JUMP JUMPDEST JUMPDEST PUSH2 0x3DED DUP7 DUP3 DUP8 ADD PUSH2 0x39A1 JUMP JUMPDEST SWAP2 POP POP SWAP3 POP SWAP3 POP SWAP3 JUMP JUMPDEST PUSH1 0x0 DUP1 PUSH1 0x40 DUP4 DUP6 SUB SLT ISZERO PUSH2 0x3E0E JUMPI PUSH2 0x3E0D PUSH2 0x4F4D JUMP JUMPDEST JUMPDEST PUSH1 0x0 PUSH2 0x3E1C DUP6 DUP3 DUP7 ADD PUSH2 0x39E4 JUMP JUMPDEST SWAP3 POP POP PUSH1 0x20 DUP4 ADD CALLDATALOAD PUSH8 0xFFFFFFFFFFFFFFFF DUP2 GT ISZERO PUSH2 0x3E3D JUMPI PUSH2 0x3E3C PUSH2 0x4F48 JUMP JUMPDEST JUMPDEST PUSH2 0x3E49 DUP6 DUP3 DUP7 ADD PUSH2 0x3A23 JUMP JUMPDEST SWAP2 POP POP SWAP3 POP SWAP3 SWAP1 POP JUMP JUMPDEST PUSH1 0x0 DUP1 PUSH1 0x0 DUP1 PUSH1 0x0 PUSH1 0xA0 DUP7 DUP9 SUB SLT ISZERO PUSH2 0x3E6F JUMPI PUSH2 0x3E6E PUSH2 0x4F4D JUMP JUMPDEST JUMPDEST PUSH1 0x0 PUSH2 0x3E7D DUP9 DUP3 DUP10 ADD PUSH2 0x39E4 JUMP JUMPDEST SWAP6 POP POP PUSH1 0x20 DUP7 ADD CALLDATALOAD PUSH8 0xFFFFFFFFFFFFFFFF DUP2 GT ISZERO PUSH2 0x3E9E JUMPI PUSH2 0x3E9D PUSH2 0x4F48 JUMP JUMPDEST JUMPDEST PUSH2 0x3EAA DUP9 DUP3 DUP10 ADD PUSH2 0x3A23 JUMP JUMPDEST SWAP5 POP POP PUSH1 0x40 PUSH2 0x3EBB DUP9 DUP3 DUP10 ADD PUSH2 0x3A7F JUMP JUMPDEST SWAP4 POP POP PUSH1 0x60 PUSH2 0x3ECC DUP9 DUP3 DUP10 ADD PUSH2 0x395E JUMP JUMPDEST SWAP3 POP POP PUSH1 0x80 PUSH2 0x3EDD DUP9 DUP3 DUP10 ADD PUSH2 0x3A7F JUMP JUMPDEST SWAP2 POP POP SWAP3 SWAP6 POP SWAP3 SWAP6 SWAP1 SWAP4 POP JUMP JUMPDEST PUSH1 0x0 PUSH1 0x20 DUP3 DUP5 SUB SLT ISZERO PUSH2 0x3F00 JUMPI PUSH2 0x3EFF PUSH2 0x4F4D JUMP JUMPDEST JUMPDEST PUSH1 0x0 PUSH2 0x3F0E DUP5 DUP3 DUP6 ADD PUSH2 0x39F9 JUMP JUMPDEST SWAP2 POP POP SWAP3 SWAP2 POP POP JUMP JUMPDEST PUSH1 0x0 PUSH1 0x20 DUP3 DUP5 SUB SLT ISZERO PUSH2 0x3F2D JUMPI PUSH2 0x3F2C PUSH2 0x4F4D JUMP JUMPDEST JUMPDEST PUSH1 0x0 PUSH2 0x3F3B DUP5 DUP3 DUP6 ADD PUSH2 0x3A0E JUMP JUMPDEST SWAP2 POP POP SWAP3 SWAP2 POP POP JUMP JUMPDEST PUSH1 0x0 PUSH1 0x20 DUP3 DUP5 SUB SLT ISZERO PUSH2 0x3F5A JUMPI PUSH2 0x3F59 PUSH2 0x4F4D JUMP JUMPDEST JUMPDEST PUSH1 0x0 DUP3 ADD CALLDATALOAD PUSH8 0xFFFFFFFFFFFFFFFF DUP2 GT ISZERO PUSH2 0x3F78 JUMPI PUSH2 0x3F77 PUSH2 0x4F48 JUMP JUMPDEST JUMPDEST PUSH2 0x3F84 DUP5 DUP3 DUP6 ADD PUSH2 0x3A51 JUMP JUMPDEST SWAP2 POP POP SWAP3 SWAP2 POP POP JUMP JUMPDEST PUSH1 0x0 PUSH1 0x20 DUP3 DUP5 SUB SLT ISZERO PUSH2 0x3FA3 JUMPI PUSH2 0x3FA2 PUSH2 0x4F4D JUMP JUMPDEST JUMPDEST PUSH1 0x0 PUSH2 0x3FB1 DUP5 DUP3 DUP6 ADD PUSH2 0x3A7F JUMP JUMPDEST SWAP2 POP POP SWAP3 SWAP2 POP POP JUMP JUMPDEST PUSH1 0x0 DUP1 PUSH1 0x0 PUSH1 0x60 DUP5 DUP7 SUB SLT ISZERO PUSH2 0x3FD3 JUMPI PUSH2 0x3FD2 PUSH2 0x4F4D JUMP JUMPDEST JUMPDEST PUSH1 0x0 PUSH2 0x3FE1 DUP7 DUP3 DUP8 ADD PUSH2 0x3A7F JUMP JUMPDEST SWAP4 POP POP PUSH1 0x20 PUSH2 0x3FF2 DUP7 DUP3 DUP8 ADD PUSH2 0x395E JUMP JUMPDEST SWAP3 POP POP PUSH1 0x40 PUSH2 0x4003 DUP7 DUP3 DUP8 ADD PUSH2 0x3A7F JUMP JUMPDEST SWAP2 POP POP SWAP3 POP SWAP3 POP SWAP3 JUMP JUMPDEST PUSH1 0x0 PUSH2 0x4019 DUP4 DUP4 PUSH2 0x403D JUMP JUMPDEST PUSH1 0x20 DUP4 ADD SWAP1 POP SWAP3 SWAP2 POP POP JUMP JUMPDEST PUSH1 0x0 PUSH2 0x4031 DUP4 DUP4 PUSH2 0x4562 JUMP JUMPDEST PUSH1 0x20 DUP4 ADD SWAP1 POP SWAP3 SWAP2 POP POP JUMP JUMPDEST PUSH2 0x4046 DUP2 PUSH2 0x4CA4 JUMP JUMPDEST DUP3 MSTORE POP POP JUMP JUMPDEST PUSH2 0x4055 DUP2 PUSH2 0x4CA4 JUMP JUMPDEST DUP3 MSTORE POP POP JUMP JUMPDEST PUSH1 0x0 PUSH2 0x4066 DUP3 PUSH2 0x4B54 JUMP JUMPDEST PUSH2 0x4070 DUP2 DUP6 PUSH2 0x4B9A JUMP JUMPDEST SWAP4 POP PUSH2 0x407B DUP4 PUSH2 0x4B34 JUMP JUMPDEST DUP1 PUSH1 0x0 JUMPDEST DUP4 DUP2 LT ISZERO PUSH2 0x40AC JUMPI DUP2 MLOAD PUSH2 0x4093 DUP9 DUP3 PUSH2 0x400D JUMP JUMPDEST SWAP8 POP PUSH2 0x409E DUP4 PUSH2 0x4B80 JUMP JUMPDEST SWAP3 POP POP PUSH1 0x1 DUP2 ADD SWAP1 POP PUSH2 0x407F JUMP JUMPDEST POP DUP6 SWAP4 POP POP POP POP SWAP3 SWAP2 POP POP JUMP JUMPDEST PUSH1 0x0 PUSH2 0x40C4 DUP3 PUSH2 0x4B5F JUMP JUMPDEST PUSH2 0x40CE DUP2 DUP6 PUSH2 0x4BAB JUMP JUMPDEST SWAP4 POP PUSH2 0x40D9 DUP4 PUSH2 0x4B44 JUMP JUMPDEST DUP1 PUSH1 0x0 JUMPDEST DUP4 DUP2 LT ISZERO PUSH2 0x410A JUMPI DUP2 MLOAD PUSH2 0x40F1 DUP9 DUP3 PUSH2 0x4025 JUMP JUMPDEST SWAP8 POP PUSH2 0x40FC DUP4 PUSH2 0x4B8D JUMP JUMPDEST SWAP3 POP POP PUSH1 0x1 DUP2 ADD SWAP1 POP PUSH2 0x40DD JUMP JUMPDEST POP DUP6 SWAP4 POP POP POP POP SWAP3 SWAP2 POP POP JUMP JUMPDEST PUSH2 0x4120 DUP2 PUSH2 0x4CB6 JUMP JUMPDEST DUP3 MSTORE POP POP JUMP JUMPDEST PUSH2 0x412F DUP2 PUSH2 0x4CC2 JUMP JUMPDEST DUP3 MSTORE POP POP JUMP JUMPDEST PUSH1 0x0 PUSH2 0x4140 DUP3 PUSH2 0x4B6A JUMP JUMPDEST PUSH2 0x414A DUP2 DUP6 PUSH2 0x4BBC JUMP JUMPDEST SWAP4 POP PUSH2 0x415A DUP2 DUP6 PUSH1 0x20 DUP7 ADD PUSH2 0x4D3E JUMP JUMPDEST PUSH2 0x4163 DUP2 PUSH2 0x4F52 JUMP JUMPDEST DUP5 ADD SWAP2 POP POP SWAP3 SWAP2 POP POP JUMP JUMPDEST PUSH1 0x0 PUSH2 0x4179 DUP3 PUSH2 0x4B75 JUMP JUMPDEST PUSH2 0x4183 DUP2 DUP6 PUSH2 0x4BCD JUMP JUMPDEST SWAP4 POP PUSH2 0x4193 DUP2 DUP6 PUSH1 0x20 DUP7 ADD PUSH2 0x4D3E JUMP JUMPDEST PUSH2 0x419C DUP2 PUSH2 0x4F52 JUMP JUMPDEST DUP5 ADD SWAP2 POP POP SWAP3 SWAP2 POP POP JUMP JUMPDEST PUSH1 0x0 PUSH2 0x41B2 DUP3 PUSH2 0x4B75 JUMP JUMPDEST PUSH2 0x41BC DUP2 DUP6 PUSH2 0x4BDE JUMP JUMPDEST SWAP4 POP PUSH2 0x41CC DUP2 DUP6 PUSH1 0x20 DUP7 ADD PUSH2 0x4D3E JUMP JUMPDEST DUP1 DUP5 ADD SWAP2 POP POP SWAP3 SWAP2 POP POP JUMP JUMPDEST PUSH1 0x0 PUSH2 0x41E5 PUSH1 0x32 DUP4 PUSH2 0x4BCD JUMP JUMPDEST SWAP2 POP PUSH2 0x41F0 DUP3 PUSH2 0x4F63 JUMP JUMPDEST PUSH1 0x40 DUP3 ADD SWAP1 POP SWAP2 SWAP1 POP JUMP JUMPDEST PUSH1 0x0 PUSH2 0x4208 PUSH1 0x12 DUP4 PUSH2 0x4BCD JUMP JUMPDEST SWAP2 POP PUSH2 0x4213 DUP3 PUSH2 0x4FB2 JUMP JUMPDEST PUSH1 0x20 DUP3 ADD SWAP1 POP SWAP2 SWAP1 POP JUMP JUMPDEST PUSH1 0x0 PUSH2 0x422B PUSH1 0x26 DUP4 PUSH2 0x4BCD JUMP JUMPDEST SWAP2 POP PUSH2 0x4236 DUP3 PUSH2 0x4FDB JUMP JUMPDEST PUSH1 0x40 DUP3 ADD SWAP1 POP SWAP2 SWAP1 POP JUMP JUMPDEST PUSH1 0x0 PUSH2 0x424E PUSH1 0x1C DUP4 PUSH2 0x4BCD JUMP JUMPDEST SWAP2 POP PUSH2 0x4259 DUP3 PUSH2 0x502A JUMP JUMPDEST PUSH1 0x20 DUP3 ADD SWAP1 POP SWAP2 SWAP1 POP JUMP JUMPDEST PUSH1 0x0 PUSH2 0x4271 PUSH1 0x24 DUP4 PUSH2 0x4BCD JUMP JUMPDEST SWAP2 POP PUSH2 0x427C DUP3 PUSH2 0x5053 JUMP JUMPDEST PUSH1 0x40 DUP3 ADD SWAP1 POP SWAP2 SWAP1 POP JUMP JUMPDEST PUSH1 0x0 PUSH2 0x4294 PUSH1 0x19 DUP4 PUSH2 0x4BCD JUMP JUMPDEST SWAP2 POP PUSH2 0x429F DUP3 PUSH2 0x50A2 JUMP JUMPDEST PUSH1 0x20 DUP3 ADD SWAP1 POP SWAP2 SWAP1 POP JUMP JUMPDEST PUSH1 0x0 PUSH2 0x42B7 PUSH1 0x2C DUP4 PUSH2 0x4BCD JUMP JUMPDEST SWAP2 POP PUSH2 0x42C2 DUP3 PUSH2 0x50CB JUMP JUMPDEST PUSH1 0x40 DUP3 ADD SWAP1 POP SWAP2 SWAP1 POP JUMP JUMPDEST PUSH1 0x0 PUSH2 0x42DA PUSH1 0x38 DUP4 PUSH2 0x4BCD JUMP JUMPDEST SWAP2 POP PUSH2 0x42E5 DUP3 PUSH2 0x511A JUMP JUMPDEST PUSH1 0x40 DUP3 ADD SWAP1 POP SWAP2 SWAP1 POP JUMP JUMPDEST PUSH1 0x0 PUSH2 0x42FD PUSH1 0x2A DUP4 PUSH2 0x4BCD JUMP JUMPDEST SWAP2 POP PUSH2 0x4308 DUP3 PUSH2 0x5169 JUMP JUMPDEST PUSH1 0x40 DUP3 ADD SWAP1 POP SWAP2 SWAP1 POP JUMP JUMPDEST PUSH1 0x0 PUSH2 0x4320 PUSH1 0x29 DUP4 PUSH2 0x4BCD JUMP JUMPDEST SWAP2 POP PUSH2 0x432B DUP3 PUSH2 0x51B8 JUMP JUMPDEST PUSH1 0x40 DUP3 ADD SWAP1 POP SWAP2 SWAP1 POP JUMP JUMPDEST PUSH1 0x0 PUSH2 0x4343 PUSH1 0x20 DUP4 PUSH2 0x4BCD JUMP JUMPDEST SWAP2 POP PUSH2 0x434E DUP3 PUSH2 0x5207 JUMP JUMPDEST PUSH1 0x20 DUP3 ADD SWAP1 POP SWAP2 SWAP1 POP JUMP JUMPDEST PUSH1 0x0 PUSH2 0x4366 PUSH1 0x31 DUP4 PUSH2 0x4BCD JUMP JUMPDEST SWAP2 POP PUSH2 0x4371 DUP3 PUSH2 0x5230 JUMP JUMPDEST PUSH1 0x40 DUP3 ADD SWAP1 POP SWAP2 SWAP1 POP JUMP JUMPDEST PUSH1 0x0 PUSH2 0x4389 PUSH1 0x20 DUP4 PUSH2 0x4BCD JUMP JUMPDEST SWAP2 POP PUSH2 0x4394 DUP3 PUSH2 0x527F JUMP JUMPDEST PUSH1 0x20 DUP3 ADD SWAP1 POP SWAP2 SWAP1 POP JUMP JUMPDEST PUSH1 0x0 PUSH2 0x43AC PUSH1 0x2C DUP4 PUSH2 0x4BCD JUMP JUMPDEST SWAP2 POP PUSH2 0x43B7 DUP3 PUSH2 0x52A8 JUMP JUMPDEST PUSH1 0x40 DUP3 ADD SWAP1 POP SWAP2 SWAP1 POP JUMP JUMPDEST PUSH1 0x0 PUSH2 0x43CF PUSH1 0x20 DUP4 PUSH2 0x4BCD JUMP JUMPDEST SWAP2 POP PUSH2 0x43DA DUP3 PUSH2 0x52F7 JUMP JUMPDEST PUSH1 0x20 DUP3 ADD SWAP1 POP SWAP2 SWAP1 POP JUMP JUMPDEST PUSH1 0x0 PUSH2 0x43F2 PUSH1 0x29 DUP4 PUSH2 0x4BCD JUMP JUMPDEST SWAP2 POP PUSH2 0x43FD DUP3 PUSH2 0x5320 JUMP JUMPDEST PUSH1 0x40 DUP3 ADD SWAP1 POP SWAP2 SWAP1 POP JUMP JUMPDEST PUSH1 0x0 PUSH2 0x4415 PUSH1 0x2F DUP4 PUSH2 0x4BCD JUMP JUMPDEST SWAP2 POP PUSH2 0x4420 DUP3 PUSH2 0x536F JUMP JUMPDEST PUSH1 0x40 DUP3 ADD SWAP1 POP SWAP2 SWAP1 POP JUMP JUMPDEST PUSH1 0x0 PUSH2 0x4438 PUSH1 0x21 DUP4 PUSH2 0x4BCD JUMP JUMPDEST SWAP2 POP PUSH2 0x4443 DUP3 PUSH2 0x53BE JUMP JUMPDEST PUSH1 0x40 DUP3 ADD SWAP1 POP SWAP2 SWAP1 POP JUMP JUMPDEST PUSH1 0x0 PUSH2 0x445B PUSH1 0x40 DUP4 PUSH2 0x4BCD JUMP JUMPDEST SWAP2 POP PUSH2 0x4466 DUP3 PUSH2 0x540D JUMP JUMPDEST PUSH1 0x40 DUP3 ADD SWAP1 POP SWAP2 SWAP1 POP JUMP JUMPDEST PUSH1 0x0 PUSH2 0x447E PUSH1 0x31 DUP4 PUSH2 0x4BCD JUMP JUMPDEST SWAP2 POP PUSH2 0x4489 DUP3 PUSH2 0x545C JUMP JUMPDEST PUSH1 0x40 DUP3 ADD SWAP1 POP SWAP2 SWAP1 POP JUMP JUMPDEST PUSH1 0x0 PUSH2 0x44A1 PUSH1 0x2C DUP4 PUSH2 0x4BCD JUMP JUMPDEST SWAP2 POP PUSH2 0x44AC DUP3 PUSH2 0x54AB JUMP JUMPDEST PUSH1 0x40 DUP3 ADD SWAP1 POP SWAP2 SWAP1 POP JUMP JUMPDEST PUSH1 0x0 PUSH2 0x44C4 PUSH1 0x41 DUP4 PUSH2 0x4BCD JUMP JUMPDEST SWAP2 POP PUSH2 0x44CF DUP3 PUSH2 0x54FA JUMP JUMPDEST PUSH1 0x60 DUP3 ADD SWAP1 POP SWAP2 SWAP1 POP JUMP JUMPDEST PUSH1 0x0 PUSH2 0x44E7 PUSH1 0x1D DUP4 PUSH2 0x4BCD JUMP JUMPDEST SWAP2 POP PUSH2 0x44F2 DUP3 PUSH2 0x556F JUMP JUMPDEST PUSH1 0x20 DUP3 ADD SWAP1 POP SWAP2 SWAP1 POP JUMP JUMPDEST PUSH1 0x0 PUSH2 0x450A PUSH1 0x15 DUP4 PUSH2 0x4BCD JUMP JUMPDEST SWAP2 POP PUSH2 0x4515 DUP3 PUSH2 0x5598 JUMP JUMPDEST PUSH1 0x20 DUP3 ADD SWAP1 POP SWAP2 SWAP1 POP JUMP JUMPDEST PUSH1 0x60 DUP3 ADD PUSH1 0x0 DUP3 ADD MLOAD PUSH2 0x4536 PUSH1 0x0 DUP6 ADD DUP3 PUSH2 0x4562 JUMP JUMPDEST POP PUSH1 0x20 DUP3 ADD MLOAD PUSH2 0x4549 PUSH1 0x20 DUP6 ADD DUP3 PUSH2 0x403D JUMP JUMPDEST POP PUSH1 0x40 DUP3 ADD MLOAD PUSH2 0x455C PUSH1 0x40 DUP6 ADD DUP3 PUSH2 0x4562 JUMP JUMPDEST POP POP POP POP JUMP JUMPDEST PUSH2 0x456B DUP2 PUSH2 0x4D18 JUMP JUMPDEST DUP3 MSTORE POP POP JUMP JUMPDEST PUSH2 0x457A DUP2 PUSH2 0x4D18 JUMP JUMPDEST DUP3 MSTORE POP POP JUMP JUMPDEST PUSH2 0x4589 DUP2 PUSH2 0x4D22 JUMP JUMPDEST DUP3 MSTORE POP POP JUMP JUMPDEST PUSH1 0x0 PUSH2 0x459B DUP3 DUP6 PUSH2 0x41A7 JUMP JUMPDEST SWAP2 POP PUSH2 0x45A7 DUP3 DUP5 PUSH2 0x41A7 JUMP JUMPDEST SWAP2 POP DUP2 SWAP1 POP SWAP4 SWAP3 POP POP POP JUMP JUMPDEST PUSH1 0x0 PUSH1 0x20 DUP3 ADD SWAP1 POP PUSH2 0x45C8 PUSH1 0x0 DUP4 ADD DUP5 PUSH2 0x404C JUMP JUMPDEST SWAP3 SWAP2 POP POP JUMP JUMPDEST PUSH1 0x0 PUSH1 0x80 DUP3 ADD SWAP1 POP PUSH2 0x45E3 PUSH1 0x0 DUP4 ADD DUP8 PUSH2 0x404C JUMP JUMPDEST PUSH2 0x45F0 PUSH1 0x20 DUP4 ADD DUP7 PUSH2 0x404C JUMP JUMPDEST PUSH2 0x45FD PUSH1 0x40 DUP4 ADD DUP6 PUSH2 0x4571 JUMP JUMPDEST DUP2 DUP2 SUB PUSH1 0x60 DUP4 ADD MSTORE PUSH2 0x460F DUP2 DUP5 PUSH2 0x4135 JUMP JUMPDEST SWAP1 POP SWAP6 SWAP5 POP POP POP POP POP JUMP JUMPDEST PUSH1 0x0 PUSH1 0x60 DUP3 ADD SWAP1 POP DUP2 DUP2 SUB PUSH1 0x0 DUP4 ADD MSTORE PUSH2 0x4634 DUP2 DUP7 PUSH2 0x40B9 JUMP JUMPDEST SWAP1 POP DUP2 DUP2 SUB PUSH1 0x20 DUP4 ADD MSTORE PUSH2 0x4648 DUP2 DUP6 PUSH2 0x405B JUMP JUMPDEST SWAP1 POP DUP2 DUP2 SUB PUSH1 0x40 DUP4 ADD MSTORE PUSH2 0x465C DUP2 DUP5 PUSH2 0x40B9 JUMP JUMPDEST SWAP1 POP SWAP5 SWAP4 POP POP POP POP JUMP JUMPDEST PUSH1 0x0 PUSH1 0x20 DUP3 ADD SWAP1 POP PUSH2 0x467B PUSH1 0x0 DUP4 ADD DUP5 PUSH2 0x4117 JUMP JUMPDEST SWAP3 SWAP2 POP POP JUMP JUMPDEST PUSH1 0x0 PUSH1 0x80 DUP3 ADD SWAP1 POP PUSH2 0x4696 PUSH1 0x0 DUP4 ADD DUP8 PUSH2 0x4126 JUMP JUMPDEST PUSH2 0x46A3 PUSH1 0x20 DUP4 ADD DUP7 PUSH2 0x4580 JUMP JUMPDEST PUSH2 0x46B0 PUSH1 0x40 DUP4 ADD DUP6 PUSH2 0x4126 JUMP JUMPDEST PUSH2 0x46BD PUSH1 0x60 DUP4 ADD DUP5 PUSH2 0x4126 JUMP JUMPDEST SWAP6 SWAP5 POP POP POP POP POP JUMP JUMPDEST PUSH1 0x0 PUSH1 0x20 DUP3 ADD SWAP1 POP DUP2 DUP2 SUB PUSH1 0x0 DUP4 ADD MSTORE PUSH2 0x46E0 DUP2 DUP5 PUSH2 0x416E JUMP JUMPDEST SWAP1 POP SWAP3 SWAP2 POP POP JUMP JUMPDEST PUSH1 0x0 PUSH1 0x20 DUP3 ADD SWAP1 POP DUP2 DUP2 SUB PUSH1 0x0 DUP4 ADD MSTORE PUSH2 0x4701 DUP2 PUSH2 0x41D8 JUMP JUMPDEST SWAP1 POP SWAP2 SWAP1 POP JUMP JUMPDEST PUSH1 0x0 PUSH1 0x20 DUP3 ADD SWAP1 POP DUP2 DUP2 SUB PUSH1 0x0 DUP4 ADD MSTORE PUSH2 0x4721 DUP2 PUSH2 0x41FB JUMP JUMPDEST SWAP1 POP SWAP2 SWAP1 POP JUMP JUMPDEST PUSH1 0x0 PUSH1 0x20 DUP3 ADD SWAP1 POP DUP2 DUP2 SUB PUSH1 0x0 DUP4 ADD MSTORE PUSH2 0x4741 DUP2 PUSH2 0x421E JUMP JUMPDEST SWAP1 POP SWAP2 SWAP1 POP JUMP JUMPDEST PUSH1 0x0 PUSH1 0x20 DUP3 ADD SWAP1 POP DUP2 DUP2 SUB PUSH1 0x0 DUP4 ADD MSTORE PUSH2 0x4761 DUP2 PUSH2 0x4241 JUMP JUMPDEST SWAP1 POP SWAP2 SWAP1 POP JUMP JUMPDEST PUSH1 0x0 PUSH1 0x20 DUP3 ADD SWAP1 POP DUP2 DUP2 SUB PUSH1 0x0 DUP4 ADD MSTORE PUSH2 0x4781 DUP2 PUSH2 0x4264 JUMP JUMPDEST SWAP1 POP SWAP2 SWAP1 POP JUMP JUMPDEST PUSH1 0x0 PUSH1 0x20 DUP3 ADD SWAP1 POP DUP2 DUP2 SUB PUSH1 0x0 DUP4 ADD MSTORE PUSH2 0x47A1 DUP2 PUSH2 0x4287 JUMP JUMPDEST SWAP1 POP SWAP2 SWAP1 POP JUMP JUMPDEST PUSH1 0x0 PUSH1 0x20 DUP3 ADD SWAP1 POP DUP2 DUP2 SUB PUSH1 0x0 DUP4 ADD MSTORE PUSH2 0x47C1 DUP2 PUSH2 0x42AA JUMP JUMPDEST SWAP1 POP SWAP2 SWAP1 POP JUMP JUMPDEST PUSH1 0x0 PUSH1 0x20 DUP3 ADD SWAP1 POP DUP2 DUP2 SUB PUSH1 0x0 DUP4 ADD MSTORE PUSH2 0x47E1 DUP2 PUSH2 0x42CD JUMP JUMPDEST SWAP1 POP SWAP2 SWAP1 POP JUMP JUMPDEST PUSH1 0x0 PUSH1 0x20 DUP3 ADD SWAP1 POP DUP2 DUP2 SUB PUSH1 0x0 DUP4 ADD MSTORE PUSH2 0x4801 DUP2 PUSH2 0x42F0 JUMP JUMPDEST SWAP1 POP SWAP2 SWAP1 POP JUMP JUMPDEST PUSH1 0x0 PUSH1 0x20 DUP3 ADD SWAP1 POP DUP2 DUP2 SUB PUSH1 0x0 DUP4 ADD MSTORE PUSH2 0x4821 DUP2 PUSH2 0x4313 JUMP JUMPDEST SWAP1 POP SWAP2 SWAP1 POP JUMP JUMPDEST PUSH1 0x0 PUSH1 0x20 DUP3 ADD SWAP1 POP DUP2 DUP2 SUB PUSH1 0x0 DUP4 ADD MSTORE PUSH2 0x4841 DUP2 PUSH2 0x4336 JUMP JUMPDEST SWAP1 POP SWAP2 SWAP1 POP JUMP JUMPDEST PUSH1 0x0 PUSH1 0x20 DUP3 ADD SWAP1 POP DUP2 DUP2 SUB PUSH1 0x0 DUP4 ADD MSTORE PUSH2 0x4861 DUP2 PUSH2 0x4359 JUMP JUMPDEST SWAP1 POP SWAP2 SWAP1 POP JUMP JUMPDEST PUSH1 0x0 PUSH1 0x20 DUP3 ADD SWAP1 POP DUP2 DUP2 SUB PUSH1 0x0 DUP4 ADD MSTORE PUSH2 0x4881 DUP2 PUSH2 0x437C JUMP JUMPDEST SWAP1 POP SWAP2 SWAP1 POP JUMP JUMPDEST PUSH1 0x0 PUSH1 0x20 DUP3 ADD SWAP1 POP DUP2 DUP2 SUB PUSH1 0x0 DUP4 ADD MSTORE PUSH2 0x48A1 DUP2 PUSH2 0x439F JUMP JUMPDEST SWAP1 POP SWAP2 SWAP1 POP JUMP JUMPDEST PUSH1 0x0 PUSH1 0x20 DUP3 ADD SWAP1 POP DUP2 DUP2 SUB PUSH1 0x0 DUP4 ADD MSTORE PUSH2 0x48C1 DUP2 PUSH2 0x43C2 JUMP JUMPDEST SWAP1 POP SWAP2 SWAP1 POP JUMP JUMPDEST PUSH1 0x0 PUSH1 0x20 DUP3 ADD SWAP1 POP DUP2 DUP2 SUB PUSH1 0x0 DUP4 ADD MSTORE PUSH2 0x48E1 DUP2 PUSH2 0x43E5 JUMP JUMPDEST SWAP1 POP SWAP2 SWAP1 POP JUMP JUMPDEST PUSH1 0x0 PUSH1 0x20 DUP3 ADD SWAP1 POP DUP2 DUP2 SUB PUSH1 0x0 DUP4 ADD MSTORE PUSH2 0x4901 DUP2 PUSH2 0x4408 JUMP JUMPDEST SWAP1 POP SWAP2 SWAP1 POP JUMP JUMPDEST PUSH1 0x0 PUSH1 0x20 DUP3 ADD SWAP1 POP DUP2 DUP2 SUB PUSH1 0x0 DUP4 ADD MSTORE PUSH2 0x4921 DUP2 PUSH2 0x442B JUMP JUMPDEST SWAP1 POP SWAP2 SWAP1 POP JUMP JUMPDEST PUSH1 0x0 PUSH1 0x20 DUP3 ADD SWAP1 POP DUP2 DUP2 SUB PUSH1 0x0 DUP4 ADD MSTORE PUSH2 0x4941 DUP2 PUSH2 0x444E JUMP JUMPDEST SWAP1 POP SWAP2 SWAP1 POP JUMP JUMPDEST PUSH1 0x0 PUSH1 0x20 DUP3 ADD SWAP1 POP DUP2 DUP2 SUB PUSH1 0x0 DUP4 ADD MSTORE PUSH2 0x4961 DUP2 PUSH2 0x4471 JUMP JUMPDEST SWAP1 POP SWAP2 SWAP1 POP JUMP JUMPDEST PUSH1 0x0 PUSH1 0x20 DUP3 ADD SWAP1 POP DUP2 DUP2 SUB PUSH1 0x0 DUP4 ADD MSTORE PUSH2 0x4981 DUP2 PUSH2 0x4494 JUMP JUMPDEST SWAP1 POP SWAP2 SWAP1 POP JUMP JUMPDEST PUSH1 0x0 PUSH1 0x20 DUP3 ADD SWAP1 POP DUP2 DUP2 SUB PUSH1 0x0 DUP4 ADD MSTORE PUSH2 0x49A1 DUP2 PUSH2 0x44B7 JUMP JUMPDEST SWAP1 POP SWAP2 SWAP1 POP JUMP JUMPDEST PUSH1 0x0 PUSH1 0x20 DUP3 ADD SWAP1 POP DUP2 DUP2 SUB PUSH1 0x0 DUP4 ADD MSTORE PUSH2 0x49C1 DUP2 PUSH2 0x44DA JUMP JUMPDEST SWAP1 POP SWAP2 SWAP1 POP JUMP JUMPDEST PUSH1 0x0 PUSH1 0x20 DUP3 ADD SWAP1 POP DUP2 DUP2 SUB PUSH1 0x0 DUP4 ADD MSTORE PUSH2 0x49E1 DUP2 PUSH2 0x44FD JUMP JUMPDEST SWAP1 POP SWAP2 SWAP1 POP JUMP JUMPDEST PUSH1 0x0 PUSH1 0x60 DUP3 ADD SWAP1 POP PUSH2 0x49FD PUSH1 0x0 DUP4 ADD DUP5 PUSH2 0x4520 JUMP JUMPDEST SWAP3 SWAP2 POP POP JUMP JUMPDEST PUSH1 0x0 PUSH1 0x20 DUP3 ADD SWAP1 POP PUSH2 0x4A18 PUSH1 0x0 DUP4 ADD DUP5 PUSH2 0x4571 JUMP JUMPDEST SWAP3 SWAP2 POP POP JUMP JUMPDEST PUSH1 0x0 PUSH1 0x60 DUP3 ADD SWAP1 POP PUSH2 0x4A33 PUSH1 0x0 DUP4 ADD DUP7 PUSH2 0x4571 JUMP JUMPDEST PUSH2 0x4A40 PUSH1 0x20 DUP4 ADD DUP6 PUSH2 0x404C JUMP JUMPDEST PUSH2 0x4A4D PUSH1 0x40 DUP4 ADD DUP5 PUSH2 0x4571 JUMP JUMPDEST SWAP5 SWAP4 POP POP POP POP JUMP JUMPDEST PUSH1 0x0 PUSH2 0x4A5F PUSH2 0x4A70 JUMP JUMPDEST SWAP1 POP PUSH2 0x4A6B DUP3 DUP3 PUSH2 0x4DA3 JUMP JUMPDEST SWAP2 SWAP1 POP JUMP JUMPDEST PUSH1 0x0 PUSH1 0x40 MLOAD SWAP1 POP SWAP1 JUMP JUMPDEST PUSH1 0x0 PUSH8 0xFFFFFFFFFFFFFFFF DUP3 GT ISZERO PUSH2 0x4A95 JUMPI PUSH2 0x4A94 PUSH2 0x4F0A JUMP JUMPDEST JUMPDEST PUSH1 0x20 DUP3 MUL SWAP1 POP PUSH1 0x20 DUP2 ADD SWAP1 POP SWAP2 SWAP1 POP JUMP JUMPDEST PUSH1 0x0 PUSH8 0xFFFFFFFFFFFFFFFF DUP3 GT ISZERO PUSH2 0x4AC1 JUMPI PUSH2 0x4AC0 PUSH2 0x4F0A JUMP JUMPDEST JUMPDEST PUSH1 0x20 DUP3 MUL SWAP1 POP PUSH1 0x20 DUP2 ADD SWAP1 POP SWAP2 SWAP1 POP JUMP JUMPDEST PUSH1 0x0 PUSH8 0xFFFFFFFFFFFFFFFF DUP3 GT ISZERO PUSH2 0x4AED JUMPI PUSH2 0x4AEC PUSH2 0x4F0A JUMP JUMPDEST JUMPDEST PUSH2 0x4AF6 DUP3 PUSH2 0x4F52 JUMP JUMPDEST SWAP1 POP PUSH1 0x20 DUP2 ADD SWAP1 POP SWAP2 SWAP1 POP JUMP JUMPDEST PUSH1 0x0 PUSH8 0xFFFFFFFFFFFFFFFF DUP3 GT ISZERO PUSH2 0x4B1E JUMPI PUSH2 0x4B1D PUSH2 0x4F0A JUMP JUMPDEST JUMPDEST PUSH2 0x4B27 DUP3 PUSH2 0x4F52 JUMP JUMPDEST SWAP1 POP PUSH1 0x20 DUP2 ADD SWAP1 POP SWAP2 SWAP1 POP JUMP JUMPDEST PUSH1 0x0 DUP2 SWAP1 POP PUSH1 0x20 DUP3 ADD SWAP1 POP SWAP2 SWAP1 POP JUMP JUMPDEST PUSH1 0x0 DUP2 SWAP1 POP PUSH1 0x20 DUP3 ADD SWAP1 POP SWAP2 SWAP1 POP JUMP JUMPDEST PUSH1 0x0 DUP2 MLOAD SWAP1 POP SWAP2 SWAP1 POP JUMP JUMPDEST PUSH1 0x0 DUP2 MLOAD SWAP1 POP SWAP2 SWAP1 POP JUMP JUMPDEST PUSH1 0x0 DUP2 MLOAD SWAP1 POP SWAP2 SWAP1 POP JUMP JUMPDEST PUSH1 0x0 DUP2 MLOAD SWAP1 POP SWAP2 SWAP1 POP JUMP JUMPDEST PUSH1 0x0 PUSH1 0x20 DUP3 ADD SWAP1 POP SWAP2 SWAP1 POP JUMP JUMPDEST PUSH1 0x0 PUSH1 0x20 DUP3 ADD SWAP1 POP SWAP2 SWAP1 POP JUMP JUMPDEST PUSH1 0x0 DUP3 DUP3 MSTORE PUSH1 0x20 DUP3 ADD SWAP1 POP SWAP3 SWAP2 POP POP JUMP JUMPDEST PUSH1 0x0 DUP3 DUP3 MSTORE PUSH1 0x20 DUP3 ADD SWAP1 POP SWAP3 SWAP2 POP POP JUMP JUMPDEST PUSH1 0x0 DUP3 DUP3 MSTORE PUSH1 0x20 DUP3 ADD SWAP1 POP SWAP3 SWAP2 POP POP JUMP JUMPDEST PUSH1 0x0 DUP3 DUP3 MSTORE PUSH1 0x20 DUP3 ADD SWAP1 POP SWAP3 SWAP2 POP POP JUMP JUMPDEST PUSH1 0x0 DUP2 SWAP1 POP SWAP3 SWAP2 POP POP JUMP JUMPDEST PUSH1 0x0 PUSH2 0x4BF4 DUP3 PUSH2 0x4D18 JUMP JUMPDEST SWAP2 POP PUSH2 0x4BFF DUP4 PUSH2 0x4D18 JUMP JUMPDEST SWAP3 POP DUP3 PUSH32 0xFFFFFFFFFFFFFFFFFFFFFFFFFFFFFFFFFFFFFFFFFFFFFFFFFFFFFFFFFFFFFFFF SUB DUP3 GT ISZERO PUSH2 0x4C34 JUMPI PUSH2 0x4C33 PUSH2 0x4E4E JUMP JUMPDEST JUMPDEST DUP3 DUP3 ADD SWAP1 POP SWAP3 SWAP2 POP POP JUMP JUMPDEST PUSH1 0x0 PUSH2 0x4C4A DUP3 PUSH2 0x4D18 JUMP JUMPDEST SWAP2 POP PUSH2 0x4C55 DUP4 PUSH2 0x4D18 JUMP JUMPDEST SWAP3 POP DUP3 PUSH2 0x4C65 JUMPI PUSH2 0x4C64 PUSH2 0x4E7D JUMP JUMPDEST JUMPDEST DUP3 DUP3 DIV SWAP1 POP SWAP3 SWAP2 POP POP JUMP JUMPDEST PUSH1 0x0 PUSH2 0x4C7B DUP3 PUSH2 0x4D18 JUMP JUMPDEST SWAP2 POP PUSH2 0x4C86 DUP4 PUSH2 0x4D18 JUMP JUMPDEST SWAP3 POP DUP3 DUP3 LT ISZERO PUSH2 0x4C99 JUMPI PUSH2 0x4C98 PUSH2 0x4E4E JUMP JUMPDEST JUMPDEST DUP3 DUP3 SUB SWAP1 POP SWAP3 SWAP2 POP POP JUMP JUMPDEST PUSH1 0x0 PUSH2 0x4CAF DUP3 PUSH2 0x4CF8 JUMP JUMPDEST SWAP1 POP SWAP2 SWAP1 POP JUMP JUMPDEST PUSH1 0x0 DUP2 ISZERO ISZERO SWAP1 POP SWAP2 SWAP1 POP JUMP JUMPDEST PUSH1 0x0 DUP2 SWAP1 POP SWAP2 SWAP1 POP JUMP JUMPDEST PUSH1 0x0 PUSH32 0xFFFFFFFF00000000000000000000000000000000000000000000000000000000 DUP3 AND SWAP1 POP SWAP2 SWAP1 POP JUMP JUMPDEST PUSH1 0x0 PUSH20 0xFFFFFFFFFFFFFFFFFFFFFFFFFFFFFFFFFFFFFFFF DUP3 AND SWAP1 POP SWAP2 SWAP1 POP JUMP JUMPDEST PUSH1 0x0 DUP2 SWAP1 POP SWAP2 SWAP1 POP JUMP JUMPDEST PUSH1 0x0 PUSH1 0xFF DUP3 AND SWAP1 POP SWAP2 SWAP1 POP JUMP JUMPDEST DUP3 DUP2 DUP4 CALLDATACOPY PUSH1 0x0 DUP4 DUP4 ADD MSTORE POP POP POP JUMP JUMPDEST PUSH1 0x0 JUMPDEST DUP4 DUP2 LT ISZERO PUSH2 0x4D5C JUMPI DUP1 DUP3 ADD MLOAD DUP2 DUP5 ADD MSTORE PUSH1 0x20 DUP2 ADD SWAP1 POP PUSH2 0x4D41 JUMP JUMPDEST DUP4 DUP2 GT ISZERO PUSH2 0x4D6B JUMPI PUSH1 0x0 DUP5 DUP5 ADD MSTORE JUMPDEST POP POP POP POP JUMP JUMPDEST PUSH1 0x0 PUSH1 0x2 DUP3 DIV SWAP1 POP PUSH1 0x1 DUP3 AND DUP1 PUSH2 0x4D89 JUMPI PUSH1 0x7F DUP3 AND SWAP2 POP JUMPDEST PUSH1 0x20 DUP3 LT DUP2 EQ ISZERO PUSH2 0x4D9D JUMPI PUSH2 0x4D9C PUSH2 0x4EAC JUMP JUMPDEST JUMPDEST POP SWAP2 SWAP1 POP JUMP JUMPDEST PUSH2 0x4DAC DUP3 PUSH2 0x4F52 JUMP JUMPDEST DUP2 ADD DUP2 DUP2 LT PUSH8 0xFFFFFFFFFFFFFFFF DUP3 GT OR ISZERO PUSH2 0x4DCB JUMPI PUSH2 0x4DCA PUSH2 0x4F0A JUMP JUMPDEST JUMPDEST DUP1 PUSH1 0x40 MSTORE POP POP POP JUMP JUMPDEST PUSH1 0x0 PUSH2 0x4DDF DUP3 PUSH2 0x4D18 JUMP JUMPDEST SWAP2 POP PUSH32 0xFFFFFFFFFFFFFFFFFFFFFFFFFFFFFFFFFFFFFFFFFFFFFFFFFFFFFFFFFFFFFFFF DUP3 EQ ISZERO PUSH2 0x4E12 JUMPI PUSH2 0x4E11 PUSH2 0x4E4E JUMP JUMPDEST JUMPDEST PUSH1 0x1 DUP3 ADD SWAP1 POP SWAP2 SWAP1 POP JUMP JUMPDEST PUSH1 0x0 PUSH2 0x4E28 DUP3 PUSH2 0x4D18 JUMP JUMPDEST SWAP2 POP PUSH2 0x4E33 DUP4 PUSH2 0x4D18 JUMP JUMPDEST SWAP3 POP DUP3 PUSH2 0x4E43 JUMPI PUSH2 0x4E42 PUSH2 0x4E7D JUMP JUMPDEST JUMPDEST DUP3 DUP3 MOD SWAP1 POP SWAP3 SWAP2 POP POP JUMP JUMPDEST PUSH32 0x4E487B7100000000000000000000000000000000000000000000000000000000 PUSH1 0x0 MSTORE PUSH1 0x11 PUSH1 0x4 MSTORE PUSH1 0x24 PUSH1 0x0 REVERT JUMPDEST PUSH32 0x4E487B7100000000000000000000000000000000000000000000000000000000 PUSH1 0x0 MSTORE PUSH1 0x12 PUSH1 0x4 MSTORE PUSH1 0x24 PUSH1 0x0 REVERT JUMPDEST PUSH32 0x4E487B7100000000000000000000000000000000000000000000000000000000 PUSH1 0x0 MSTORE PUSH1 0x22 PUSH1 0x4 MSTORE PUSH1 0x24 PUSH1 0x0 REVERT JUMPDEST PUSH32 0x4E487B7100000000000000000000000000000000000000000000000000000000 PUSH1 0x0 MSTORE PUSH1 0x32 PUSH1 0x4 MSTORE PUSH1 0x24 PUSH1 0x0 REVERT JUMPDEST PUSH32 0x4E487B7100000000000000000000000000000000000000000000000000000000 PUSH1 0x0 MSTORE PUSH1 0x41 PUSH1 0x4 MSTORE PUSH1 0x24 PUSH1 0x0 REVERT JUMPDEST PUSH1 0x0 DUP1 REVERT JUMPDEST PUSH1 0x0 DUP1 REVERT JUMPDEST PUSH1 0x0 DUP1 REVERT JUMPDEST PUSH1 0x0 DUP1 REVERT JUMPDEST PUSH1 0x0 DUP1 REVERT JUMPDEST PUSH1 0x0 PUSH1 0x1F NOT PUSH1 0x1F DUP4 ADD AND SWAP1 POP SWAP2 SWAP1 POP JUMP JUMPDEST PUSH32 0x4552433732313A207472616E7366657220746F206E6F6E204552433732315265 PUSH1 0x0 DUP3 ADD MSTORE PUSH32 0x63656976657220696D706C656D656E7465720000000000000000000000000000 PUSH1 0x20 DUP3 ADD MSTORE POP JUMP JUMPDEST PUSH32 0x556E737570706F7274656420636861696E2E0000000000000000000000000000 PUSH1 0x0 DUP3 ADD MSTORE POP JUMP JUMPDEST PUSH32 0x4F776E61626C653A206E6577206F776E657220697320746865207A65726F2061 PUSH1 0x0 DUP3 ADD MSTORE PUSH32 0x6464726573730000000000000000000000000000000000000000000000000000 PUSH1 0x20 DUP3 ADD MSTORE POP JUMP JUMPDEST PUSH32 0x4552433732313A20746F6B656E20616C7265616479206D696E74656400000000 PUSH1 0x0 DUP3 ADD MSTORE POP JUMP JUMPDEST PUSH32 0x4552433732313A207472616E7366657220746F20746865207A65726F20616464 PUSH1 0x0 DUP3 ADD MSTORE PUSH32 0x7265737300000000000000000000000000000000000000000000000000000000 PUSH1 0x20 DUP3 ADD MSTORE POP JUMP JUMPDEST PUSH32 0x4552433732313A20617070726F766520746F2063616C6C657200000000000000 PUSH1 0x0 DUP3 ADD MSTORE POP JUMP JUMPDEST PUSH32 0x4552433732313A206F70657261746F7220717565727920666F72206E6F6E6578 PUSH1 0x0 DUP3 ADD MSTORE PUSH32 0x697374656E7420746F6B656E0000000000000000000000000000000000000000 PUSH1 0x20 DUP3 ADD MSTORE POP JUMP JUMPDEST PUSH32 0x4552433732313A20617070726F76652063616C6C6572206973206E6F74206F77 PUSH1 0x0 DUP3 ADD MSTORE PUSH32 0x6E6572206E6F7220617070726F76656420666F7220616C6C0000000000000000 PUSH1 0x20 DUP3 ADD MSTORE POP JUMP JUMPDEST PUSH32 0x4552433732313A2062616C616E636520717565727920666F7220746865207A65 PUSH1 0x0 DUP3 ADD MSTORE PUSH32 0x726F206164647265737300000000000000000000000000000000000000000000 PUSH1 0x20 DUP3 ADD MSTORE POP JUMP JUMPDEST PUSH32 0x4552433732313A206F776E657220717565727920666F72206E6F6E6578697374 PUSH1 0x0 DUP3 ADD MSTORE PUSH32 0x656E7420746F6B656E0000000000000000000000000000000000000000000000 PUSH1 0x20 DUP3 ADD MSTORE POP JUMP JUMPDEST PUSH32 0x4552433732313A206D696E7420746F20746865207A65726F2061646472657373 PUSH1 0x0 DUP3 ADD MSTORE POP JUMP JUMPDEST PUSH32 0x45524337323155524953746F726167653A2055524920717565727920666F7220 PUSH1 0x0 DUP3 ADD MSTORE PUSH32 0x6E6F6E6578697374656E7420746F6B656E000000000000000000000000000000 PUSH1 0x20 DUP3 ADD MSTORE POP JUMP JUMPDEST PUSH32 0x556E737570706F72746564206E667420636F6E74726163742061646472657373 PUSH1 0x0 DUP3 ADD MSTORE POP JUMP JUMPDEST PUSH32 0x4552433732313A20617070726F76656420717565727920666F72206E6F6E6578 PUSH1 0x0 DUP3 ADD MSTORE PUSH32 0x697374656E7420746F6B656E0000000000000000000000000000000000000000 PUSH1 0x20 DUP3 ADD MSTORE POP JUMP JUMPDEST PUSH32 0x4F776E61626C653A2063616C6C6572206973206E6F7420746865206F776E6572 PUSH1 0x0 DUP3 ADD MSTORE POP JUMP JUMPDEST PUSH32 0x4552433732313A207472616E73666572206F6620746F6B656E20746861742069 PUSH1 0x0 DUP3 ADD MSTORE PUSH32 0x73206E6F74206F776E0000000000000000000000000000000000000000000000 PUSH1 0x20 DUP3 ADD MSTORE POP JUMP JUMPDEST PUSH32 0x4552433732314D657461646174613A2055524920717565727920666F72206E6F PUSH1 0x0 DUP3 ADD MSTORE PUSH32 0x6E6578697374656E7420746F6B656E0000000000000000000000000000000000 PUSH1 0x20 DUP3 ADD MSTORE POP JUMP JUMPDEST PUSH32 0x4552433732313A20617070726F76616C20746F2063757272656E74206F776E65 PUSH1 0x0 DUP3 ADD MSTORE PUSH32 0x7200000000000000000000000000000000000000000000000000000000000000 PUSH1 0x20 DUP3 ADD MSTORE POP JUMP JUMPDEST PUSH32 0x4261746368506179466F7241493A2071756F74655F636861696E49647320616E PUSH1 0x0 DUP3 ADD MSTORE PUSH32 0x642071756F74655F746F6B656E496473206C656E677468206D69736D61746368 PUSH1 0x20 DUP3 ADD MSTORE POP JUMP JUMPDEST PUSH32 0x4552433732313A207472616E736665722063616C6C6572206973206E6F74206F PUSH1 0x0 DUP3 ADD MSTORE PUSH32 0x776E6572206E6F7220617070726F766564000000000000000000000000000000 PUSH1 0x20 DUP3 ADD MSTORE POP JUMP JUMPDEST PUSH32 0x746865206D73672E73656E646572206973206E6F7420696E2077686974656C69 PUSH1 0x0 DUP3 ADD MSTORE PUSH32 0x7374206164647265737365730000000000000000000000000000000000000000 PUSH1 0x20 DUP3 ADD MSTORE POP JUMP JUMPDEST PUSH32 0x4261746368506179466F7241493A2071756F74655F636861696E49647320616E PUSH1 0x0 DUP3 ADD MSTORE PUSH32 0x642071756F74655F636F6E747261637473206C656E677468206D69736D617463 PUSH1 0x20 DUP3 ADD MSTORE PUSH32 0x6800000000000000000000000000000000000000000000000000000000000000 PUSH1 0x40 DUP3 ADD MSTORE POP JUMP JUMPDEST PUSH32 0x4D696E7420636F756E7420657863656564204D41585F535550504C5921000000 PUSH1 0x0 DUP3 ADD MSTORE POP JUMP JUMPDEST PUSH32 0x496E76616C69642072656465656D20636F646520210000000000000000000000 PUSH1 0x0 DUP3 ADD MSTORE POP JUMP JUMPDEST PUSH2 0x55CA DUP2 PUSH2 0x4CA4 JUMP JUMPDEST DUP2 EQ PUSH2 0x55D5 JUMPI PUSH1 0x0 DUP1 REVERT JUMPDEST POP JUMP JUMPDEST PUSH2 0x55E1 DUP2 PUSH2 0x4CB6 JUMP JUMPDEST DUP2 EQ PUSH2 0x55EC JUMPI PUSH1 0x0 DUP1 REVERT JUMPDEST POP JUMP JUMPDEST PUSH2 0x55F8 DUP2 PUSH2 0x4CC2 JUMP JUMPDEST DUP2 EQ PUSH2 0x5603 JUMPI PUSH1 0x0 DUP1 REVERT JUMPDEST POP JUMP JUMPDEST PUSH2 0x560F DUP2 PUSH2 0x4CCC JUMP JUMPDEST DUP2 EQ PUSH2 0x561A JUMPI PUSH1 0x0 DUP1 REVERT JUMPDEST POP JUMP JUMPDEST PUSH2 0x5626 DUP2 PUSH2 0x4D18 JUMP JUMPDEST DUP2 EQ PUSH2 0x5631 JUMPI PUSH1 0x0 DUP1 REVERT JUMPDEST POP JUMP INVALID LOG2 PUSH5 0x6970667358 0x22 SLT KECCAK256 0xB5 0xDE 0xCF 0xD9 DUP4 JUMPI 0xFC DELEGATECALL 0xB4 SGT 0xE8 0x22 SLOAD EXTCODESIZE 0xC7 0xE1 PUSH22 0x7ED0F28CF9B2C9EA249C951A6C415064736F6C634300 ADDMOD SMOD STOP CALLER "
		},
		"gasEstimates": {
			"creation": {
				"codeDepositCost": "4424400",
				"executionCost": "infinite",
				"totalCost": "infinite"
			},
			"external": {
				"addSupportedAddress(address)": "27098",
				"addSupportedQuoteChain(uint256)": "27036",
				"addWhiteListAddress(address)": "27186",
				"approve(address,uint256)": "infinite",
				"balanceOf(address)": "3012",
				"baseURI()": "infinite",
				"batchAddSupportedQuoteChain(uint256[])": "infinite",
				"batchAddWhiteList(address[])": "infinite",
				"batchDelSupportedQuoteChain(uint256[])": "infinite",
				"batchDelWhiteList(address[])": "infinite",
				"batchPayForAI(uint256[],address[],uint256[])": "infinite",
				"delSupportedAddress(address)": "27164",
				"delSupportedQuoteChain(uint256)": "27079",
				"delWhiteListAddress(address)": "27141",
				"getApproved(uint256)": "5251",
				"getOwnerAddress()": "2692",
				"getSupportedAddress(address)": "2927",
				"getWhiteListAddress(address)": "2928",
				"isApprovedForAll(address,address)": "infinite",
				"kill()": "30117",
				"maxSupply()": "2503",
				"mint(bytes32,bytes,uint256,address,uint256)": "infinite",
				"mintTo(address,uint256,address,uint256)": "infinite",
				"name()": "infinite",
				"owner()": "2589",
				"ownerOf(uint256)": "3111",
				"payedlist(address)": "2956",
				"payforAI(uint256,address,uint256)": "infinite",
				"quoteInfo(uint256)": "infinite",
				"renounceOwnership()": "30529",
				"safeTransferFrom(address,address,uint256)": "infinite",
				"safeTransferFrom(address,address,uint256,bytes)": "infinite",
				"setApprovalForAll(address,bool)": "infinite",
				"setBaseURI(string)": "infinite",
				"setMaxSupply(uint256)": "24871",
				"supportsInterface(bytes4)": "820",
				"symbol()": "infinite",
				"tokenURI(uint256)": "infinite",
				"totalSupply()": "2505",
				"transferFrom(address,address,uint256)": "infinite",
				"transferOwnership(address)": "30877",
				"verifyWhitelist(bytes32,bytes)": "infinite",
				"wl2_mint(uint256,address,uint256)": "infinite",
				"wl_mint(uint256,address,uint256)": "infinite"
			},
			"internal": {
				"_baseURI()": "infinite",
				"prefixed(bytes32)": "infinite",
				"recoverSigner(bytes32,bytes memory)": "infinite",
				"splitSignature(bytes memory)": "infinite"
			}
		},
		"methodIdentifiers": {
			"addSupportedAddress(address)": "723a2a8e",
			"addSupportedQuoteChain(uint256)": "8c4e3699",
			"addWhiteListAddress(address)": "8164c309",
			"approve(address,uint256)": "095ea7b3",
			"balanceOf(address)": "70a08231",
			"baseURI()": "6c0360eb",
			"batchAddSupportedQuoteChain(uint256[])": "69d3372a",
			"batchAddWhiteList(address[])": "cd059237",
			"batchDelSupportedQuoteChain(uint256[])": "0c66b3a0",
			"batchDelWhiteList(address[])": "5a4fe0f6",
			"batchPayForAI(uint256[],address[],uint256[])": "bd30a4cb",
			"delSupportedAddress(address)": "5c35a65a",
			"delSupportedQuoteChain(uint256)": "e591ed81",
			"delWhiteListAddress(address)": "c58d6799",
			"getApproved(uint256)": "081812fc",
			"getOwnerAddress()": "0c4f65bd",
			"getSupportedAddress(address)": "ce463734",
			"getWhiteListAddress(address)": "6360e1d9",
			"isApprovedForAll(address,address)": "e985e9c5",
			"kill()": "41c0e1b5",
			"maxSupply()": "d5abeb01",
			"mint(bytes32,bytes,uint256,address,uint256)": "7f77b3b5",
			"mintTo(address,uint256,address,uint256)": "75d331cc",
			"name()": "06fdde03",
			"owner()": "8da5cb5b",
			"ownerOf(uint256)": "6352211e",
			"payedlist(address)": "95f20f4b",
			"payforAI(uint256,address,uint256)": "5a68ac86",
			"quoteInfo(uint256)": "a241af99",
			"renounceOwnership()": "715018a6",
			"safeTransferFrom(address,address,uint256)": "42842e0e",
			"safeTransferFrom(address,address,uint256,bytes)": "b88d4fde",
			"setApprovalForAll(address,bool)": "a22cb465",
			"setBaseURI(string)": "55f804b3",
			"setMaxSupply(uint256)": "6f8b44b0",
			"supportsInterface(bytes4)": "01ffc9a7",
			"symbol()": "95d89b41",
			"tokenURI(uint256)": "c87b56dd",
			"totalSupply()": "18160ddd",
			"transferFrom(address,address,uint256)": "23b872dd",
			"transferOwnership(address)": "f2fde38b",
			"verifyWhitelist(bytes32,bytes)": "eab36087",
			"wl2_mint(uint256,address,uint256)": "24643ddb",
			"wl_mint(uint256,address,uint256)": "79cba591"
		}
	},
	"abi": [
		{
			"inputs": [],
			"stateMutability": "nonpayable",
			"type": "constructor"
		},
		{
			"anonymous": false,
			"inputs": [
				{
					"indexed": true,
					"internalType": "address",
					"name": "owner",
					"type": "address"
				},
				{
					"indexed": true,
					"internalType": "address",
					"name": "approved",
					"type": "address"
				},
				{
					"indexed": true,
					"internalType": "uint256",
					"name": "tokenId",
					"type": "uint256"
				}
			],
			"name": "Approval",
			"type": "event"
		},
		{
			"anonymous": false,
			"inputs": [
				{
					"indexed": true,
					"internalType": "address",
					"name": "owner",
					"type": "address"
				},
				{
					"indexed": true,
					"internalType": "address",
					"name": "operator",
					"type": "address"
				},
				{
					"indexed": false,
					"internalType": "bool",
					"name": "approved",
					"type": "bool"
				}
			],
			"name": "ApprovalForAll",
			"type": "event"
		},
		{
			"anonymous": false,
			"inputs": [
				{
					"indexed": true,
					"internalType": "address",
					"name": "_from",
					"type": "address"
				},
				{
					"indexed": false,
					"internalType": "uint256[]",
					"name": "quote_chainIds",
					"type": "uint256[]"
				},
				{
					"indexed": false,
					"internalType": "address[]",
					"name": "quote_contracts",
					"type": "address[]"
				},
				{
					"indexed": false,
					"internalType": "uint256[]",
					"name": "quote_tokenIds",
					"type": "uint256[]"
				}
			],
			"name": "BatchPayForAI",
			"type": "event"
		},
		{
			"anonymous": false,
			"inputs": [
				{
					"indexed": true,
					"internalType": "address",
					"name": "previousOwner",
					"type": "address"
				},
				{
					"indexed": true,
					"internalType": "address",
					"name": "newOwner",
					"type": "address"
				}
			],
			"name": "OwnershipTransferred",
			"type": "event"
		},
		{
			"anonymous": false,
			"inputs": [
				{
					"indexed": true,
					"internalType": "address",
					"name": "_from",
					"type": "address"
				},
				{
					"indexed": false,
					"internalType": "uint256",
					"name": "quote_chainId",
					"type": "uint256"
				},
				{
					"indexed": false,
					"internalType": "address",
					"name": "quote_contract",
					"type": "address"
				},
				{
					"indexed": false,
					"internalType": "uint256",
					"name": "quote_tokenId",
					"type": "uint256"
				}
			],
			"name": "PayForAI",
			"type": "event"
		},
		{
			"anonymous": false,
			"inputs": [
				{
					"indexed": true,
					"internalType": "address",
					"name": "from",
					"type": "address"
				},
				{
					"indexed": true,
					"internalType": "address",
					"name": "to",
					"type": "address"
				},
				{
					"indexed": true,
					"internalType": "uint256",
					"name": "tokenId",
					"type": "uint256"
				}
			],
			"name": "Transfer",
			"type": "event"
		},
		{
			"inputs": [
				{
					"internalType": "address",
					"name": "addr",
					"type": "address"
				}
			],
			"name": "addSupportedAddress",
			"outputs": [],
			"stateMutability": "nonpayable",
			"type": "function"
		},
		{
			"inputs": [
				{
					"internalType": "uint256",
					"name": "id",
					"type": "uint256"
				}
			],
			"name": "addSupportedQuoteChain",
			"outputs": [],
			"stateMutability": "nonpayable",
			"type": "function"
		},
		{
			"inputs": [
				{
					"internalType": "address",
					"name": "addr",
					"type": "address"
				}
			],
			"name": "addWhiteListAddress",
			"outputs": [],
			"stateMutability": "nonpayable",
			"type": "function"
		},
		{
			"inputs": [
				{
					"internalType": "address",
					"name": "to",
					"type": "address"
				},
				{
					"internalType": "uint256",
					"name": "tokenId",
					"type": "uint256"
				}
			],
			"name": "approve",
			"outputs": [],
			"stateMutability": "nonpayable",
			"type": "function"
		},
		{
			"inputs": [
				{
					"internalType": "address",
					"name": "owner",
					"type": "address"
				}
			],
			"name": "balanceOf",
			"outputs": [
				{
					"internalType": "uint256",
					"name": "",
					"type": "uint256"
				}
			],
			"stateMutability": "view",
			"type": "function"
		},
		{
			"inputs": [],
			"name": "baseURI",
			"outputs": [
				{
					"internalType": "string",
					"name": "",
					"type": "string"
				}
			],
			"stateMutability": "view",
			"type": "function"
		},
		{
			"inputs": [
				{
					"internalType": "uint256[]",
					"name": "_chains",
					"type": "uint256[]"
				}
			],
			"name": "batchAddSupportedQuoteChain",
			"outputs": [],
			"stateMutability": "nonpayable",
			"type": "function"
		},
		{
			"inputs": [
				{
					"internalType": "address[]",
					"name": "_wl_list",
					"type": "address[]"
				}
			],
			"name": "batchAddWhiteList",
			"outputs": [],
			"stateMutability": "nonpayable",
			"type": "function"
		},
		{
			"inputs": [
				{
					"internalType": "uint256[]",
					"name": "_chains",
					"type": "uint256[]"
				}
			],
			"name": "batchDelSupportedQuoteChain",
			"outputs": [],
			"stateMutability": "nonpayable",
			"type": "function"
		},
		{
			"inputs": [
				{
					"internalType": "address[]",
					"name": "_wl_list",
					"type": "address[]"
				}
			],
			"name": "batchDelWhiteList",
			"outputs": [],
			"stateMutability": "nonpayable",
			"type": "function"
		},
		{
			"inputs": [
				{
					"internalType": "uint256[]",
					"name": "quote_chainIds",
					"type": "uint256[]"
				},
				{
					"internalType": "address[]",
					"name": "quote_contracts",
					"type": "address[]"
				},
				{
					"internalType": "uint256[]",
					"name": "quote_tokenIds",
					"type": "uint256[]"
				}
			],
			"name": "batchPayForAI",
			"outputs": [],
			"stateMutability": "nonpayable",
			"type": "function"
		},
		{
			"inputs": [
				{
					"internalType": "address",
					"name": "addr",
					"type": "address"
				}
			],
			"name": "delSupportedAddress",
			"outputs": [],
			"stateMutability": "nonpayable",
			"type": "function"
		},
		{
			"inputs": [
				{
					"internalType": "uint256",
					"name": "id",
					"type": "uint256"
				}
			],
			"name": "delSupportedQuoteChain",
			"outputs": [],
			"stateMutability": "nonpayable",
			"type": "function"
		},
		{
			"inputs": [
				{
					"internalType": "address",
					"name": "addr",
					"type": "address"
				}
			],
			"name": "delWhiteListAddress",
			"outputs": [],
			"stateMutability": "nonpayable",
			"type": "function"
		},
		{
			"inputs": [
				{
					"internalType": "uint256",
					"name": "tokenId",
					"type": "uint256"
				}
			],
			"name": "getApproved",
			"outputs": [
				{
					"internalType": "address",
					"name": "",
					"type": "address"
				}
			],
			"stateMutability": "view",
			"type": "function"
		},
		{
			"inputs": [],
			"name": "getOwnerAddress",
			"outputs": [
				{
					"internalType": "address",
					"name": "",
					"type": "address"
				}
			],
			"stateMutability": "view",
			"type": "function"
		},
		{
			"inputs": [
				{
					"internalType": "address",
					"name": "addr",
					"type": "address"
				}
			],
			"name": "getSupportedAddress",
			"outputs": [
				{
					"internalType": "bool",
					"name": "",
					"type": "bool"
				}
			],
			"stateMutability": "view",
			"type": "function"
		},
		{
			"inputs": [
				{
					"internalType": "address",
					"name": "addr",
					"type": "address"
				}
			],
			"name": "getWhiteListAddress",
			"outputs": [
				{
					"internalType": "bool",
					"name": "",
					"type": "bool"
				}
			],
			"stateMutability": "view",
			"type": "function"
		},
		{
			"inputs": [
				{
					"internalType": "address",
					"name": "owner",
					"type": "address"
				},
				{
					"internalType": "address",
					"name": "operator",
					"type": "address"
				}
			],
			"name": "isApprovedForAll",
			"outputs": [
				{
					"internalType": "bool",
					"name": "",
					"type": "bool"
				}
			],
			"stateMutability": "view",
			"type": "function"
		},
		{
			"inputs": [],
			"name": "kill",
			"outputs": [],
			"stateMutability": "nonpayable",
			"type": "function"
		},
		{
			"inputs": [],
			"name": "maxSupply",
			"outputs": [
				{
					"internalType": "uint256",
					"name": "",
					"type": "uint256"
				}
			],
			"stateMutability": "view",
			"type": "function"
		},
		{
			"inputs": [
				{
					"internalType": "bytes32",
					"name": "message",
					"type": "bytes32"
				},
				{
					"internalType": "bytes",
					"name": "sig",
					"type": "bytes"
				},
				{
					"internalType": "uint256",
					"name": "quote_chainId",
					"type": "uint256"
				},
				{
					"internalType": "address",
					"name": "quote_contract",
					"type": "address"
				},
				{
					"internalType": "uint256",
					"name": "quote_tokenId",
					"type": "uint256"
				}
			],
			"name": "mint",
			"outputs": [],
			"stateMutability": "nonpayable",
			"type": "function"
		},
		{
			"inputs": [
				{
					"internalType": "address",
					"name": "_to",
					"type": "address"
				},
				{
					"internalType": "uint256",
					"name": "quote_chainId",
					"type": "uint256"
				},
				{
					"internalType": "address",
					"name": "quote_contract",
					"type": "address"
				},
				{
					"internalType": "uint256",
					"name": "quote_tokenId",
					"type": "uint256"
				}
			],
			"name": "mintTo",
			"outputs": [],
			"stateMutability": "nonpayable",
			"type": "function"
		},
		{
			"inputs": [],
			"name": "name",
			"outputs": [
				{
					"internalType": "string",
					"name": "",
					"type": "string"
				}
			],
			"stateMutability": "view",
			"type": "function"
		},
		{
			"inputs": [],
			"name": "owner",
			"outputs": [
				{
					"internalType": "address",
					"name": "",
					"type": "address"
				}
			],
			"stateMutability": "view",
			"type": "function"
		},
		{
			"inputs": [
				{
					"internalType": "uint256",
					"name": "tokenId",
					"type": "uint256"
				}
			],
			"name": "ownerOf",
			"outputs": [
				{
					"internalType": "address",
					"name": "",
					"type": "address"
				}
			],
			"stateMutability": "view",
			"type": "function"
		},
		{
			"inputs": [
				{
					"internalType": "address",
					"name": "",
					"type": "address"
				}
			],
			"name": "payedlist",
			"outputs": [
				{
					"internalType": "bool",
					"name": "",
					"type": "bool"
				}
			],
			"stateMutability": "view",
			"type": "function"
		},
		{
			"inputs": [
				{
					"internalType": "uint256",
					"name": "quote_chainId",
					"type": "uint256"
				},
				{
					"internalType": "address",
					"name": "quote_contract",
					"type": "address"
				},
				{
					"internalType": "uint256",
					"name": "quote_tokenId",
					"type": "uint256"
				}
			],
			"name": "payforAI",
			"outputs": [],
			"stateMutability": "nonpayable",
			"type": "function"
		},
		{
			"inputs": [
				{
					"internalType": "uint256",
					"name": "tokenId",
					"type": "uint256"
				}
			],
			"name": "quoteInfo",
			"outputs": [
				{
					"components": [
						{
							"internalType": "uint256",
							"name": "quote_chainId",
							"type": "uint256"
						},
						{
							"internalType": "address",
							"name": "quote_contract",
							"type": "address"
						},
						{
							"internalType": "uint256",
							"name": "quote_tokenId",
							"type": "uint256"
						}
					],
					"internalType": "struct RedeemCodeFactory.QuoteInfo",
					"name": "",
					"type": "tuple"
				}
			],
			"stateMutability": "view",
			"type": "function"
		},
		{
			"inputs": [],
			"name": "renounceOwnership",
			"outputs": [],
			"stateMutability": "nonpayable",
			"type": "function"
		},
		{
			"inputs": [
				{
					"internalType": "address",
					"name": "from",
					"type": "address"
				},
				{
					"internalType": "address",
					"name": "to",
					"type": "address"
				},
				{
					"internalType": "uint256",
					"name": "tokenId",
					"type": "uint256"
				}
			],
			"name": "safeTransferFrom",
			"outputs": [],
			"stateMutability": "nonpayable",
			"type": "function"
		},
		{
			"inputs": [
				{
					"internalType": "address",
					"name": "from",
					"type": "address"
				},
				{
					"internalType": "address",
					"name": "to",
					"type": "address"
				},
				{
					"internalType": "uint256",
					"name": "tokenId",
					"type": "uint256"
				},
				{
					"internalType": "bytes",
					"name": "_data",
					"type": "bytes"
				}
			],
			"name": "safeTransferFrom",
			"outputs": [],
			"stateMutability": "nonpayable",
			"type": "function"
		},
		{
			"inputs": [
				{
					"internalType": "address",
					"name": "operator",
					"type": "address"
				},
				{
					"internalType": "bool",
					"name": "approved",
					"type": "bool"
				}
			],
			"name": "setApprovalForAll",
			"outputs": [],
			"stateMutability": "nonpayable",
			"type": "function"
		},
		{
			"inputs": [
				{
					"internalType": "string",
					"name": "newBaseURI",
					"type": "string"
				}
			],
			"name": "setBaseURI",
			"outputs": [],
			"stateMutability": "nonpayable",
			"type": "function"
		},
		{
			"inputs": [
				{
					"internalType": "uint256",
					"name": "newMaxSupply",
					"type": "uint256"
				}
			],
			"name": "setMaxSupply",
			"outputs": [],
			"stateMutability": "nonpayable",
			"type": "function"
		},
		{
			"inputs": [
				{
					"internalType": "bytes4",
					"name": "interfaceId",
					"type": "bytes4"
				}
			],
			"name": "supportsInterface",
			"outputs": [
				{
					"internalType": "bool",
					"name": "",
					"type": "bool"
				}
			],
			"stateMutability": "view",
			"type": "function"
		},
		{
			"inputs": [],
			"name": "symbol",
			"outputs": [
				{
					"internalType": "string",
					"name": "",
					"type": "string"
				}
			],
			"stateMutability": "view",
			"type": "function"
		},
		{
			"inputs": [
				{
					"internalType": "uint256",
					"name": "tokenId",
					"type": "uint256"
				}
			],
			"name": "tokenURI",
			"outputs": [
				{
					"internalType": "string",
					"name": "",
					"type": "string"
				}
			],
			"stateMutability": "view",
			"type": "function"
		},
		{
			"inputs": [],
			"name": "totalSupply",
			"outputs": [
				{
					"internalType": "uint256",
					"name": "",
					"type": "uint256"
				}
			],
			"stateMutability": "view",
			"type": "function"
		},
		{
			"inputs": [
				{
					"internalType": "address",
					"name": "from",
					"type": "address"
				},
				{
					"internalType": "address",
					"name": "to",
					"type": "address"
				},
				{
					"internalType": "uint256",
					"name": "tokenId",
					"type": "uint256"
				}
			],
			"name": "transferFrom",
			"outputs": [],
			"stateMutability": "nonpayable",
			"type": "function"
		},
		{
			"inputs": [
				{
					"internalType": "address",
					"name": "newOwner",
					"type": "address"
				}
			],
			"name": "transferOwnership",
			"outputs": [],
			"stateMutability": "nonpayable",
			"type": "function"
		},
		{
			"inputs": [
				{
					"internalType": "bytes32",
					"name": "message",
					"type": "bytes32"
				},
				{
					"internalType": "bytes",
					"name": "sig",
					"type": "bytes"
				}
			],
			"name": "verifyWhitelist",
			"outputs": [
				{
					"internalType": "bool",
					"name": "",
					"type": "bool"
				}
			],
			"stateMutability": "view",
			"type": "function"
		},
		{
			"inputs": [
				{
					"internalType": "uint256",
					"name": "quote_chainId",
					"type": "uint256"
				},
				{
					"internalType": "address",
					"name": "quote_contract",
					"type": "address"
				},
				{
					"internalType": "uint256",
					"name": "quote_tokenId",
					"type": "uint256"
				}
			],
			"name": "wl2_mint",
			"outputs": [],
			"stateMutability": "nonpayable",
			"type": "function"
		},
		{
			"inputs": [
				{
					"internalType": "uint256",
					"name": "quote_chainId",
					"type": "uint256"
				},
				{
					"internalType": "address",
					"name": "quote_contract",
					"type": "address"
				},
				{
					"internalType": "uint256",
					"name": "quote_tokenId",
					"type": "uint256"
				}
			],
			"name": "wl_mint",
			"outputs": [],
			"stateMutability": "nonpayable",
			"type": "function"
		}
	]
}